{
	"task1/roman.sol": {
		"Roman": {
			"abi": [
				{
					"inputs": [],
					"stateMutability": "nonpayable",
					"type": "constructor"
				},
				{
					"inputs": [
						{
							"internalType": "uint256",
							"name": "num",
							"type": "uint256"
						}
					],
					"name": "intToRoman",
					"outputs": [
						{
							"internalType": "string",
							"name": "",
							"type": "string"
						}
					],
					"stateMutability": "view",
					"type": "function"
				},
				{
					"inputs": [
						{
							"internalType": "string",
							"name": "s",
							"type": "string"
						}
					],
					"name": "romanToInt",
					"outputs": [
						{
							"internalType": "uint256",
							"name": "",
							"type": "uint256"
						}
					],
					"stateMutability": "view",
					"type": "function"
				}
			],
			"devdoc": {
				"kind": "dev",
				"methods": {},
				"version": 1
			},
			"evm": {
				"assembly": "    /* \"task1/roman.sol\":68:1310  contract Roman {... */\n  mstore(0x40, 0x80)\n    /* \"task1/roman.sol\":90:166  uint256[] private a = [1000, 900, 500, 400, 100, 90, 50, 40, 10, 9, 5, 4, 1] */\n  mload(0x40)\n  dup1\n  0x01a0\n  add\n  0x40\n  mstore\n  dup1\n    /* \"task1/roman.sol\":113:117  1000 */\n  0x03e8\n    /* \"task1/roman.sol\":90:166  uint256[] private a = [1000, 900, 500, 400, 100, 90, 50, 40, 10, 9, 5, 4, 1] */\n  0xffff\n  and\n  dup2\n  mstore\n  0x20\n  add\n    /* \"task1/roman.sol\":119:122  900 */\n  0x0384\n    /* \"task1/roman.sol\":90:166  uint256[] private a = [1000, 900, 500, 400, 100, 90, 50, 40, 10, 9, 5, 4, 1] */\n  0xffff\n  and\n  dup2\n  mstore\n  0x20\n  add\n    /* \"task1/roman.sol\":124:127  500 */\n  0x01f4\n    /* \"task1/roman.sol\":90:166  uint256[] private a = [1000, 900, 500, 400, 100, 90, 50, 40, 10, 9, 5, 4, 1] */\n  0xffff\n  and\n  dup2\n  mstore\n  0x20\n  add\n    /* \"task1/roman.sol\":129:132  400 */\n  0x0190\n    /* \"task1/roman.sol\":90:166  uint256[] private a = [1000, 900, 500, 400, 100, 90, 50, 40, 10, 9, 5, 4, 1] */\n  0xffff\n  and\n  dup2\n  mstore\n  0x20\n  add\n    /* \"task1/roman.sol\":134:137  100 */\n  0x64\n    /* \"task1/roman.sol\":90:166  uint256[] private a = [1000, 900, 500, 400, 100, 90, 50, 40, 10, 9, 5, 4, 1] */\n  0xffff\n  and\n  dup2\n  mstore\n  0x20\n  add\n    /* \"task1/roman.sol\":139:141  90 */\n  0x5a\n    /* \"task1/roman.sol\":90:166  uint256[] private a = [1000, 900, 500, 400, 100, 90, 50, 40, 10, 9, 5, 4, 1] */\n  0xffff\n  and\n  dup2\n  mstore\n  0x20\n  add\n    /* \"task1/roman.sol\":143:145  50 */\n  0x32\n    /* \"task1/roman.sol\":90:166  uint256[] private a = [1000, 900, 500, 400, 100, 90, 50, 40, 10, 9, 5, 4, 1] */\n  0xffff\n  and\n  dup2\n  mstore\n  0x20\n  add\n    /* \"task1/roman.sol\":147:149  40 */\n  0x28\n    /* \"task1/roman.sol\":90:166  uint256[] private a = [1000, 900, 500, 400, 100, 90, 50, 40, 10, 9, 5, 4, 1] */\n  0xffff\n  and\n  dup2\n  mstore\n  0x20\n  add\n    /* \"task1/roman.sol\":151:153  10 */\n  0x0a\n    /* \"task1/roman.sol\":90:166  uint256[] private a = [1000, 900, 500, 400, 100, 90, 50, 40, 10, 9, 5, 4, 1] */\n  0xffff\n  and\n  dup2\n  mstore\n  0x20\n  add\n    /* \"task1/roman.sol\":155:156  9 */\n  0x09\n    /* \"task1/roman.sol\":90:166  uint256[] private a = [1000, 900, 500, 400, 100, 90, 50, 40, 10, 9, 5, 4, 1] */\n  0xffff\n  and\n  dup2\n  mstore\n  0x20\n  add\n    /* \"task1/roman.sol\":158:159  5 */\n  0x05\n    /* \"task1/roman.sol\":90:166  uint256[] private a = [1000, 900, 500, 400, 100, 90, 50, 40, 10, 9, 5, 4, 1] */\n  0xffff\n  and\n  dup2\n  mstore\n  0x20\n  add\n    /* \"task1/roman.sol\":161:162  4 */\n  0x04\n    /* \"task1/roman.sol\":90:166  uint256[] private a = [1000, 900, 500, 400, 100, 90, 50, 40, 10, 9, 5, 4, 1] */\n  0xffff\n  and\n  dup2\n  mstore\n  0x20\n  add\n    /* \"task1/roman.sol\":164:165  1 */\n  0x01\n    /* \"task1/roman.sol\":90:166  uint256[] private a = [1000, 900, 500, 400, 100, 90, 50, 40, 10, 9, 5, 4, 1] */\n  0xffff\n  and\n  dup2\n  mstore\n  pop\n  0x00\n  swap1\n  0x0d\n  tag_1\n  swap3\n  swap2\n  swap1\n  tag_2\n  jump\t// in\ntag_1:\n  pop\n    /* \"task1/roman.sol\":173:265  string[] private b = [\"M\", \"CM\", \"D\", \"CD\", \"C\", \"XC\", \"L\", \"XL\", \"X\", \"IX\", \"V\", \"IV\", \"I\"] */\n  mload(0x40)\n  dup1\n  0x01a0\n  add\n  0x40\n  mstore\n  dup1\n  mload(0x40)\n  dup1\n  0x40\n  add\n  0x40\n  mstore\n  dup1\n  0x01\n  dup2\n  mstore\n  0x20\n  add\n  0x4d00000000000000000000000000000000000000000000000000000000000000\n  dup2\n  mstore\n  pop\n  dup2\n  mstore\n  0x20\n  add\n  mload(0x40)\n  dup1\n  0x40\n  add\n  0x40\n  mstore\n  dup1\n  0x02\n  dup2\n  mstore\n  0x20\n  add\n  0x434d000000000000000000000000000000000000000000000000000000000000\n  dup2\n  mstore\n  pop\n  dup2\n  mstore\n  0x20\n  add\n  mload(0x40)\n  dup1\n  0x40\n  add\n  0x40\n  mstore\n  dup1\n  0x01\n  dup2\n  mstore\n  0x20\n  add\n  0x4400000000000000000000000000000000000000000000000000000000000000\n  dup2\n  mstore\n  pop\n  dup2\n  mstore\n  0x20\n  add\n  mload(0x40)\n  dup1\n  0x40\n  add\n  0x40\n  mstore\n  dup1\n  0x02\n  dup2\n  mstore\n  0x20\n  add\n  0x4344000000000000000000000000000000000000000000000000000000000000\n  dup2\n  mstore\n  pop\n  dup2\n  mstore\n  0x20\n  add\n  mload(0x40)\n  dup1\n  0x40\n  add\n  0x40\n  mstore\n  dup1\n  0x01\n  dup2\n  mstore\n  0x20\n  add\n  0x4300000000000000000000000000000000000000000000000000000000000000\n  dup2\n  mstore\n  pop\n  dup2\n  mstore\n  0x20\n  add\n  mload(0x40)\n  dup1\n  0x40\n  add\n  0x40\n  mstore\n  dup1\n  0x02\n  dup2\n  mstore\n  0x20\n  add\n  0x5843000000000000000000000000000000000000000000000000000000000000\n  dup2\n  mstore\n  pop\n  dup2\n  mstore\n  0x20\n  add\n  mload(0x40)\n  dup1\n  0x40\n  add\n  0x40\n  mstore\n  dup1\n  0x01\n  dup2\n  mstore\n  0x20\n  add\n  0x4c00000000000000000000000000000000000000000000000000000000000000\n  dup2\n  mstore\n  pop\n  dup2\n  mstore\n  0x20\n  add\n  mload(0x40)\n  dup1\n  0x40\n  add\n  0x40\n  mstore\n  dup1\n  0x02\n  dup2\n  mstore\n  0x20\n  add\n  0x584c000000000000000000000000000000000000000000000000000000000000\n  dup2\n  mstore\n  pop\n  dup2\n  mstore\n  0x20\n  add\n  mload(0x40)\n  dup1\n  0x40\n  add\n  0x40\n  mstore\n  dup1\n  0x01\n  dup2\n  mstore\n  0x20\n  add\n  0x5800000000000000000000000000000000000000000000000000000000000000\n  dup2\n  mstore\n  pop\n  dup2\n  mstore\n  0x20\n  add\n  mload(0x40)\n  dup1\n  0x40\n  add\n  0x40\n  mstore\n  dup1\n  0x02\n  dup2\n  mstore\n  0x20\n  add\n  0x4958000000000000000000000000000000000000000000000000000000000000\n  dup2\n  mstore\n  pop\n  dup2\n  mstore\n  0x20\n  add\n  mload(0x40)\n  dup1\n  0x40\n  add\n  0x40\n  mstore\n  dup1\n  0x01\n  dup2\n  mstore\n  0x20\n  add\n  0x5600000000000000000000000000000000000000000000000000000000000000\n  dup2\n  mstore\n  pop\n  dup2\n  mstore\n  0x20\n  add\n  mload(0x40)\n  dup1\n  0x40\n  add\n  0x40\n  mstore\n  dup1\n  0x02\n  dup2\n  mstore\n  0x20\n  add\n  0x4956000000000000000000000000000000000000000000000000000000000000\n  dup2\n  mstore\n  pop\n  dup2\n  mstore\n  0x20\n  add\n  mload(0x40)\n  dup1\n  0x40\n  add\n  0x40\n  mstore\n  dup1\n  0x01\n  dup2\n  mstore\n  0x20\n  add\n  0x4900000000000000000000000000000000000000000000000000000000000000\n  dup2\n  mstore\n  pop\n  dup2\n  mstore\n  pop\n  0x01\n  swap1\n  0x0d\n  tag_3\n  swap3\n  swap2\n  swap1\n  tag_4\n  jump\t// in\ntag_3:\n  pop\n    /* \"task1/roman.sol\":669:793  constructor() {... */\n  callvalue\n  dup1\n  iszero\n  tag_5\n  jumpi\n  revert(0x00, 0x00)\ntag_5:\n  pop\n    /* \"task1/roman.sol\":699:708  uint256 i */\n  0x00\n    /* \"task1/roman.sol\":711:712  0 */\n  0x00\n    /* \"task1/roman.sol\":699:712  uint256 i = 0 */\n  swap1\n  pop\n    /* \"task1/roman.sol\":694:786  for (uint256 i = 0; i < a.length; i++) {... */\ntag_8:\n    /* \"task1/roman.sol\":718:719  a */\n  0x00\n    /* \"task1/roman.sol\":718:726  a.length */\n  dup1\n  sload\n  swap1\n  pop\n    /* \"task1/roman.sol\":714:715  i */\n  dup2\n    /* \"task1/roman.sol\":714:726  i < a.length */\n  lt\n    /* \"task1/roman.sol\":694:786  for (uint256 i = 0; i < a.length; i++) {... */\n  iszero\n  tag_9\n  jumpi\n    /* \"task1/roman.sol\":770:771  a */\n  0x00\n    /* \"task1/roman.sol\":772:773  i */\n  dup2\n    /* \"task1/roman.sol\":770:774  a[i] */\n  dup2\n  sload\n  dup2\n  lt\n  tag_11\n  jumpi\n  tag_12\n  tag_13\n  jump\t// in\ntag_12:\ntag_11:\n  swap1\n  0x00\n  mstore\n  keccak256(0x00, 0x20)\n  add\n  sload\n    /* \"task1/roman.sol\":748:761  romanToIntMap */\n  0x02\n    /* \"task1/roman.sol\":762:763  b */\n  0x01\n    /* \"task1/roman.sol\":764:765  i */\n  dup4\n    /* \"task1/roman.sol\":762:766  b[i] */\n  dup2\n  sload\n  dup2\n  lt\n  tag_15\n  jumpi\n  tag_16\n  tag_13\n  jump\t// in\ntag_16:\ntag_15:\n  swap1\n  0x00\n  mstore\n  keccak256(0x00, 0x20)\n  add\n    /* \"task1/roman.sol\":748:767  romanToIntMap[b[i]] */\n  mload(0x40)\n  tag_18\n  swap2\n  swap1\n  tag_19\n  jump\t// in\ntag_18:\n  swap1\n  dup2\n  mstore\n  0x20\n  add\n  mload(0x40)\n  dup1\n  swap2\n  sub\n  swap1\n  keccak256\n    /* \"task1/roman.sol\":748:774  romanToIntMap[b[i]] = a[i] */\n  dup2\n  swap1\n  sstore\n  pop\n    /* \"task1/roman.sol\":728:731  i++ */\n  dup1\n  dup1\n  0x01\n  add\n  swap2\n  pop\n  pop\n    /* \"task1/roman.sol\":694:786  for (uint256 i = 0; i < a.length; i++) {... */\n  jump(tag_8)\ntag_9:\n  pop\n    /* \"task1/roman.sol\":68:1310  contract Roman {... */\n  jump(tag_20)\ntag_2:\n  dup3\n  dup1\n  sload\n  dup3\n  dup3\n  sstore\n  swap1\n  0x00\n  mstore\n  keccak256(0x00, 0x20)\n  swap1\n  dup2\n  add\n  swap3\n  dup3\n  iszero\n  tag_21\n  jumpi\n  swap2\n  0x20\n  mul\n  dup3\n  add\ntag_22:\n  dup3\n  dup2\n  gt\n  iszero\n  tag_23\n  jumpi\n  dup3\n  mload\n  dup3\n  swap1\n  0xffff\n  and\n  swap1\n  sstore\n  swap2\n  0x20\n  add\n  swap2\n  swap1\n  0x01\n  add\n  swap1\n  jump(tag_22)\ntag_23:\ntag_21:\n  pop\n  swap1\n  pop\n  tag_24\n  swap2\n  swap1\n  tag_25\n  jump\t// in\ntag_24:\n  pop\n  swap1\n  jump\t// out\ntag_4:\n  dup3\n  dup1\n  sload\n  dup3\n  dup3\n  sstore\n  swap1\n  0x00\n  mstore\n  keccak256(0x00, 0x20)\n  swap1\n  dup2\n  add\n  swap3\n  dup3\n  iszero\n  tag_26\n  jumpi\n  swap2\n  0x20\n  mul\n  dup3\n  add\ntag_27:\n  dup3\n  dup2\n  gt\n  iszero\n  tag_28\n  jumpi\n  dup3\n  mload\n  dup3\n  swap1\n  dup2\n  tag_29\n  swap2\n  swap1\n  tag_30\n  jump\t// in\ntag_29:\n  pop\n  swap2\n  0x20\n  add\n  swap2\n  swap1\n  0x01\n  add\n  swap1\n  jump(tag_27)\ntag_28:\ntag_26:\n  pop\n  swap1\n  pop\n  tag_31\n  swap2\n  swap1\n  tag_32\n  jump\t// in\ntag_31:\n  pop\n  swap1\n  jump\t// out\ntag_25:\ntag_33:\n  dup1\n  dup3\n  gt\n  iszero\n  tag_34\n  jumpi\n  0x00\n  dup2\n  0x00\n  swap1\n  sstore\n  pop\n  0x01\n  add\n  jump(tag_33)\ntag_34:\n  pop\n  swap1\n  jump\t// out\ntag_32:\ntag_35:\n  dup1\n  dup3\n  gt\n  iszero\n  tag_36\n  jumpi\n  0x00\n  dup2\n  dup2\n  tag_37\n  swap2\n  swap1\n  tag_38\n  jump\t// in\ntag_37:\n  pop\n  0x01\n  add\n  jump(tag_35)\ntag_36:\n  pop\n  swap1\n  jump\t// out\ntag_38:\n  pop\n  dup1\n  sload\n  tag_39\n  swap1\n  tag_40\n  jump\t// in\ntag_39:\n  0x00\n  dup3\n  sstore\n  dup1\n  0x1f\n  lt\n  tag_42\n  jumpi\n  pop\n  jump(tag_41)\ntag_42:\n  0x1f\n  add\n  0x20\n  swap1\n  div\n  swap1\n  0x00\n  mstore\n  keccak256(0x00, 0x20)\n  swap1\n  dup2\n  add\n  swap1\n  tag_43\n  swap2\n  swap1\n  tag_25\n  jump\t// in\ntag_43:\ntag_41:\n  pop\n  jump\t// out\n    /* \"#utility.yul\":7:187   */\ntag_13:\n    /* \"#utility.yul\":55:132   */\n  0x4e487b7100000000000000000000000000000000000000000000000000000000\n    /* \"#utility.yul\":52:53   */\n  0x00\n    /* \"#utility.yul\":45:133   */\n  mstore\n    /* \"#utility.yul\":152:156   */\n  0x32\n    /* \"#utility.yul\":149:150   */\n  0x04\n    /* \"#utility.yul\":142:157   */\n  mstore\n    /* \"#utility.yul\":176:180   */\n  0x24\n    /* \"#utility.yul\":173:174   */\n  0x00\n    /* \"#utility.yul\":166:181   */\n  revert\n    /* \"#utility.yul\":193:373   */\ntag_44:\n    /* \"#utility.yul\":241:318   */\n  0x4e487b7100000000000000000000000000000000000000000000000000000000\n    /* \"#utility.yul\":238:239   */\n  0x00\n    /* \"#utility.yul\":231:319   */\n  mstore\n    /* \"#utility.yul\":338:342   */\n  0x22\n    /* \"#utility.yul\":335:336   */\n  0x04\n    /* \"#utility.yul\":328:343   */\n  mstore\n    /* \"#utility.yul\":362:366   */\n  0x24\n    /* \"#utility.yul\":359:360   */\n  0x00\n    /* \"#utility.yul\":352:367   */\n  revert\n    /* \"#utility.yul\":379:699   */\ntag_40:\n    /* \"#utility.yul\":423:429   */\n  0x00\n    /* \"#utility.yul\":460:461   */\n  0x02\n    /* \"#utility.yul\":454:458   */\n  dup3\n    /* \"#utility.yul\":450:462   */\n  div\n    /* \"#utility.yul\":440:462   */\n  swap1\n  pop\n    /* \"#utility.yul\":507:508   */\n  0x01\n    /* \"#utility.yul\":501:505   */\n  dup3\n    /* \"#utility.yul\":497:509   */\n  and\n    /* \"#utility.yul\":528:546   */\n  dup1\n    /* \"#utility.yul\":518:599   */\n  tag_69\n  jumpi\n    /* \"#utility.yul\":584:588   */\n  0x7f\n    /* \"#utility.yul\":576:582   */\n  dup3\n    /* \"#utility.yul\":572:589   */\n  and\n    /* \"#utility.yul\":562:589   */\n  swap2\n  pop\n    /* \"#utility.yul\":518:599   */\ntag_69:\n    /* \"#utility.yul\":646:648   */\n  0x20\n    /* \"#utility.yul\":638:644   */\n  dup3\n    /* \"#utility.yul\":635:649   */\n  lt\n    /* \"#utility.yul\":615:633   */\n  dup2\n    /* \"#utility.yul\":612:650   */\n  sub\n    /* \"#utility.yul\":609:693   */\n  tag_70\n  jumpi\n    /* \"#utility.yul\":665:683   */\n  tag_71\n  tag_44\n  jump\t// in\ntag_71:\n    /* \"#utility.yul\":609:693   */\ntag_70:\n    /* \"#utility.yul\":430:699   */\n  pop\n    /* \"#utility.yul\":379:699   */\n  swap2\n  swap1\n  pop\n  jump\t// out\n    /* \"#utility.yul\":705:853   */\ntag_45:\n    /* \"#utility.yul\":807:818   */\n  0x00\n    /* \"#utility.yul\":844:847   */\n  dup2\n    /* \"#utility.yul\":829:847   */\n  swap1\n  pop\n    /* \"#utility.yul\":705:853   */\n  swap3\n  swap2\n  pop\n  pop\n  jump\t// out\n    /* \"#utility.yul\":859:1000   */\ntag_46:\n    /* \"#utility.yul\":908:912   */\n  0x00\n    /* \"#utility.yul\":931:934   */\n  dup2\n    /* \"#utility.yul\":923:934   */\n  swap1\n  pop\n    /* \"#utility.yul\":954:957   */\n  dup2\n    /* \"#utility.yul\":951:952   */\n  0x00\n    /* \"#utility.yul\":944:958   */\n  mstore\n    /* \"#utility.yul\":988:992   */\n  0x20\n    /* \"#utility.yul\":985:986   */\n  0x00\n    /* \"#utility.yul\":975:993   */\n  keccak256\n    /* \"#utility.yul\":967:993   */\n  swap1\n  pop\n    /* \"#utility.yul\":859:1000   */\n  swap2\n  swap1\n  pop\n  jump\t// out\n    /* \"#utility.yul\":1030:1904   */\ntag_47:\n    /* \"#utility.yul\":1133:1136   */\n  0x00\n    /* \"#utility.yul\":1170:1175   */\n  dup2\n    /* \"#utility.yul\":1164:1176   */\n  sload\n    /* \"#utility.yul\":1199:1235   */\n  tag_75\n    /* \"#utility.yul\":1225:1234   */\n  dup2\n    /* \"#utility.yul\":1199:1235   */\n  tag_40\n  jump\t// in\ntag_75:\n    /* \"#utility.yul\":1251:1340   */\n  tag_76\n    /* \"#utility.yul\":1333:1339   */\n  dup2\n    /* \"#utility.yul\":1328:1331   */\n  dup7\n    /* \"#utility.yul\":1251:1340   */\n  tag_45\n  jump\t// in\ntag_76:\n    /* \"#utility.yul\":1244:1340   */\n  swap5\n  pop\n    /* \"#utility.yul\":1371:1372   */\n  0x01\n    /* \"#utility.yul\":1360:1369   */\n  dup3\n    /* \"#utility.yul\":1356:1373   */\n  and\n    /* \"#utility.yul\":1387:1388   */\n  0x00\n    /* \"#utility.yul\":1382:1548   */\n  dup2\n  eq\n  tag_78\n  jumpi\n    /* \"#utility.yul\":1562:1563   */\n  0x01\n    /* \"#utility.yul\":1557:1898   */\n  dup2\n  eq\n  tag_79\n  jumpi\n    /* \"#utility.yul\":1349:1898   */\n  jump(tag_77)\n    /* \"#utility.yul\":1382:1548   */\ntag_78:\n    /* \"#utility.yul\":1466:1470   */\n  0xff\n    /* \"#utility.yul\":1462:1471   */\n  not\n    /* \"#utility.yul\":1451:1460   */\n  dup4\n    /* \"#utility.yul\":1447:1472   */\n  and\n    /* \"#utility.yul\":1442:1445   */\n  dup7\n    /* \"#utility.yul\":1435:1473   */\n  mstore\n    /* \"#utility.yul\":1528:1534   */\n  dup2\n    /* \"#utility.yul\":1521:1535   */\n  iszero\n    /* \"#utility.yul\":1514:1536   */\n  iszero\n    /* \"#utility.yul\":1506:1512   */\n  dup3\n    /* \"#utility.yul\":1502:1537   */\n  mul\n    /* \"#utility.yul\":1497:1500   */\n  dup7\n    /* \"#utility.yul\":1493:1538   */\n  add\n    /* \"#utility.yul\":1486:1538   */\n  swap4\n  pop\n    /* \"#utility.yul\":1382:1548   */\n  jump(tag_77)\n    /* \"#utility.yul\":1557:1898   */\ntag_79:\n    /* \"#utility.yul\":1624:1662   */\n  tag_80\n    /* \"#utility.yul\":1656:1661   */\n  dup6\n    /* \"#utility.yul\":1624:1662   */\n  tag_46\n  jump\t// in\ntag_80:\n    /* \"#utility.yul\":1684:1685   */\n  0x00\n    /* \"#utility.yul\":1698:1852   */\ntag_81:\n    /* \"#utility.yul\":1712:1718   */\n  dup4\n    /* \"#utility.yul\":1709:1710   */\n  dup2\n    /* \"#utility.yul\":1706:1719   */\n  lt\n    /* \"#utility.yul\":1698:1852   */\n  iszero\n  tag_83\n  jumpi\n    /* \"#utility.yul\":1786:1793   */\n  dup2\n    /* \"#utility.yul\":1780:1794   */\n  sload\n    /* \"#utility.yul\":1776:1777   */\n  dup2\n    /* \"#utility.yul\":1771:1774   */\n  dup10\n    /* \"#utility.yul\":1767:1778   */\n  add\n    /* \"#utility.yul\":1760:1795   */\n  mstore\n    /* \"#utility.yul\":1836:1837   */\n  0x01\n    /* \"#utility.yul\":1827:1834   */\n  dup3\n    /* \"#utility.yul\":1823:1838   */\n  add\n    /* \"#utility.yul\":1812:1838   */\n  swap2\n  pop\n    /* \"#utility.yul\":1734:1738   */\n  0x20\n    /* \"#utility.yul\":1731:1732   */\n  dup2\n    /* \"#utility.yul\":1727:1739   */\n  add\n    /* \"#utility.yul\":1722:1739   */\n  swap1\n  pop\n    /* \"#utility.yul\":1698:1852   */\n  jump(tag_81)\ntag_83:\n    /* \"#utility.yul\":1881:1887   */\n  dup4\n    /* \"#utility.yul\":1876:1879   */\n  dup9\n    /* \"#utility.yul\":1872:1888   */\n  add\n    /* \"#utility.yul\":1865:1888   */\n  swap6\n  pop\n    /* \"#utility.yul\":1564:1898   */\n  pop\n  pop\n    /* \"#utility.yul\":1349:1898   */\ntag_77:\n  pop\n    /* \"#utility.yul\":1137:1904   */\n  pop\n  pop\n    /* \"#utility.yul\":1030:1904   */\n  swap3\n  swap2\n  pop\n  pop\n  jump\t// out\n    /* \"#utility.yul\":1910:2179   */\ntag_19:\n    /* \"#utility.yul\":2039:2042   */\n  0x00\n    /* \"#utility.yul\":2061:2153   */\n  tag_85\n    /* \"#utility.yul\":2149:2152   */\n  dup3\n    /* \"#utility.yul\":2140:2146   */\n  dup5\n    /* \"#utility.yul\":2061:2153   */\n  tag_47\n  jump\t// in\ntag_85:\n    /* \"#utility.yul\":2054:2153   */\n  swap2\n  pop\n    /* \"#utility.yul\":2170:2173   */\n  dup2\n    /* \"#utility.yul\":2163:2173   */\n  swap1\n  pop\n    /* \"#utility.yul\":1910:2179   */\n  swap3\n  swap2\n  pop\n  pop\n  jump\t// out\n    /* \"#utility.yul\":2185:2284   */\ntag_48:\n    /* \"#utility.yul\":2237:2243   */\n  0x00\n    /* \"#utility.yul\":2271:2276   */\n  dup2\n    /* \"#utility.yul\":2265:2277   */\n  mload\n    /* \"#utility.yul\":2255:2277   */\n  swap1\n  pop\n    /* \"#utility.yul\":2185:2284   */\n  swap2\n  swap1\n  pop\n  jump\t// out\n    /* \"#utility.yul\":2290:2470   */\ntag_49:\n    /* \"#utility.yul\":2338:2415   */\n  0x4e487b7100000000000000000000000000000000000000000000000000000000\n    /* \"#utility.yul\":2335:2336   */\n  0x00\n    /* \"#utility.yul\":2328:2416   */\n  mstore\n    /* \"#utility.yul\":2435:2439   */\n  0x41\n    /* \"#utility.yul\":2432:2433   */\n  0x04\n    /* \"#utility.yul\":2425:2440   */\n  mstore\n    /* \"#utility.yul\":2459:2463   */\n  0x24\n    /* \"#utility.yul\":2456:2457   */\n  0x00\n    /* \"#utility.yul\":2449:2464   */\n  revert\n    /* \"#utility.yul\":2476:2569   */\ntag_50:\n    /* \"#utility.yul\":2513:2519   */\n  0x00\n    /* \"#utility.yul\":2560:2562   */\n  0x20\n    /* \"#utility.yul\":2555:2557   */\n  0x1f\n    /* \"#utility.yul\":2548:2553   */\n  dup4\n    /* \"#utility.yul\":2544:2558   */\n  add\n    /* \"#utility.yul\":2540:2563   */\n  div\n    /* \"#utility.yul\":2530:2563   */\n  swap1\n  pop\n    /* \"#utility.yul\":2476:2569   */\n  swap2\n  swap1\n  pop\n  jump\t// out\n    /* \"#utility.yul\":2575:2682   */\ntag_51:\n    /* \"#utility.yul\":2619:2627   */\n  0x00\n    /* \"#utility.yul\":2669:2674   */\n  dup3\n    /* \"#utility.yul\":2663:2667   */\n  dup3\n    /* \"#utility.yul\":2659:2675   */\n  shl\n    /* \"#utility.yul\":2638:2675   */\n  swap1\n  pop\n    /* \"#utility.yul\":2575:2682   */\n  swap3\n  swap2\n  pop\n  pop\n  jump\t// out\n    /* \"#utility.yul\":2688:3081   */\ntag_52:\n    /* \"#utility.yul\":2757:2763   */\n  0x00\n    /* \"#utility.yul\":2807:2808   */\n  0x08\n    /* \"#utility.yul\":2795:2805   */\n  dup4\n    /* \"#utility.yul\":2791:2809   */\n  mul\n    /* \"#utility.yul\":2830:2927   */\n  tag_91\n    /* \"#utility.yul\":2860:2926   */\n  0xffffffffffffffffffffffffffffffffffffffffffffffffffffffffffffffff\n    /* \"#utility.yul\":2849:2858   */\n  dup3\n    /* \"#utility.yul\":2830:2927   */\n  tag_51\n  jump\t// in\ntag_91:\n    /* \"#utility.yul\":2948:2987   */\n  tag_92\n    /* \"#utility.yul\":2978:2986   */\n  dup7\n    /* \"#utility.yul\":2967:2976   */\n  dup4\n    /* \"#utility.yul\":2948:2987   */\n  tag_51\n  jump\t// in\ntag_92:\n    /* \"#utility.yul\":2936:2987   */\n  swap6\n  pop\n    /* \"#utility.yul\":3020:3024   */\n  dup1\n    /* \"#utility.yul\":3016:3025   */\n  not\n    /* \"#utility.yul\":3009:3014   */\n  dup5\n    /* \"#utility.yul\":3005:3026   */\n  and\n    /* \"#utility.yul\":2996:3026   */\n  swap4\n  pop\n    /* \"#utility.yul\":3069:3073   */\n  dup1\n    /* \"#utility.yul\":3059:3067   */\n  dup7\n    /* \"#utility.yul\":3055:3074   */\n  and\n    /* \"#utility.yul\":3048:3053   */\n  dup5\n    /* \"#utility.yul\":3045:3075   */\n  or\n    /* \"#utility.yul\":3035:3075   */\n  swap3\n  pop\n    /* \"#utility.yul\":2764:3081   */\n  pop\n  pop\n    /* \"#utility.yul\":2688:3081   */\n  swap4\n  swap3\n  pop\n  pop\n  pop\n  jump\t// out\n    /* \"#utility.yul\":3087:3164   */\ntag_53:\n    /* \"#utility.yul\":3124:3131   */\n  0x00\n    /* \"#utility.yul\":3153:3158   */\n  dup2\n    /* \"#utility.yul\":3142:3158   */\n  swap1\n  pop\n    /* \"#utility.yul\":3087:3164   */\n  swap2\n  swap1\n  pop\n  jump\t// out\n    /* \"#utility.yul\":3170:3230   */\ntag_54:\n    /* \"#utility.yul\":3198:3201   */\n  0x00\n    /* \"#utility.yul\":3219:3224   */\n  dup2\n    /* \"#utility.yul\":3212:3224   */\n  swap1\n  pop\n    /* \"#utility.yul\":3170:3230   */\n  swap2\n  swap1\n  pop\n  jump\t// out\n    /* \"#utility.yul\":3236:3378   */\ntag_55:\n    /* \"#utility.yul\":3286:3295   */\n  0x00\n    /* \"#utility.yul\":3319:3372   */\n  tag_96\n    /* \"#utility.yul\":3337:3371   */\n  tag_97\n    /* \"#utility.yul\":3346:3370   */\n  tag_98\n    /* \"#utility.yul\":3364:3369   */\n  dup5\n    /* \"#utility.yul\":3346:3370   */\n  tag_53\n  jump\t// in\ntag_98:\n    /* \"#utility.yul\":3337:3371   */\n  tag_54\n  jump\t// in\ntag_97:\n    /* \"#utility.yul\":3319:3372   */\n  tag_53\n  jump\t// in\ntag_96:\n    /* \"#utility.yul\":3306:3372   */\n  swap1\n  pop\n    /* \"#utility.yul\":3236:3378   */\n  swap2\n  swap1\n  pop\n  jump\t// out\n    /* \"#utility.yul\":3384:3459   */\ntag_56:\n    /* \"#utility.yul\":3427:3430   */\n  0x00\n    /* \"#utility.yul\":3448:3453   */\n  dup2\n    /* \"#utility.yul\":3441:3453   */\n  swap1\n  pop\n    /* \"#utility.yul\":3384:3459   */\n  swap2\n  swap1\n  pop\n  jump\t// out\n    /* \"#utility.yul\":3465:3734   */\ntag_57:\n    /* \"#utility.yul\":3575:3614   */\n  tag_101\n    /* \"#utility.yul\":3606:3613   */\n  dup4\n    /* \"#utility.yul\":3575:3614   */\n  tag_55\n  jump\t// in\ntag_101:\n    /* \"#utility.yul\":3636:3727   */\n  tag_102\n    /* \"#utility.yul\":3685:3726   */\n  tag_103\n    /* \"#utility.yul\":3709:3725   */\n  dup3\n    /* \"#utility.yul\":3685:3726   */\n  tag_56\n  jump\t// in\ntag_103:\n    /* \"#utility.yul\":3677:3683   */\n  dup5\n    /* \"#utility.yul\":3670:3674   */\n  dup5\n    /* \"#utility.yul\":3664:3675   */\n  sload\n    /* \"#utility.yul\":3636:3727   */\n  tag_52\n  jump\t// in\ntag_102:\n    /* \"#utility.yul\":3630:3634   */\n  dup3\n    /* \"#utility.yul\":3623:3728   */\n  sstore\n    /* \"#utility.yul\":3541:3734   */\n  pop\n    /* \"#utility.yul\":3465:3734   */\n  pop\n  pop\n  pop\n  jump\t// out\n    /* \"#utility.yul\":3740:3813   */\ntag_58:\n    /* \"#utility.yul\":3785:3788   */\n  0x00\n    /* \"#utility.yul\":3806:3807   */\n  0x00\n    /* \"#utility.yul\":3799:3807   */\n  swap1\n  pop\n    /* \"#utility.yul\":3740:3813   */\n  swap1\n  jump\t// out\n    /* \"#utility.yul\":3819:4008   */\ntag_59:\n    /* \"#utility.yul\":3896:3928   */\n  tag_106\n  tag_58\n  jump\t// in\ntag_106:\n    /* \"#utility.yul\":3937:4002   */\n  tag_107\n    /* \"#utility.yul\":3995:4001   */\n  dup2\n    /* \"#utility.yul\":3987:3993   */\n  dup5\n    /* \"#utility.yul\":3981:3985   */\n  dup5\n    /* \"#utility.yul\":3937:4002   */\n  tag_57\n  jump\t// in\ntag_107:\n    /* \"#utility.yul\":3872:4008   */\n  pop\n    /* \"#utility.yul\":3819:4008   */\n  pop\n  pop\n  jump\t// out\n    /* \"#utility.yul\":4014:4200   */\ntag_60:\n    /* \"#utility.yul\":4074:4194   */\ntag_109:\n    /* \"#utility.yul\":4091:4094   */\n  dup2\n    /* \"#utility.yul\":4084:4089   */\n  dup2\n    /* \"#utility.yul\":4081:4095   */\n  lt\n    /* \"#utility.yul\":4074:4194   */\n  iszero\n  tag_111\n  jumpi\n    /* \"#utility.yul\":4145:4184   */\n  tag_112\n    /* \"#utility.yul\":4182:4183   */\n  0x00\n    /* \"#utility.yul\":4175:4180   */\n  dup3\n    /* \"#utility.yul\":4145:4184   */\n  tag_59\n  jump\t// in\ntag_112:\n    /* \"#utility.yul\":4118:4119   */\n  0x01\n    /* \"#utility.yul\":4111:4116   */\n  dup2\n    /* \"#utility.yul\":4107:4120   */\n  add\n    /* \"#utility.yul\":4098:4120   */\n  swap1\n  pop\n    /* \"#utility.yul\":4074:4194   */\n  jump(tag_109)\ntag_111:\n    /* \"#utility.yul\":4014:4200   */\n  pop\n  pop\n  jump\t// out\n    /* \"#utility.yul\":4206:4749   */\ntag_61:\n    /* \"#utility.yul\":4307:4309   */\n  0x1f\n    /* \"#utility.yul\":4302:4305   */\n  dup3\n    /* \"#utility.yul\":4299:4310   */\n  gt\n    /* \"#utility.yul\":4296:4742   */\n  iszero\n  tag_114\n  jumpi\n    /* \"#utility.yul\":4341:4379   */\n  tag_115\n    /* \"#utility.yul\":4373:4378   */\n  dup2\n    /* \"#utility.yul\":4341:4379   */\n  tag_46\n  jump\t// in\ntag_115:\n    /* \"#utility.yul\":4425:4454   */\n  tag_116\n    /* \"#utility.yul\":4443:4453   */\n  dup5\n    /* \"#utility.yul\":4425:4454   */\n  tag_50\n  jump\t// in\ntag_116:\n    /* \"#utility.yul\":4415:4423   */\n  dup2\n    /* \"#utility.yul\":4411:4455   */\n  add\n    /* \"#utility.yul\":4608:4610   */\n  0x20\n    /* \"#utility.yul\":4596:4606   */\n  dup6\n    /* \"#utility.yul\":4593:4611   */\n  lt\n    /* \"#utility.yul\":4590:4639   */\n  iszero\n  tag_117\n  jumpi\n    /* \"#utility.yul\":4629:4637   */\n  dup2\n    /* \"#utility.yul\":4614:4637   */\n  swap1\n  pop\n    /* \"#utility.yul\":4590:4639   */\ntag_117:\n    /* \"#utility.yul\":4652:4732   */\n  tag_118\n    /* \"#utility.yul\":4708:4730   */\n  tag_119\n    /* \"#utility.yul\":4726:4729   */\n  dup6\n    /* \"#utility.yul\":4708:4730   */\n  tag_50\n  jump\t// in\ntag_119:\n    /* \"#utility.yul\":4698:4706   */\n  dup4\n    /* \"#utility.yul\":4694:4731   */\n  add\n    /* \"#utility.yul\":4681:4692   */\n  dup3\n    /* \"#utility.yul\":4652:4732   */\n  tag_60\n  jump\t// in\ntag_118:\n    /* \"#utility.yul\":4311:4742   */\n  pop\n  pop\n    /* \"#utility.yul\":4296:4742   */\ntag_114:\n    /* \"#utility.yul\":4206:4749   */\n  pop\n  pop\n  pop\n  jump\t// out\n    /* \"#utility.yul\":4755:4872   */\ntag_62:\n    /* \"#utility.yul\":4809:4817   */\n  0x00\n    /* \"#utility.yul\":4859:4864   */\n  dup3\n    /* \"#utility.yul\":4853:4857   */\n  dup3\n    /* \"#utility.yul\":4849:4865   */\n  shr\n    /* \"#utility.yul\":4828:4865   */\n  swap1\n  pop\n    /* \"#utility.yul\":4755:4872   */\n  swap3\n  swap2\n  pop\n  pop\n  jump\t// out\n    /* \"#utility.yul\":4878:5047   */\ntag_63:\n    /* \"#utility.yul\":4922:4928   */\n  0x00\n    /* \"#utility.yul\":4955:5006   */\n  tag_122\n    /* \"#utility.yul\":5003:5004   */\n  0x00\n    /* \"#utility.yul\":4999:5005   */\n  not\n    /* \"#utility.yul\":4991:4996   */\n  dup5\n    /* \"#utility.yul\":4988:4989   */\n  0x08\n    /* \"#utility.yul\":4984:4997   */\n  mul\n    /* \"#utility.yul\":4955:5006   */\n  tag_62\n  jump\t// in\ntag_122:\n    /* \"#utility.yul\":4951:5007   */\n  not\n    /* \"#utility.yul\":5036:5040   */\n  dup1\n    /* \"#utility.yul\":5030:5034   */\n  dup4\n    /* \"#utility.yul\":5026:5041   */\n  and\n    /* \"#utility.yul\":5016:5041   */\n  swap2\n  pop\n    /* \"#utility.yul\":4929:5047   */\n  pop\n    /* \"#utility.yul\":4878:5047   */\n  swap3\n  swap2\n  pop\n  pop\n  jump\t// out\n    /* \"#utility.yul\":5052:5347   */\ntag_64:\n    /* \"#utility.yul\":5128:5132   */\n  0x00\n    /* \"#utility.yul\":5274:5303   */\n  tag_124\n    /* \"#utility.yul\":5299:5302   */\n  dup4\n    /* \"#utility.yul\":5293:5297   */\n  dup4\n    /* \"#utility.yul\":5274:5303   */\n  tag_63\n  jump\t// in\ntag_124:\n    /* \"#utility.yul\":5266:5303   */\n  swap2\n  pop\n    /* \"#utility.yul\":5336:5339   */\n  dup3\n    /* \"#utility.yul\":5333:5334   */\n  0x02\n    /* \"#utility.yul\":5329:5340   */\n  mul\n    /* \"#utility.yul\":5323:5327   */\n  dup3\n    /* \"#utility.yul\":5320:5341   */\n  or\n    /* \"#utility.yul\":5312:5341   */\n  swap1\n  pop\n    /* \"#utility.yul\":5052:5347   */\n  swap3\n  swap2\n  pop\n  pop\n  jump\t// out\n    /* \"#utility.yul\":5352:6747   */\ntag_30:\n    /* \"#utility.yul\":5469:5506   */\n  tag_126\n    /* \"#utility.yul\":5502:5505   */\n  dup3\n    /* \"#utility.yul\":5469:5506   */\n  tag_48\n  jump\t// in\ntag_126:\n    /* \"#utility.yul\":5571:5589   */\n  0xffffffffffffffff\n    /* \"#utility.yul\":5563:5569   */\n  dup2\n    /* \"#utility.yul\":5560:5590   */\n  gt\n    /* \"#utility.yul\":5557:5613   */\n  iszero\n  tag_127\n  jumpi\n    /* \"#utility.yul\":5593:5611   */\n  tag_128\n  tag_49\n  jump\t// in\ntag_128:\n    /* \"#utility.yul\":5557:5613   */\ntag_127:\n    /* \"#utility.yul\":5637:5675   */\n  tag_129\n    /* \"#utility.yul\":5669:5673   */\n  dup3\n    /* \"#utility.yul\":5663:5674   */\n  sload\n    /* \"#utility.yul\":5637:5675   */\n  tag_40\n  jump\t// in\ntag_129:\n    /* \"#utility.yul\":5722:5789   */\n  tag_130\n    /* \"#utility.yul\":5782:5788   */\n  dup3\n    /* \"#utility.yul\":5774:5780   */\n  dup3\n    /* \"#utility.yul\":5768:5772   */\n  dup6\n    /* \"#utility.yul\":5722:5789   */\n  tag_61\n  jump\t// in\ntag_130:\n    /* \"#utility.yul\":5816:5817   */\n  0x00\n    /* \"#utility.yul\":5840:5844   */\n  0x20\n    /* \"#utility.yul\":5827:5844   */\n  swap1\n  pop\n    /* \"#utility.yul\":5872:5874   */\n  0x1f\n    /* \"#utility.yul\":5864:5870   */\n  dup4\n    /* \"#utility.yul\":5861:5875   */\n  gt\n    /* \"#utility.yul\":5889:5890   */\n  0x01\n    /* \"#utility.yul\":5884:6502   */\n  dup2\n  eq\n  tag_132\n  jumpi\n    /* \"#utility.yul\":6546:6547   */\n  0x00\n    /* \"#utility.yul\":6563:6569   */\n  dup5\n    /* \"#utility.yul\":6560:6637   */\n  iszero\n  tag_133\n  jumpi\n    /* \"#utility.yul\":6612:6621   */\n  dup3\n    /* \"#utility.yul\":6607:6610   */\n  dup8\n    /* \"#utility.yul\":6603:6622   */\n  add\n    /* \"#utility.yul\":6597:6623   */\n  mload\n    /* \"#utility.yul\":6588:6623   */\n  swap1\n  pop\n    /* \"#utility.yul\":6560:6637   */\ntag_133:\n    /* \"#utility.yul\":6663:6730   */\n  tag_134\n    /* \"#utility.yul\":6723:6729   */\n  dup6\n    /* \"#utility.yul\":6716:6721   */\n  dup3\n    /* \"#utility.yul\":6663:6730   */\n  tag_64\n  jump\t// in\ntag_134:\n    /* \"#utility.yul\":6657:6661   */\n  dup7\n    /* \"#utility.yul\":6650:6731   */\n  sstore\n    /* \"#utility.yul\":6519:6741   */\n  pop\n    /* \"#utility.yul\":5854:6741   */\n  jump(tag_131)\n    /* \"#utility.yul\":5884:6502   */\ntag_132:\n    /* \"#utility.yul\":5936:5940   */\n  0x1f\n    /* \"#utility.yul\":5932:5941   */\n  not\n    /* \"#utility.yul\":5924:5930   */\n  dup5\n    /* \"#utility.yul\":5920:5942   */\n  and\n    /* \"#utility.yul\":5970:6007   */\n  tag_135\n    /* \"#utility.yul\":6002:6006   */\n  dup7\n    /* \"#utility.yul\":5970:6007   */\n  tag_46\n  jump\t// in\ntag_135:\n    /* \"#utility.yul\":6029:6030   */\n  0x00\n    /* \"#utility.yul\":6043:6251   */\ntag_136:\n    /* \"#utility.yul\":6057:6064   */\n  dup3\n    /* \"#utility.yul\":6054:6055   */\n  dup2\n    /* \"#utility.yul\":6051:6065   */\n  lt\n    /* \"#utility.yul\":6043:6251   */\n  iszero\n  tag_138\n  jumpi\n    /* \"#utility.yul\":6136:6145   */\n  dup5\n    /* \"#utility.yul\":6131:6134   */\n  dup10\n    /* \"#utility.yul\":6127:6146   */\n  add\n    /* \"#utility.yul\":6121:6147   */\n  mload\n    /* \"#utility.yul\":6113:6119   */\n  dup3\n    /* \"#utility.yul\":6106:6148   */\n  sstore\n    /* \"#utility.yul\":6187:6188   */\n  0x01\n    /* \"#utility.yul\":6179:6185   */\n  dup3\n    /* \"#utility.yul\":6175:6189   */\n  add\n    /* \"#utility.yul\":6165:6189   */\n  swap2\n  pop\n    /* \"#utility.yul\":6234:6236   */\n  0x20\n    /* \"#utility.yul\":6223:6232   */\n  dup6\n    /* \"#utility.yul\":6219:6237   */\n  add\n    /* \"#utility.yul\":6206:6237   */\n  swap5\n  pop\n    /* \"#utility.yul\":6080:6084   */\n  0x20\n    /* \"#utility.yul\":6077:6078   */\n  dup2\n    /* \"#utility.yul\":6073:6085   */\n  add\n    /* \"#utility.yul\":6068:6085   */\n  swap1\n  pop\n    /* \"#utility.yul\":6043:6251   */\n  jump(tag_136)\ntag_138:\n    /* \"#utility.yul\":6279:6285   */\n  dup7\n    /* \"#utility.yul\":6270:6277   */\n  dup4\n    /* \"#utility.yul\":6267:6286   */\n  lt\n    /* \"#utility.yul\":6264:6443   */\n  iszero\n  tag_139\n  jumpi\n    /* \"#utility.yul\":6337:6346   */\n  dup5\n    /* \"#utility.yul\":6332:6335   */\n  dup10\n    /* \"#utility.yul\":6328:6347   */\n  add\n    /* \"#utility.yul\":6322:6348   */\n  mload\n    /* \"#utility.yul\":6380:6428   */\n  tag_140\n    /* \"#utility.yul\":6422:6426   */\n  0x1f\n    /* \"#utility.yul\":6414:6420   */\n  dup10\n    /* \"#utility.yul\":6410:6427   */\n  and\n    /* \"#utility.yul\":6399:6408   */\n  dup3\n    /* \"#utility.yul\":6380:6428   */\n  tag_63\n  jump\t// in\ntag_140:\n    /* \"#utility.yul\":6372:6378   */\n  dup4\n    /* \"#utility.yul\":6365:6429   */\n  sstore\n    /* \"#utility.yul\":6287:6443   */\n  pop\n    /* \"#utility.yul\":6264:6443   */\ntag_139:\n    /* \"#utility.yul\":6489:6490   */\n  0x01\n    /* \"#utility.yul\":6485:6486   */\n  0x02\n    /* \"#utility.yul\":6477:6483   */\n  dup9\n    /* \"#utility.yul\":6473:6487   */\n  mul\n    /* \"#utility.yul\":6469:6491   */\n  add\n    /* \"#utility.yul\":6463:6467   */\n  dup9\n    /* \"#utility.yul\":6456:6492   */\n  sstore\n    /* \"#utility.yul\":5891:6502   */\n  pop\n  pop\n  pop\n    /* \"#utility.yul\":5854:6741   */\ntag_131:\n  pop\n    /* \"#utility.yul\":5444:6747   */\n  pop\n  pop\n  pop\n    /* \"#utility.yul\":5352:6747   */\n  pop\n  pop\n  jump\t// out\n    /* \"task1/roman.sol\":68:1310  contract Roman {... */\ntag_20:\n  dataSize(sub_0)\n  dup1\n  dataOffset(sub_0)\n  0x00\n  codecopy\n  0x00\n  return\nstop\n\nsub_0: assembly {\n        /* \"task1/roman.sol\":68:1310  contract Roman {... */\n      mstore(0x40, 0x80)\n      callvalue\n      dup1\n      iszero\n      tag_1\n      jumpi\n      revert(0x00, 0x00)\n    tag_1:\n      pop\n      jumpi(tag_2, lt(calldatasize, 0x04))\n      shr(0xe0, calldataload(0x00))\n      dup1\n      0x0cbc513a\n      eq\n      tag_3\n      jumpi\n      dup1\n      0xcb159dfe\n      eq\n      tag_4\n      jumpi\n    tag_2:\n      revert(0x00, 0x00)\n        /* \"task1/roman.sol\":276:609  function intToRoman(uint256 num) public view returns (string memory) {... */\n    tag_3:\n      tag_5\n      0x04\n      dup1\n      calldatasize\n      sub\n      dup2\n      add\n      swap1\n      tag_6\n      swap2\n      swap1\n      tag_7\n      jump\t// in\n    tag_6:\n      tag_8\n      jump\t// in\n    tag_5:\n      mload(0x40)\n      tag_9\n      swap2\n      swap1\n      tag_10\n      jump\t// in\n    tag_9:\n      mload(0x40)\n      dup1\n      swap2\n      sub\n      swap1\n      return\n        /* \"task1/roman.sol\":801:1307  function romanToInt(string calldata s) public view returns (uint) {... */\n    tag_4:\n      tag_11\n      0x04\n      dup1\n      calldatasize\n      sub\n      dup2\n      add\n      swap1\n      tag_12\n      swap2\n      swap1\n      tag_13\n      jump\t// in\n    tag_12:\n      tag_14\n      jump\t// in\n    tag_11:\n      mload(0x40)\n      tag_15\n      swap2\n      swap1\n      tag_16\n      jump\t// in\n    tag_15:\n      mload(0x40)\n      dup1\n      swap2\n      sub\n      swap1\n      return\n        /* \"task1/roman.sol\":276:609  function intToRoman(uint256 num) public view returns (string memory) {... */\n    tag_8:\n        /* \"task1/roman.sol\":330:343  string memory */\n      0x60\n        /* \"task1/roman.sol\":356:376  string memory result */\n      0x00\n        /* \"task1/roman.sol\":356:381  string memory result = \"\" */\n      mload(0x40)\n      dup1\n      0x20\n      add\n      0x40\n      mstore\n      dup1\n      0x00\n      dup2\n      mstore\n      pop\n      swap1\n      pop\n        /* \"task1/roman.sol\":397:406  uint256 i */\n      0x00\n        /* \"task1/roman.sol\":409:410  0 */\n      0x00\n        /* \"task1/roman.sol\":397:410  uint256 i = 0 */\n      swap1\n      pop\n        /* \"task1/roman.sol\":392:578  for (uint256 i = 0; i < a.length; i++) {... */\n    tag_18:\n        /* \"task1/roman.sol\":416:417  a */\n      0x00\n        /* \"task1/roman.sol\":416:424  a.length */\n      dup1\n      sload\n      swap1\n      pop\n        /* \"task1/roman.sol\":412:413  i */\n      dup2\n        /* \"task1/roman.sol\":412:424  i < a.length */\n      lt\n        /* \"task1/roman.sol\":392:578  for (uint256 i = 0; i < a.length; i++) {... */\n      iszero\n      tag_19\n      jumpi\n        /* \"task1/roman.sol\":446:567  while (num >= a[i]) {... */\n    tag_21:\n        /* \"task1/roman.sol\":460:461  a */\n      0x00\n        /* \"task1/roman.sol\":462:463  i */\n      dup2\n        /* \"task1/roman.sol\":460:464  a[i] */\n      dup2\n      sload\n      dup2\n      lt\n      tag_23\n      jumpi\n      tag_24\n      tag_25\n      jump\t// in\n    tag_24:\n    tag_23:\n      swap1\n      0x00\n      mstore\n      keccak256(0x00, 0x20)\n      add\n      sload\n        /* \"task1/roman.sol\":453:456  num */\n      dup5\n        /* \"task1/roman.sol\":453:464  num >= a[i] */\n      lt\n        /* \"task1/roman.sol\":446:567  while (num >= a[i]) {... */\n      tag_22\n      jumpi\n        /* \"task1/roman.sol\":492:493  a */\n      0x00\n        /* \"task1/roman.sol\":494:495  i */\n      dup2\n        /* \"task1/roman.sol\":492:496  a[i] */\n      dup2\n      sload\n      dup2\n      lt\n      tag_27\n      jumpi\n      tag_28\n      tag_25\n      jump\t// in\n    tag_28:\n    tag_27:\n      swap1\n      0x00\n      mstore\n      keccak256(0x00, 0x20)\n      add\n      sload\n        /* \"task1/roman.sol\":485:496  num -= a[i] */\n      dup5\n      tag_30\n      swap2\n      swap1\n      tag_31\n      jump\t// in\n    tag_30:\n      swap4\n      pop\n        /* \"task1/roman.sol\":538:544  result */\n      dup2\n        /* \"task1/roman.sol\":546:547  b */\n      0x01\n        /* \"task1/roman.sol\":548:549  i */\n      dup3\n        /* \"task1/roman.sol\":546:550  b[i] */\n      dup2\n      sload\n      dup2\n      lt\n      tag_32\n      jumpi\n      tag_33\n      tag_25\n      jump\t// in\n    tag_33:\n    tag_32:\n      swap1\n      0x00\n      mstore\n      keccak256(0x00, 0x20)\n      add\n        /* \"task1/roman.sol\":524:551  string.concat(result, b[i]) */\n      add(0x20, mload(0x40))\n      tag_35\n      swap3\n      swap2\n      swap1\n      tag_36\n      jump\t// in\n    tag_35:\n      mload(0x40)\n      0x20\n      dup2\n      dup4\n      sub\n      sub\n      dup2\n      mstore\n      swap1\n      0x40\n      mstore\n        /* \"task1/roman.sol\":515:551  result = string.concat(result, b[i]) */\n      swap2\n      pop\n        /* \"task1/roman.sol\":446:567  while (num >= a[i]) {... */\n      jump(tag_21)\n    tag_22:\n        /* \"task1/roman.sol\":426:429  i++ */\n      dup1\n      dup1\n      0x01\n      add\n      swap2\n      pop\n      pop\n        /* \"task1/roman.sol\":392:578  for (uint256 i = 0; i < a.length; i++) {... */\n      jump(tag_18)\n    tag_19:\n      pop\n        /* \"task1/roman.sol\":595:601  result */\n      dup1\n        /* \"task1/roman.sol\":588:601  return result */\n      swap2\n      pop\n      pop\n        /* \"task1/roman.sol\":276:609  function intToRoman(uint256 num) public view returns (string memory) {... */\n      swap2\n      swap1\n      pop\n      jump\t// out\n        /* \"task1/roman.sol\":801:1307  function romanToInt(string calldata s) public view returns (uint) {... */\n    tag_14:\n        /* \"task1/roman.sol\":861:865  uint */\n      0x00\n        /* \"task1/roman.sol\":878:886  uint res */\n      0x00\n        /* \"task1/roman.sol\":889:890  0 */\n      0x00\n        /* \"task1/roman.sol\":878:890  uint res = 0 */\n      swap1\n      pop\n        /* \"task1/roman.sol\":901:907  uint i */\n      0x00\n        /* \"task1/roman.sol\":910:911  0 */\n      0x00\n        /* \"task1/roman.sol\":901:911  uint i = 0 */\n      swap1\n      pop\n        /* \"task1/roman.sol\":922:940  bytes calldata arr */\n      calldatasize\n      0x00\n        /* \"task1/roman.sol\":949:950  s */\n      dup7\n      dup7\n        /* \"task1/roman.sol\":922:951  bytes calldata arr = bytes(s) */\n      swap2\n      pop\n      swap2\n      pop\n        /* \"task1/roman.sol\":962:1279  while (i < arr.length) {... */\n    tag_38:\n        /* \"task1/roman.sol\":973:976  arr */\n      dup2\n      dup2\n        /* \"task1/roman.sol\":973:983  arr.length */\n      swap1\n      pop\n        /* \"task1/roman.sol\":969:970  i */\n      dup4\n        /* \"task1/roman.sol\":969:983  i < arr.length */\n      lt\n        /* \"task1/roman.sol\":962:1279  while (i < arr.length) {... */\n      iszero\n      tag_39\n      jumpi\n        /* \"task1/roman.sol\":1012:1015  arr */\n      dup2\n      dup2\n        /* \"task1/roman.sol\":1012:1022  arr.length */\n      swap1\n      pop\n        /* \"task1/roman.sol\":1008:1009  1 */\n      0x01\n        /* \"task1/roman.sol\":1004:1005  i */\n      dup5\n        /* \"task1/roman.sol\":1004:1009  i + 1 */\n      tag_40\n      swap2\n      swap1\n      tag_41\n      jump\t// in\n    tag_40:\n        /* \"task1/roman.sol\":1004:1022  i + 1 < arr.length */\n      lt\n        /* \"task1/roman.sol\":1004:1063  i + 1 < arr.length && romanToIntMap[string(arr[i:i+2])] > 0 */\n      dup1\n      iszero\n      tag_42\n      jumpi\n      pop\n        /* \"task1/roman.sol\":1062:1063  0 */\n      0x00\n        /* \"task1/roman.sol\":1026:1039  romanToIntMap */\n      0x02\n        /* \"task1/roman.sol\":1047:1050  arr */\n      dup4\n      dup4\n        /* \"task1/roman.sol\":1051:1052  i */\n      dup7\n        /* \"task1/roman.sol\":1047:1057  arr[i:i+2] */\n      swap1\n        /* \"task1/roman.sol\":1055:1056  2 */\n      0x02\n        /* \"task1/roman.sol\":1053:1054  i */\n      dup9\n        /* \"task1/roman.sol\":1053:1056  i+2 */\n      tag_43\n      swap2\n      swap1\n      tag_41\n      jump\t// in\n    tag_43:\n        /* \"task1/roman.sol\":1047:1057  arr[i:i+2] */\n      swap3\n      tag_44\n      swap4\n      swap3\n      swap2\n      swap1\n      tag_45\n      jump\t// in\n    tag_44:\n        /* \"task1/roman.sol\":1026:1059  romanToIntMap[string(arr[i:i+2])] */\n      mload(0x40)\n      tag_46\n      swap3\n      swap2\n      swap1\n      tag_47\n      jump\t// in\n    tag_46:\n      swap1\n      dup2\n      mstore\n      0x20\n      add\n      mload(0x40)\n      dup1\n      swap2\n      sub\n      swap1\n      keccak256\n      sload\n        /* \"task1/roman.sol\":1026:1063  romanToIntMap[string(arr[i:i+2])] > 0 */\n      gt\n        /* \"task1/roman.sol\":1004:1063  i + 1 < arr.length && romanToIntMap[string(arr[i:i+2])] > 0 */\n    tag_42:\n        /* \"task1/roman.sol\":1000:1268  if (i + 1 < arr.length && romanToIntMap[string(arr[i:i+2])] > 0) {... */\n      iszero\n      tag_48\n      jumpi\n        /* \"task1/roman.sol\":1091:1104  romanToIntMap */\n      0x02\n        /* \"task1/roman.sol\":1112:1115  arr */\n      dup3\n      dup3\n        /* \"task1/roman.sol\":1116:1117  i */\n      dup6\n        /* \"task1/roman.sol\":1112:1122  arr[i:i+2] */\n      swap1\n        /* \"task1/roman.sol\":1120:1121  2 */\n      0x02\n        /* \"task1/roman.sol\":1118:1119  i */\n      dup8\n        /* \"task1/roman.sol\":1118:1121  i+2 */\n      tag_49\n      swap2\n      swap1\n      tag_41\n      jump\t// in\n    tag_49:\n        /* \"task1/roman.sol\":1112:1122  arr[i:i+2] */\n      swap3\n      tag_50\n      swap4\n      swap3\n      swap2\n      swap1\n      tag_45\n      jump\t// in\n    tag_50:\n        /* \"task1/roman.sol\":1091:1124  romanToIntMap[string(arr[i:i+2])] */\n      mload(0x40)\n      tag_51\n      swap3\n      swap2\n      swap1\n      tag_47\n      jump\t// in\n    tag_51:\n      swap1\n      dup2\n      mstore\n      0x20\n      add\n      mload(0x40)\n      dup1\n      swap2\n      sub\n      swap1\n      keccak256\n      sload\n        /* \"task1/roman.sol\":1084:1124  res += romanToIntMap[string(arr[i:i+2])] */\n      dup5\n      tag_52\n      swap2\n      swap1\n      tag_41\n      jump\t// in\n    tag_52:\n      swap4\n      pop\n        /* \"task1/roman.sol\":1148:1149  2 */\n      0x02\n        /* \"task1/roman.sol\":1143:1149  i += 2 */\n      dup4\n      tag_53\n      swap2\n      swap1\n      tag_41\n      jump\t// in\n    tag_53:\n      swap3\n      pop\n        /* \"task1/roman.sol\":1000:1268  if (i + 1 < arr.length && romanToIntMap[string(arr[i:i+2])] > 0) {... */\n      jump(tag_54)\n    tag_48:\n        /* \"task1/roman.sol\":1197:1210  romanToIntMap */\n      0x02\n        /* \"task1/roman.sol\":1218:1221  arr */\n      dup3\n      dup3\n        /* \"task1/roman.sol\":1222:1223  i */\n      dup6\n        /* \"task1/roman.sol\":1218:1228  arr[i:i+1] */\n      swap1\n        /* \"task1/roman.sol\":1226:1227  1 */\n      0x01\n        /* \"task1/roman.sol\":1224:1225  i */\n      dup8\n        /* \"task1/roman.sol\":1224:1227  i+1 */\n      tag_55\n      swap2\n      swap1\n      tag_41\n      jump\t// in\n    tag_55:\n        /* \"task1/roman.sol\":1218:1228  arr[i:i+1] */\n      swap3\n      tag_56\n      swap4\n      swap3\n      swap2\n      swap1\n      tag_45\n      jump\t// in\n    tag_56:\n        /* \"task1/roman.sol\":1197:1230  romanToIntMap[string(arr[i:i+1])] */\n      mload(0x40)\n      tag_57\n      swap3\n      swap2\n      swap1\n      tag_47\n      jump\t// in\n    tag_57:\n      swap1\n      dup2\n      mstore\n      0x20\n      add\n      mload(0x40)\n      dup1\n      swap2\n      sub\n      swap1\n      keccak256\n      sload\n        /* \"task1/roman.sol\":1190:1230  res += romanToIntMap[string(arr[i:i+1])] */\n      dup5\n      tag_58\n      swap2\n      swap1\n      tag_41\n      jump\t// in\n    tag_58:\n      swap4\n      pop\n        /* \"task1/roman.sol\":1249:1252  i++ */\n      dup3\n      dup1\n      tag_59\n      swap1\n      tag_60\n      jump\t// in\n    tag_59:\n      swap4\n      pop\n      pop\n        /* \"task1/roman.sol\":1000:1268  if (i + 1 < arr.length && romanToIntMap[string(arr[i:i+2])] > 0) {... */\n    tag_54:\n        /* \"task1/roman.sol\":962:1279  while (i < arr.length) {... */\n      jump(tag_38)\n    tag_39:\n        /* \"task1/roman.sol\":1296:1299  res */\n      dup4\n        /* \"task1/roman.sol\":1289:1299  return res */\n      swap5\n      pop\n      pop\n      pop\n      pop\n      pop\n        /* \"task1/roman.sol\":801:1307  function romanToInt(string calldata s) public view returns (uint) {... */\n      swap3\n      swap2\n      pop\n      pop\n      jump\t// out\n        /* \"#utility.yul\":88:205   */\n    tag_62:\n        /* \"#utility.yul\":197:198   */\n      0x00\n        /* \"#utility.yul\":194:195   */\n      0x00\n        /* \"#utility.yul\":187:199   */\n      revert\n        /* \"#utility.yul\":211:328   */\n    tag_63:\n        /* \"#utility.yul\":320:321   */\n      0x00\n        /* \"#utility.yul\":317:318   */\n      0x00\n        /* \"#utility.yul\":310:322   */\n      revert\n        /* \"#utility.yul\":334:411   */\n    tag_64:\n        /* \"#utility.yul\":371:378   */\n      0x00\n        /* \"#utility.yul\":400:405   */\n      dup2\n        /* \"#utility.yul\":389:405   */\n      swap1\n      pop\n        /* \"#utility.yul\":334:411   */\n      swap2\n      swap1\n      pop\n      jump\t// out\n        /* \"#utility.yul\":417:539   */\n    tag_65:\n        /* \"#utility.yul\":490:514   */\n      tag_94\n        /* \"#utility.yul\":508:513   */\n      dup2\n        /* \"#utility.yul\":490:514   */\n      tag_64\n      jump\t// in\n    tag_94:\n        /* \"#utility.yul\":483:488   */\n      dup2\n        /* \"#utility.yul\":480:515   */\n      eq\n        /* \"#utility.yul\":470:533   */\n      tag_95\n      jumpi\n        /* \"#utility.yul\":529:530   */\n      0x00\n        /* \"#utility.yul\":526:527   */\n      0x00\n        /* \"#utility.yul\":519:531   */\n      revert\n        /* \"#utility.yul\":470:533   */\n    tag_95:\n        /* \"#utility.yul\":417:539   */\n      pop\n      jump\t// out\n        /* \"#utility.yul\":545:684   */\n    tag_66:\n        /* \"#utility.yul\":591:596   */\n      0x00\n        /* \"#utility.yul\":629:635   */\n      dup2\n        /* \"#utility.yul\":616:636   */\n      calldataload\n        /* \"#utility.yul\":607:636   */\n      swap1\n      pop\n        /* \"#utility.yul\":645:678   */\n      tag_97\n        /* \"#utility.yul\":672:677   */\n      dup2\n        /* \"#utility.yul\":645:678   */\n      tag_65\n      jump\t// in\n    tag_97:\n        /* \"#utility.yul\":545:684   */\n      swap3\n      swap2\n      pop\n      pop\n      jump\t// out\n        /* \"#utility.yul\":690:1019   */\n    tag_7:\n        /* \"#utility.yul\":749:755   */\n      0x00\n        /* \"#utility.yul\":798:800   */\n      0x20\n        /* \"#utility.yul\":786:795   */\n      dup3\n        /* \"#utility.yul\":777:784   */\n      dup5\n        /* \"#utility.yul\":773:796   */\n      sub\n        /* \"#utility.yul\":769:801   */\n      slt\n        /* \"#utility.yul\":766:885   */\n      iszero\n      tag_99\n      jumpi\n        /* \"#utility.yul\":804:883   */\n      tag_100\n      tag_62\n      jump\t// in\n    tag_100:\n        /* \"#utility.yul\":766:885   */\n    tag_99:\n        /* \"#utility.yul\":924:925   */\n      0x00\n        /* \"#utility.yul\":949:1002   */\n      tag_101\n        /* \"#utility.yul\":994:1001   */\n      dup5\n        /* \"#utility.yul\":985:991   */\n      dup3\n        /* \"#utility.yul\":974:983   */\n      dup6\n        /* \"#utility.yul\":970:992   */\n      add\n        /* \"#utility.yul\":949:1002   */\n      tag_66\n      jump\t// in\n    tag_101:\n        /* \"#utility.yul\":939:1002   */\n      swap2\n      pop\n        /* \"#utility.yul\":895:1012   */\n      pop\n        /* \"#utility.yul\":690:1019   */\n      swap3\n      swap2\n      pop\n      pop\n      jump\t// out\n        /* \"#utility.yul\":1025:1124   */\n    tag_67:\n        /* \"#utility.yul\":1077:1083   */\n      0x00\n        /* \"#utility.yul\":1111:1116   */\n      dup2\n        /* \"#utility.yul\":1105:1117   */\n      mload\n        /* \"#utility.yul\":1095:1117   */\n      swap1\n      pop\n        /* \"#utility.yul\":1025:1124   */\n      swap2\n      swap1\n      pop\n      jump\t// out\n        /* \"#utility.yul\":1130:1299   */\n    tag_68:\n        /* \"#utility.yul\":1214:1225   */\n      0x00\n        /* \"#utility.yul\":1248:1254   */\n      dup3\n        /* \"#utility.yul\":1243:1246   */\n      dup3\n        /* \"#utility.yul\":1236:1255   */\n      mstore\n        /* \"#utility.yul\":1288:1292   */\n      0x20\n        /* \"#utility.yul\":1283:1286   */\n      dup3\n        /* \"#utility.yul\":1279:1293   */\n      add\n        /* \"#utility.yul\":1264:1293   */\n      swap1\n      pop\n        /* \"#utility.yul\":1130:1299   */\n      swap3\n      swap2\n      pop\n      pop\n      jump\t// out\n        /* \"#utility.yul\":1305:1444   */\n    tag_69:\n        /* \"#utility.yul\":1394:1400   */\n      dup3\n        /* \"#utility.yul\":1389:1392   */\n      dup2\n        /* \"#utility.yul\":1384:1387   */\n      dup4\n        /* \"#utility.yul\":1378:1401   */\n      mcopy\n        /* \"#utility.yul\":1435:1436   */\n      0x00\n        /* \"#utility.yul\":1426:1432   */\n      dup4\n        /* \"#utility.yul\":1421:1424   */\n      dup4\n        /* \"#utility.yul\":1417:1433   */\n      add\n        /* \"#utility.yul\":1410:1437   */\n      mstore\n        /* \"#utility.yul\":1305:1444   */\n      pop\n      pop\n      pop\n      jump\t// out\n        /* \"#utility.yul\":1450:1552   */\n    tag_70:\n        /* \"#utility.yul\":1491:1497   */\n      0x00\n        /* \"#utility.yul\":1542:1544   */\n      0x1f\n        /* \"#utility.yul\":1538:1545   */\n      not\n        /* \"#utility.yul\":1533:1535   */\n      0x1f\n        /* \"#utility.yul\":1526:1531   */\n      dup4\n        /* \"#utility.yul\":1522:1536   */\n      add\n        /* \"#utility.yul\":1518:1546   */\n      and\n        /* \"#utility.yul\":1508:1546   */\n      swap1\n      pop\n        /* \"#utility.yul\":1450:1552   */\n      swap2\n      swap1\n      pop\n      jump\t// out\n        /* \"#utility.yul\":1558:1935   */\n    tag_71:\n        /* \"#utility.yul\":1646:1649   */\n      0x00\n        /* \"#utility.yul\":1674:1713   */\n      tag_107\n        /* \"#utility.yul\":1707:1712   */\n      dup3\n        /* \"#utility.yul\":1674:1713   */\n      tag_67\n      jump\t// in\n    tag_107:\n        /* \"#utility.yul\":1729:1800   */\n      tag_108\n        /* \"#utility.yul\":1793:1799   */\n      dup2\n        /* \"#utility.yul\":1788:1791   */\n      dup6\n        /* \"#utility.yul\":1729:1800   */\n      tag_68\n      jump\t// in\n    tag_108:\n        /* \"#utility.yul\":1722:1800   */\n      swap4\n      pop\n        /* \"#utility.yul\":1809:1874   */\n      tag_109\n        /* \"#utility.yul\":1867:1873   */\n      dup2\n        /* \"#utility.yul\":1862:1865   */\n      dup6\n        /* \"#utility.yul\":1855:1859   */\n      0x20\n        /* \"#utility.yul\":1848:1853   */\n      dup7\n        /* \"#utility.yul\":1844:1860   */\n      add\n        /* \"#utility.yul\":1809:1874   */\n      tag_69\n      jump\t// in\n    tag_109:\n        /* \"#utility.yul\":1899:1928   */\n      tag_110\n        /* \"#utility.yul\":1921:1927   */\n      dup2\n        /* \"#utility.yul\":1899:1928   */\n      tag_70\n      jump\t// in\n    tag_110:\n        /* \"#utility.yul\":1894:1897   */\n      dup5\n        /* \"#utility.yul\":1890:1929   */\n      add\n        /* \"#utility.yul\":1883:1929   */\n      swap2\n      pop\n        /* \"#utility.yul\":1650:1935   */\n      pop\n        /* \"#utility.yul\":1558:1935   */\n      swap3\n      swap2\n      pop\n      pop\n      jump\t// out\n        /* \"#utility.yul\":1941:2254   */\n    tag_10:\n        /* \"#utility.yul\":2054:2058   */\n      0x00\n        /* \"#utility.yul\":2092:2094   */\n      0x20\n        /* \"#utility.yul\":2081:2090   */\n      dup3\n        /* \"#utility.yul\":2077:2095   */\n      add\n        /* \"#utility.yul\":2069:2095   */\n      swap1\n      pop\n        /* \"#utility.yul\":2141:2150   */\n      dup2\n        /* \"#utility.yul\":2135:2139   */\n      dup2\n        /* \"#utility.yul\":2131:2151   */\n      sub\n        /* \"#utility.yul\":2127:2128   */\n      0x00\n        /* \"#utility.yul\":2116:2125   */\n      dup4\n        /* \"#utility.yul\":2112:2129   */\n      add\n        /* \"#utility.yul\":2105:2152   */\n      mstore\n        /* \"#utility.yul\":2169:2247   */\n      tag_112\n        /* \"#utility.yul\":2242:2246   */\n      dup2\n        /* \"#utility.yul\":2233:2239   */\n      dup5\n        /* \"#utility.yul\":2169:2247   */\n      tag_71\n      jump\t// in\n    tag_112:\n        /* \"#utility.yul\":2161:2247   */\n      swap1\n      pop\n        /* \"#utility.yul\":1941:2254   */\n      swap3\n      swap2\n      pop\n      pop\n      jump\t// out\n        /* \"#utility.yul\":2260:2377   */\n    tag_72:\n        /* \"#utility.yul\":2369:2370   */\n      0x00\n        /* \"#utility.yul\":2366:2367   */\n      0x00\n        /* \"#utility.yul\":2359:2371   */\n      revert\n        /* \"#utility.yul\":2383:2500   */\n    tag_73:\n        /* \"#utility.yul\":2492:2493   */\n      0x00\n        /* \"#utility.yul\":2489:2490   */\n      0x00\n        /* \"#utility.yul\":2482:2494   */\n      revert\n        /* \"#utility.yul\":2506:2623   */\n    tag_74:\n        /* \"#utility.yul\":2615:2616   */\n      0x00\n        /* \"#utility.yul\":2612:2613   */\n      0x00\n        /* \"#utility.yul\":2605:2617   */\n      revert\n        /* \"#utility.yul\":2643:3196   */\n    tag_75:\n        /* \"#utility.yul\":2701:2709   */\n      0x00\n        /* \"#utility.yul\":2711:2717   */\n      0x00\n        /* \"#utility.yul\":2761:2764   */\n      dup4\n        /* \"#utility.yul\":2754:2758   */\n      0x1f\n        /* \"#utility.yul\":2746:2752   */\n      dup5\n        /* \"#utility.yul\":2742:2759   */\n      add\n        /* \"#utility.yul\":2738:2765   */\n      slt\n        /* \"#utility.yul\":2728:2850   */\n      tag_117\n      jumpi\n        /* \"#utility.yul\":2769:2848   */\n      tag_118\n      tag_72\n      jump\t// in\n    tag_118:\n        /* \"#utility.yul\":2728:2850   */\n    tag_117:\n        /* \"#utility.yul\":2882:2888   */\n      dup3\n        /* \"#utility.yul\":2869:2889   */\n      calldataload\n        /* \"#utility.yul\":2859:2889   */\n      swap1\n      pop\n        /* \"#utility.yul\":2912:2930   */\n      0xffffffffffffffff\n        /* \"#utility.yul\":2904:2910   */\n      dup2\n        /* \"#utility.yul\":2901:2931   */\n      gt\n        /* \"#utility.yul\":2898:3015   */\n      iszero\n      tag_119\n      jumpi\n        /* \"#utility.yul\":2934:3013   */\n      tag_120\n      tag_73\n      jump\t// in\n    tag_120:\n        /* \"#utility.yul\":2898:3015   */\n    tag_119:\n        /* \"#utility.yul\":3048:3052   */\n      0x20\n        /* \"#utility.yul\":3040:3046   */\n      dup4\n        /* \"#utility.yul\":3036:3053   */\n      add\n        /* \"#utility.yul\":3024:3053   */\n      swap2\n      pop\n        /* \"#utility.yul\":3102:3105   */\n      dup4\n        /* \"#utility.yul\":3094:3098   */\n      0x01\n        /* \"#utility.yul\":3086:3092   */\n      dup3\n        /* \"#utility.yul\":3082:3099   */\n      mul\n        /* \"#utility.yul\":3072:3080   */\n      dup4\n        /* \"#utility.yul\":3068:3100   */\n      add\n        /* \"#utility.yul\":3065:3106   */\n      gt\n        /* \"#utility.yul\":3062:3190   */\n      iszero\n      tag_121\n      jumpi\n        /* \"#utility.yul\":3109:3188   */\n      tag_122\n      tag_74\n      jump\t// in\n    tag_122:\n        /* \"#utility.yul\":3062:3190   */\n    tag_121:\n        /* \"#utility.yul\":2643:3196   */\n      swap3\n      pop\n      swap3\n      swap1\n      pop\n      jump\t// out\n        /* \"#utility.yul\":3202:3731   */\n    tag_13:\n        /* \"#utility.yul\":3273:3279   */\n      0x00\n        /* \"#utility.yul\":3281:3287   */\n      0x00\n        /* \"#utility.yul\":3330:3332   */\n      0x20\n        /* \"#utility.yul\":3318:3327   */\n      dup4\n        /* \"#utility.yul\":3309:3316   */\n      dup6\n        /* \"#utility.yul\":3305:3328   */\n      sub\n        /* \"#utility.yul\":3301:3333   */\n      slt\n        /* \"#utility.yul\":3298:3417   */\n      iszero\n      tag_124\n      jumpi\n        /* \"#utility.yul\":3336:3415   */\n      tag_125\n      tag_62\n      jump\t// in\n    tag_125:\n        /* \"#utility.yul\":3298:3417   */\n    tag_124:\n        /* \"#utility.yul\":3484:3485   */\n      0x00\n        /* \"#utility.yul\":3473:3482   */\n      dup4\n        /* \"#utility.yul\":3469:3486   */\n      add\n        /* \"#utility.yul\":3456:3487   */\n      calldataload\n        /* \"#utility.yul\":3514:3532   */\n      0xffffffffffffffff\n        /* \"#utility.yul\":3506:3512   */\n      dup2\n        /* \"#utility.yul\":3503:3533   */\n      gt\n        /* \"#utility.yul\":3500:3617   */\n      iszero\n      tag_126\n      jumpi\n        /* \"#utility.yul\":3536:3615   */\n      tag_127\n      tag_63\n      jump\t// in\n    tag_127:\n        /* \"#utility.yul\":3500:3617   */\n    tag_126:\n        /* \"#utility.yul\":3649:3714   */\n      tag_128\n        /* \"#utility.yul\":3706:3713   */\n      dup6\n        /* \"#utility.yul\":3697:3703   */\n      dup3\n        /* \"#utility.yul\":3686:3695   */\n      dup7\n        /* \"#utility.yul\":3682:3704   */\n      add\n        /* \"#utility.yul\":3649:3714   */\n      tag_75\n      jump\t// in\n    tag_128:\n        /* \"#utility.yul\":3631:3714   */\n      swap3\n      pop\n      swap3\n      pop\n        /* \"#utility.yul\":3427:3724   */\n      pop\n        /* \"#utility.yul\":3202:3731   */\n      swap3\n      pop\n      swap3\n      swap1\n      pop\n      jump\t// out\n        /* \"#utility.yul\":3737:3855   */\n    tag_76:\n        /* \"#utility.yul\":3824:3848   */\n      tag_130\n        /* \"#utility.yul\":3842:3847   */\n      dup2\n        /* \"#utility.yul\":3824:3848   */\n      tag_64\n      jump\t// in\n    tag_130:\n        /* \"#utility.yul\":3819:3822   */\n      dup3\n        /* \"#utility.yul\":3812:3849   */\n      mstore\n        /* \"#utility.yul\":3737:3855   */\n      pop\n      pop\n      jump\t// out\n        /* \"#utility.yul\":3861:4083   */\n    tag_16:\n        /* \"#utility.yul\":3954:3958   */\n      0x00\n        /* \"#utility.yul\":3992:3994   */\n      0x20\n        /* \"#utility.yul\":3981:3990   */\n      dup3\n        /* \"#utility.yul\":3977:3995   */\n      add\n        /* \"#utility.yul\":3969:3995   */\n      swap1\n      pop\n        /* \"#utility.yul\":4005:4076   */\n      tag_132\n        /* \"#utility.yul\":4073:4074   */\n      0x00\n        /* \"#utility.yul\":4062:4071   */\n      dup4\n        /* \"#utility.yul\":4058:4075   */\n      add\n        /* \"#utility.yul\":4049:4055   */\n      dup5\n        /* \"#utility.yul\":4005:4076   */\n      tag_76\n      jump\t// in\n    tag_132:\n        /* \"#utility.yul\":3861:4083   */\n      swap3\n      swap2\n      pop\n      pop\n      jump\t// out\n        /* \"#utility.yul\":4089:4269   */\n    tag_25:\n        /* \"#utility.yul\":4137:4214   */\n      0x4e487b7100000000000000000000000000000000000000000000000000000000\n        /* \"#utility.yul\":4134:4135   */\n      0x00\n        /* \"#utility.yul\":4127:4215   */\n      mstore\n        /* \"#utility.yul\":4234:4238   */\n      0x32\n        /* \"#utility.yul\":4231:4232   */\n      0x04\n        /* \"#utility.yul\":4224:4239   */\n      mstore\n        /* \"#utility.yul\":4258:4262   */\n      0x24\n        /* \"#utility.yul\":4255:4256   */\n      0x00\n        /* \"#utility.yul\":4248:4263   */\n      revert\n        /* \"#utility.yul\":4275:4455   */\n    tag_77:\n        /* \"#utility.yul\":4323:4400   */\n      0x4e487b7100000000000000000000000000000000000000000000000000000000\n        /* \"#utility.yul\":4320:4321   */\n      0x00\n        /* \"#utility.yul\":4313:4401   */\n      mstore\n        /* \"#utility.yul\":4420:4424   */\n      0x11\n        /* \"#utility.yul\":4417:4418   */\n      0x04\n        /* \"#utility.yul\":4410:4425   */\n      mstore\n        /* \"#utility.yul\":4444:4448   */\n      0x24\n        /* \"#utility.yul\":4441:4442   */\n      0x00\n        /* \"#utility.yul\":4434:4449   */\n      revert\n        /* \"#utility.yul\":4461:4655   */\n    tag_31:\n        /* \"#utility.yul\":4501:4505   */\n      0x00\n        /* \"#utility.yul\":4521:4541   */\n      tag_136\n        /* \"#utility.yul\":4539:4540   */\n      dup3\n        /* \"#utility.yul\":4521:4541   */\n      tag_64\n      jump\t// in\n    tag_136:\n        /* \"#utility.yul\":4516:4541   */\n      swap2\n      pop\n        /* \"#utility.yul\":4555:4575   */\n      tag_137\n        /* \"#utility.yul\":4573:4574   */\n      dup4\n        /* \"#utility.yul\":4555:4575   */\n      tag_64\n      jump\t// in\n    tag_137:\n        /* \"#utility.yul\":4550:4575   */\n      swap3\n      pop\n        /* \"#utility.yul\":4599:4600   */\n      dup3\n        /* \"#utility.yul\":4596:4597   */\n      dup3\n        /* \"#utility.yul\":4592:4601   */\n      sub\n        /* \"#utility.yul\":4584:4601   */\n      swap1\n      pop\n        /* \"#utility.yul\":4623:4624   */\n      dup2\n        /* \"#utility.yul\":4617:4621   */\n      dup2\n        /* \"#utility.yul\":4614:4625   */\n      gt\n        /* \"#utility.yul\":4611:4648   */\n      iszero\n      tag_138\n      jumpi\n        /* \"#utility.yul\":4628:4646   */\n      tag_139\n      tag_77\n      jump\t// in\n    tag_139:\n        /* \"#utility.yul\":4611:4648   */\n    tag_138:\n        /* \"#utility.yul\":4461:4655   */\n      swap3\n      swap2\n      pop\n      pop\n      jump\t// out\n        /* \"#utility.yul\":4661:4809   */\n    tag_78:\n        /* \"#utility.yul\":4763:4774   */\n      0x00\n        /* \"#utility.yul\":4800:4803   */\n      dup2\n        /* \"#utility.yul\":4785:4803   */\n      swap1\n      pop\n        /* \"#utility.yul\":4661:4809   */\n      swap3\n      swap2\n      pop\n      pop\n      jump\t// out\n        /* \"#utility.yul\":4815:5205   */\n    tag_79:\n        /* \"#utility.yul\":4921:4924   */\n      0x00\n        /* \"#utility.yul\":4949:4988   */\n      tag_142\n        /* \"#utility.yul\":4982:4987   */\n      dup3\n        /* \"#utility.yul\":4949:4988   */\n      tag_67\n      jump\t// in\n    tag_142:\n        /* \"#utility.yul\":5004:5093   */\n      tag_143\n        /* \"#utility.yul\":5086:5092   */\n      dup2\n        /* \"#utility.yul\":5081:5084   */\n      dup6\n        /* \"#utility.yul\":5004:5093   */\n      tag_78\n      jump\t// in\n    tag_143:\n        /* \"#utility.yul\":4997:5093   */\n      swap4\n      pop\n        /* \"#utility.yul\":5102:5167   */\n      tag_144\n        /* \"#utility.yul\":5160:5166   */\n      dup2\n        /* \"#utility.yul\":5155:5158   */\n      dup6\n        /* \"#utility.yul\":5148:5152   */\n      0x20\n        /* \"#utility.yul\":5141:5146   */\n      dup7\n        /* \"#utility.yul\":5137:5153   */\n      add\n        /* \"#utility.yul\":5102:5167   */\n      tag_69\n      jump\t// in\n    tag_144:\n        /* \"#utility.yul\":5192:5198   */\n      dup1\n        /* \"#utility.yul\":5187:5190   */\n      dup5\n        /* \"#utility.yul\":5183:5199   */\n      add\n        /* \"#utility.yul\":5176:5199   */\n      swap2\n      pop\n        /* \"#utility.yul\":4925:5205   */\n      pop\n        /* \"#utility.yul\":4815:5205   */\n      swap3\n      swap2\n      pop\n      pop\n      jump\t// out\n        /* \"#utility.yul\":5211:5391   */\n    tag_80:\n        /* \"#utility.yul\":5259:5336   */\n      0x4e487b7100000000000000000000000000000000000000000000000000000000\n        /* \"#utility.yul\":5256:5257   */\n      0x00\n        /* \"#utility.yul\":5249:5337   */\n      mstore\n        /* \"#utility.yul\":5356:5360   */\n      0x22\n        /* \"#utility.yul\":5353:5354   */\n      0x04\n        /* \"#utility.yul\":5346:5361   */\n      mstore\n        /* \"#utility.yul\":5380:5384   */\n      0x24\n        /* \"#utility.yul\":5377:5378   */\n      0x00\n        /* \"#utility.yul\":5370:5385   */\n      revert\n        /* \"#utility.yul\":5397:5717   */\n    tag_81:\n        /* \"#utility.yul\":5441:5447   */\n      0x00\n        /* \"#utility.yul\":5478:5479   */\n      0x02\n        /* \"#utility.yul\":5472:5476   */\n      dup3\n        /* \"#utility.yul\":5468:5480   */\n      div\n        /* \"#utility.yul\":5458:5480   */\n      swap1\n      pop\n        /* \"#utility.yul\":5525:5526   */\n      0x01\n        /* \"#utility.yul\":5519:5523   */\n      dup3\n        /* \"#utility.yul\":5515:5527   */\n      and\n        /* \"#utility.yul\":5546:5564   */\n      dup1\n        /* \"#utility.yul\":5536:5617   */\n      tag_147\n      jumpi\n        /* \"#utility.yul\":5602:5606   */\n      0x7f\n        /* \"#utility.yul\":5594:5600   */\n      dup3\n        /* \"#utility.yul\":5590:5607   */\n      and\n        /* \"#utility.yul\":5580:5607   */\n      swap2\n      pop\n        /* \"#utility.yul\":5536:5617   */\n    tag_147:\n        /* \"#utility.yul\":5664:5666   */\n      0x20\n        /* \"#utility.yul\":5656:5662   */\n      dup3\n        /* \"#utility.yul\":5653:5667   */\n      lt\n        /* \"#utility.yul\":5633:5651   */\n      dup2\n        /* \"#utility.yul\":5630:5668   */\n      sub\n        /* \"#utility.yul\":5627:5711   */\n      tag_148\n      jumpi\n        /* \"#utility.yul\":5683:5701   */\n      tag_149\n      tag_80\n      jump\t// in\n    tag_149:\n        /* \"#utility.yul\":5627:5711   */\n    tag_148:\n        /* \"#utility.yul\":5448:5717   */\n      pop\n        /* \"#utility.yul\":5397:5717   */\n      swap2\n      swap1\n      pop\n      jump\t// out\n        /* \"#utility.yul\":5723:5864   */\n    tag_82:\n        /* \"#utility.yul\":5772:5776   */\n      0x00\n        /* \"#utility.yul\":5795:5798   */\n      dup2\n        /* \"#utility.yul\":5787:5798   */\n      swap1\n      pop\n        /* \"#utility.yul\":5818:5821   */\n      dup2\n        /* \"#utility.yul\":5815:5816   */\n      0x00\n        /* \"#utility.yul\":5808:5822   */\n      mstore\n        /* \"#utility.yul\":5852:5856   */\n      0x20\n        /* \"#utility.yul\":5849:5850   */\n      0x00\n        /* \"#utility.yul\":5839:5857   */\n      keccak256\n        /* \"#utility.yul\":5831:5857   */\n      swap1\n      pop\n        /* \"#utility.yul\":5723:5864   */\n      swap2\n      swap1\n      pop\n      jump\t// out\n        /* \"#utility.yul\":5894:6768   */\n    tag_83:\n        /* \"#utility.yul\":5997:6000   */\n      0x00\n        /* \"#utility.yul\":6034:6039   */\n      dup2\n        /* \"#utility.yul\":6028:6040   */\n      sload\n        /* \"#utility.yul\":6063:6099   */\n      tag_152\n        /* \"#utility.yul\":6089:6098   */\n      dup2\n        /* \"#utility.yul\":6063:6099   */\n      tag_81\n      jump\t// in\n    tag_152:\n        /* \"#utility.yul\":6115:6204   */\n      tag_153\n        /* \"#utility.yul\":6197:6203   */\n      dup2\n        /* \"#utility.yul\":6192:6195   */\n      dup7\n        /* \"#utility.yul\":6115:6204   */\n      tag_78\n      jump\t// in\n    tag_153:\n        /* \"#utility.yul\":6108:6204   */\n      swap5\n      pop\n        /* \"#utility.yul\":6235:6236   */\n      0x01\n        /* \"#utility.yul\":6224:6233   */\n      dup3\n        /* \"#utility.yul\":6220:6237   */\n      and\n        /* \"#utility.yul\":6251:6252   */\n      0x00\n        /* \"#utility.yul\":6246:6412   */\n      dup2\n      eq\n      tag_155\n      jumpi\n        /* \"#utility.yul\":6426:6427   */\n      0x01\n        /* \"#utility.yul\":6421:6762   */\n      dup2\n      eq\n      tag_156\n      jumpi\n        /* \"#utility.yul\":6213:6762   */\n      jump(tag_154)\n        /* \"#utility.yul\":6246:6412   */\n    tag_155:\n        /* \"#utility.yul\":6330:6334   */\n      0xff\n        /* \"#utility.yul\":6326:6335   */\n      not\n        /* \"#utility.yul\":6315:6324   */\n      dup4\n        /* \"#utility.yul\":6311:6336   */\n      and\n        /* \"#utility.yul\":6306:6309   */\n      dup7\n        /* \"#utility.yul\":6299:6337   */\n      mstore\n        /* \"#utility.yul\":6392:6398   */\n      dup2\n        /* \"#utility.yul\":6385:6399   */\n      iszero\n        /* \"#utility.yul\":6378:6400   */\n      iszero\n        /* \"#utility.yul\":6370:6376   */\n      dup3\n        /* \"#utility.yul\":6366:6401   */\n      mul\n        /* \"#utility.yul\":6361:6364   */\n      dup7\n        /* \"#utility.yul\":6357:6402   */\n      add\n        /* \"#utility.yul\":6350:6402   */\n      swap4\n      pop\n        /* \"#utility.yul\":6246:6412   */\n      jump(tag_154)\n        /* \"#utility.yul\":6421:6762   */\n    tag_156:\n        /* \"#utility.yul\":6488:6526   */\n      tag_157\n        /* \"#utility.yul\":6520:6525   */\n      dup6\n        /* \"#utility.yul\":6488:6526   */\n      tag_82\n      jump\t// in\n    tag_157:\n        /* \"#utility.yul\":6548:6549   */\n      0x00\n        /* \"#utility.yul\":6562:6716   */\n    tag_158:\n        /* \"#utility.yul\":6576:6582   */\n      dup4\n        /* \"#utility.yul\":6573:6574   */\n      dup2\n        /* \"#utility.yul\":6570:6583   */\n      lt\n        /* \"#utility.yul\":6562:6716   */\n      iszero\n      tag_160\n      jumpi\n        /* \"#utility.yul\":6650:6657   */\n      dup2\n        /* \"#utility.yul\":6644:6658   */\n      sload\n        /* \"#utility.yul\":6640:6641   */\n      dup2\n        /* \"#utility.yul\":6635:6638   */\n      dup10\n        /* \"#utility.yul\":6631:6642   */\n      add\n        /* \"#utility.yul\":6624:6659   */\n      mstore\n        /* \"#utility.yul\":6700:6701   */\n      0x01\n        /* \"#utility.yul\":6691:6698   */\n      dup3\n        /* \"#utility.yul\":6687:6702   */\n      add\n        /* \"#utility.yul\":6676:6702   */\n      swap2\n      pop\n        /* \"#utility.yul\":6598:6602   */\n      0x20\n        /* \"#utility.yul\":6595:6596   */\n      dup2\n        /* \"#utility.yul\":6591:6603   */\n      add\n        /* \"#utility.yul\":6586:6603   */\n      swap1\n      pop\n        /* \"#utility.yul\":6562:6716   */\n      jump(tag_158)\n    tag_160:\n        /* \"#utility.yul\":6745:6751   */\n      dup4\n        /* \"#utility.yul\":6740:6743   */\n      dup9\n        /* \"#utility.yul\":6736:6752   */\n      add\n        /* \"#utility.yul\":6729:6752   */\n      swap6\n      pop\n        /* \"#utility.yul\":6428:6762   */\n      pop\n      pop\n        /* \"#utility.yul\":6213:6762   */\n    tag_154:\n      pop\n        /* \"#utility.yul\":6001:6768   */\n      pop\n      pop\n        /* \"#utility.yul\":5894:6768   */\n      swap3\n      swap2\n      pop\n      pop\n      jump\t// out\n        /* \"#utility.yul\":6774:7203   */\n    tag_36:\n        /* \"#utility.yul\":6951:6954   */\n      0x00\n        /* \"#utility.yul\":6973:7068   */\n      tag_162\n        /* \"#utility.yul\":7064:7067   */\n      dup3\n        /* \"#utility.yul\":7055:7061   */\n      dup6\n        /* \"#utility.yul\":6973:7068   */\n      tag_79\n      jump\t// in\n    tag_162:\n        /* \"#utility.yul\":6966:7068   */\n      swap2\n      pop\n        /* \"#utility.yul\":7085:7177   */\n      tag_163\n        /* \"#utility.yul\":7173:7176   */\n      dup3\n        /* \"#utility.yul\":7164:7170   */\n      dup5\n        /* \"#utility.yul\":7085:7177   */\n      tag_83\n      jump\t// in\n    tag_163:\n        /* \"#utility.yul\":7078:7177   */\n      swap2\n      pop\n        /* \"#utility.yul\":7194:7197   */\n      dup2\n        /* \"#utility.yul\":7187:7197   */\n      swap1\n      pop\n        /* \"#utility.yul\":6774:7203   */\n      swap4\n      swap3\n      pop\n      pop\n      pop\n      jump\t// out\n        /* \"#utility.yul\":7209:7400   */\n    tag_41:\n        /* \"#utility.yul\":7249:7252   */\n      0x00\n        /* \"#utility.yul\":7268:7288   */\n      tag_165\n        /* \"#utility.yul\":7286:7287   */\n      dup3\n        /* \"#utility.yul\":7268:7288   */\n      tag_64\n      jump\t// in\n    tag_165:\n        /* \"#utility.yul\":7263:7288   */\n      swap2\n      pop\n        /* \"#utility.yul\":7302:7322   */\n      tag_166\n        /* \"#utility.yul\":7320:7321   */\n      dup4\n        /* \"#utility.yul\":7302:7322   */\n      tag_64\n      jump\t// in\n    tag_166:\n        /* \"#utility.yul\":7297:7322   */\n      swap3\n      pop\n        /* \"#utility.yul\":7345:7346   */\n      dup3\n        /* \"#utility.yul\":7342:7343   */\n      dup3\n        /* \"#utility.yul\":7338:7347   */\n      add\n        /* \"#utility.yul\":7331:7347   */\n      swap1\n      pop\n        /* \"#utility.yul\":7366:7369   */\n      dup1\n        /* \"#utility.yul\":7363:7364   */\n      dup3\n        /* \"#utility.yul\":7360:7370   */\n      gt\n        /* \"#utility.yul\":7357:7393   */\n      iszero\n      tag_167\n      jumpi\n        /* \"#utility.yul\":7373:7391   */\n      tag_168\n      tag_77\n      jump\t// in\n    tag_168:\n        /* \"#utility.yul\":7357:7393   */\n    tag_167:\n        /* \"#utility.yul\":7209:7400   */\n      swap3\n      swap2\n      pop\n      pop\n      jump\t// out\n        /* \"#utility.yul\":7406:7523   */\n    tag_84:\n        /* \"#utility.yul\":7515:7516   */\n      0x00\n        /* \"#utility.yul\":7512:7513   */\n      0x00\n        /* \"#utility.yul\":7505:7517   */\n      revert\n        /* \"#utility.yul\":7529:7646   */\n    tag_85:\n        /* \"#utility.yul\":7638:7639   */\n      0x00\n        /* \"#utility.yul\":7635:7636   */\n      0x00\n        /* \"#utility.yul\":7628:7640   */\n      revert\n        /* \"#utility.yul\":7652:8121   */\n    tag_45:\n        /* \"#utility.yul\":7757:7766   */\n      0x00\n        /* \"#utility.yul\":7768:7777   */\n      0x00\n        /* \"#utility.yul\":7806:7814   */\n      dup6\n        /* \"#utility.yul\":7794:7804   */\n      dup6\n        /* \"#utility.yul\":7791:7815   */\n      gt\n        /* \"#utility.yul\":7788:7899   */\n      iszero\n      tag_172\n      jumpi\n        /* \"#utility.yul\":7818:7897   */\n      tag_173\n      tag_84\n      jump\t// in\n    tag_173:\n        /* \"#utility.yul\":7788:7899   */\n    tag_172:\n        /* \"#utility.yul\":7924:7930   */\n      dup4\n        /* \"#utility.yul\":7914:7922   */\n      dup7\n        /* \"#utility.yul\":7911:7931   */\n      gt\n        /* \"#utility.yul\":7908:8015   */\n      iszero\n      tag_174\n      jumpi\n        /* \"#utility.yul\":7934:8013   */\n      tag_175\n      tag_85\n      jump\t// in\n    tag_175:\n        /* \"#utility.yul\":7908:8015   */\n    tag_174:\n        /* \"#utility.yul\":8065:8066   */\n      0x01\n        /* \"#utility.yul\":8053:8063   */\n      dup6\n        /* \"#utility.yul\":8049:8067   */\n      mul\n        /* \"#utility.yul\":8041:8047   */\n      dup4\n        /* \"#utility.yul\":8037:8068   */\n      add\n        /* \"#utility.yul\":8024:8068   */\n      swap2\n      pop\n        /* \"#utility.yul\":8104:8114   */\n      dup5\n        /* \"#utility.yul\":8094:8102   */\n      dup7\n        /* \"#utility.yul\":8090:8115   */\n      sub\n        /* \"#utility.yul\":8077:8115   */\n      swap1\n      pop\n        /* \"#utility.yul\":7652:8121   */\n      swap5\n      pop\n      swap5\n      swap3\n      pop\n      pop\n      pop\n      jump\t// out\n        /* \"#utility.yul\":8127:8275   */\n    tag_86:\n        /* \"#utility.yul\":8225:8231   */\n      dup3\n        /* \"#utility.yul\":8220:8223   */\n      dup2\n        /* \"#utility.yul\":8215:8218   */\n      dup4\n        /* \"#utility.yul\":8202:8232   */\n      calldatacopy\n        /* \"#utility.yul\":8266:8267   */\n      0x00\n        /* \"#utility.yul\":8257:8263   */\n      dup4\n        /* \"#utility.yul\":8252:8255   */\n      dup4\n        /* \"#utility.yul\":8248:8264   */\n      add\n        /* \"#utility.yul\":8241:8268   */\n      mstore\n        /* \"#utility.yul\":8127:8275   */\n      pop\n      pop\n      pop\n      jump\t// out\n        /* \"#utility.yul\":8305:8635   */\n    tag_87:\n        /* \"#utility.yul\":8421:8424   */\n      0x00\n        /* \"#utility.yul\":8442:8531   */\n      tag_178\n        /* \"#utility.yul\":8524:8530   */\n      dup4\n        /* \"#utility.yul\":8519:8522   */\n      dup6\n        /* \"#utility.yul\":8442:8531   */\n      tag_78\n      jump\t// in\n    tag_178:\n        /* \"#utility.yul\":8435:8531   */\n      swap4\n      pop\n        /* \"#utility.yul\":8541:8597   */\n      tag_179\n        /* \"#utility.yul\":8590:8596   */\n      dup4\n        /* \"#utility.yul\":8585:8588   */\n      dup6\n        /* \"#utility.yul\":8578:8583   */\n      dup5\n        /* \"#utility.yul\":8541:8597   */\n      tag_86\n      jump\t// in\n    tag_179:\n        /* \"#utility.yul\":8622:8628   */\n      dup3\n        /* \"#utility.yul\":8617:8620   */\n      dup5\n        /* \"#utility.yul\":8613:8629   */\n      add\n        /* \"#utility.yul\":8606:8629   */\n      swap1\n      pop\n        /* \"#utility.yul\":8305:8635   */\n      swap4\n      swap3\n      pop\n      pop\n      pop\n      jump\t// out\n        /* \"#utility.yul\":8641:8936   */\n    tag_47:\n        /* \"#utility.yul\":8783:8786   */\n      0x00\n        /* \"#utility.yul\":8805:8910   */\n      tag_181\n        /* \"#utility.yul\":8906:8909   */\n      dup3\n        /* \"#utility.yul\":8897:8903   */\n      dup5\n        /* \"#utility.yul\":8889:8895   */\n      dup7\n        /* \"#utility.yul\":8805:8910   */\n      tag_87\n      jump\t// in\n    tag_181:\n        /* \"#utility.yul\":8798:8910   */\n      swap2\n      pop\n        /* \"#utility.yul\":8927:8930   */\n      dup2\n        /* \"#utility.yul\":8920:8930   */\n      swap1\n      pop\n        /* \"#utility.yul\":8641:8936   */\n      swap4\n      swap3\n      pop\n      pop\n      pop\n      jump\t// out\n        /* \"#utility.yul\":8942:9175   */\n    tag_60:\n        /* \"#utility.yul\":8981:8984   */\n      0x00\n        /* \"#utility.yul\":9004:9028   */\n      tag_183\n        /* \"#utility.yul\":9022:9027   */\n      dup3\n        /* \"#utility.yul\":9004:9028   */\n      tag_64\n      jump\t// in\n    tag_183:\n        /* \"#utility.yul\":8995:9028   */\n      swap2\n      pop\n        /* \"#utility.yul\":9050:9116   */\n      0xffffffffffffffffffffffffffffffffffffffffffffffffffffffffffffffff\n        /* \"#utility.yul\":9043:9048   */\n      dup3\n        /* \"#utility.yul\":9040:9117   */\n      sub\n        /* \"#utility.yul\":9037:9140   */\n      tag_184\n      jumpi\n        /* \"#utility.yul\":9120:9138   */\n      tag_185\n      tag_77\n      jump\t// in\n    tag_185:\n        /* \"#utility.yul\":9037:9140   */\n    tag_184:\n        /* \"#utility.yul\":9167:9168   */\n      0x01\n        /* \"#utility.yul\":9160:9165   */\n      dup3\n        /* \"#utility.yul\":9156:9169   */\n      add\n        /* \"#utility.yul\":9149:9169   */\n      swap1\n      pop\n        /* \"#utility.yul\":8942:9175   */\n      swap2\n      swap1\n      pop\n      jump\t// out\n\n    auxdata: 0xa26469706673582212205715fb36dc60ea2f49d669d30e198950120016479e1c2c15ba458b6878600f1964736f6c634300081e0033\n}\n",
				"bytecode": {
					"linkReferences": {},
					"object": "6080604052604051806101a001604052806103e861ffff16815260200161038461ffff1681526020016101f461ffff16815260200161019061ffff168152602001606461ffff168152602001605a61ffff168152602001603261ffff168152602001602861ffff168152602001600a61ffff168152602001600961ffff168152602001600561ffff168152602001600461ffff168152602001600161ffff168152505f90600d6100b0929190610454565b50604051806101a001604052806040518060400160405280600181526020017f4d0000000000000000000000000000000000000000000000000000000000000081525081526020016040518060400160405280600281526020017f434d00000000000000000000000000000000000000000000000000000000000081525081526020016040518060400160405280600181526020017f440000000000000000000000000000000000000000000000000000000000000081525081526020016040518060400160405280600281526020017f434400000000000000000000000000000000000000000000000000000000000081525081526020016040518060400160405280600181526020017f430000000000000000000000000000000000000000000000000000000000000081525081526020016040518060400160405280600281526020017f584300000000000000000000000000000000000000000000000000000000000081525081526020016040518060400160405280600181526020017f4c0000000000000000000000000000000000000000000000000000000000000081525081526020016040518060400160405280600281526020017f584c00000000000000000000000000000000000000000000000000000000000081525081526020016040518060400160405280600181526020017f580000000000000000000000000000000000000000000000000000000000000081525081526020016040518060400160405280600281526020017f495800000000000000000000000000000000000000000000000000000000000081525081526020016040518060400160405280600181526020017f560000000000000000000000000000000000000000000000000000000000000081525081526020016040518060400160405280600281526020017f495600000000000000000000000000000000000000000000000000000000000081525081526020016040518060400160405280600181526020017f4900000000000000000000000000000000000000000000000000000000000000815250815250600190600d6103ca9291906104a5565b503480156103d6575f5ffd5b505f5f90505b5f8054905081101561044e575f81815481106103fb576103fa610577565b5b905f5260205f20015460026001838154811061041a57610419610577565b5b905f5260205f200160405161042f919061069d565b90815260200160405180910390208190555080806001019150506103dc565b50610950565b828054828255905f5260205f20908101928215610494579160200282015b82811115610493578251829061ffff16905591602001919060010190610472565b5b5090506104a191906104fc565b5090565b828054828255905f5260205f209081019282156104eb579160200282015b828111156104ea5782518290816104da9190610881565b50916020019190600101906104c3565b5b5090506104f89190610517565b5090565b5b80821115610513575f815f9055506001016104fd565b5090565b5b80821115610536575f818161052d919061053a565b50600101610518565b5090565b508054610546906105d1565b5f825580601f106105575750610574565b601f0160209004905f5260205f209081019061057391906104fc565b5b50565b7f4e487b71000000000000000000000000000000000000000000000000000000005f52603260045260245ffd5b7f4e487b71000000000000000000000000000000000000000000000000000000005f52602260045260245ffd5b5f60028204905060018216806105e857607f821691505b6020821081036105fb576105fa6105a4565b5b50919050565b5f81905092915050565b5f819050815f5260205f209050919050565b5f8154610629816105d1565b6106338186610601565b9450600182165f811461064d576001811461066257610694565b60ff1983168652811515820286019350610694565b61066b8561060b565b5f5b8381101561068c5781548189015260018201915060208101905061066d565b838801955050505b50505092915050565b5f6106a8828461061d565b915081905092915050565b5f81519050919050565b7f4e487b71000000000000000000000000000000000000000000000000000000005f52604160045260245ffd5b5f6020601f8301049050919050565b5f82821b905092915050565b5f600883026107347fffffffffffffffffffffffffffffffffffffffffffffffffffffffffffffffff826106f9565b61073e86836106f9565b95508019841693508086168417925050509392505050565b5f819050919050565b5f819050919050565b5f61078261077d61077884610756565b61075f565b610756565b9050919050565b5f819050919050565b61079b83610768565b6107af6107a782610789565b848454610705565b825550505050565b5f5f905090565b6107c66107b7565b6107d1818484610792565b505050565b5b818110156107f4576107e95f826107be565b6001810190506107d7565b5050565b601f8211156108395761080a8161060b565b610813846106ea565b81016020851015610822578190505b61083661082e856106ea565b8301826107d6565b50505b505050565b5f82821c905092915050565b5f6108595f198460080261083e565b1980831691505092915050565b5f610871838361084a565b9150826002028217905092915050565b61088a826106b3565b67ffffffffffffffff8111156108a3576108a26106bd565b5b6108ad82546105d1565b6108b88282856107f8565b5f60209050601f8311600181146108e9575f84156108d7578287015190505b6108e18582610866565b865550610948565b601f1984166108f78661060b565b5f5b8281101561091e578489015182556001820191506020850194506020810190506108f9565b8683101561093b5784890151610937601f89168261084a565b8355505b6001600288020188555050505b505050505050565b6107878061095d5f395ff3fe608060405234801561000f575f5ffd5b5060043610610034575f3560e01c80630cbc513a14610038578063cb159dfe14610068575b5f5ffd5b610052600480360381019061004d91906102e3565b610098565b60405161005f919061037e565b60405180910390f35b610082600480360381019061007d91906103ff565b610164565b60405161008f9190610459565b60405180910390f35b60605f60405180602001604052805f81525090505f5f90505b5f8054905081101561015a575b5f81815481106100d1576100d0610472565b5b905f5260205f200154841061014d575f81815481106100f3576100f2610472565b5b905f5260205f2001548461010791906104cc565b9350816001828154811061011e5761011d610472565b5b905f5260205f2001604051602001610137929190610628565b60405160208183030381529060405291506100be565b80806001019150506100b1565b5080915050919050565b5f5f5f90505f5f9050365f8686915091505b8181905083101561029b5781819050600184610192919061064b565b1080156101da57505f6002838386906002886101ae919061064b565b926101bb93929190610686565b6040516101c99291906106f2565b908152602001604051809103902054115b1561023d576002828285906002876101f2919061064b565b926101ff93929190610686565b60405161020d9291906106f2565b90815260200160405180910390205484610227919061064b565b9350600283610236919061064b565b9250610296565b600282828590600187610250919061064b565b9261025d93929190610686565b60405161026b9291906106f2565b90815260200160405180910390205484610285919061064b565b935082806102929061070a565b9350505b610176565b8394505050505092915050565b5f5ffd5b5f5ffd5b5f819050919050565b6102c2816102b0565b81146102cc575f5ffd5b50565b5f813590506102dd816102b9565b92915050565b5f602082840312156102f8576102f76102a8565b5b5f610305848285016102cf565b91505092915050565b5f81519050919050565b5f82825260208201905092915050565b8281835e5f83830152505050565b5f601f19601f8301169050919050565b5f6103508261030e565b61035a8185610318565b935061036a818560208601610328565b61037381610336565b840191505092915050565b5f6020820190508181035f8301526103968184610346565b905092915050565b5f5ffd5b5f5ffd5b5f5ffd5b5f5f83601f8401126103bf576103be61039e565b5b8235905067ffffffffffffffff8111156103dc576103db6103a2565b5b6020830191508360018202830111156103f8576103f76103a6565b5b9250929050565b5f5f60208385031215610415576104146102a8565b5b5f83013567ffffffffffffffff811115610432576104316102ac565b5b61043e858286016103aa565b92509250509250929050565b610453816102b0565b82525050565b5f60208201905061046c5f83018461044a565b92915050565b7f4e487b71000000000000000000000000000000000000000000000000000000005f52603260045260245ffd5b7f4e487b71000000000000000000000000000000000000000000000000000000005f52601160045260245ffd5b5f6104d6826102b0565b91506104e1836102b0565b92508282039050818111156104f9576104f861049f565b5b92915050565b5f81905092915050565b5f6105138261030e565b61051d81856104ff565b935061052d818560208601610328565b80840191505092915050565b7f4e487b71000000000000000000000000000000000000000000000000000000005f52602260045260245ffd5b5f600282049050600182168061057d57607f821691505b6020821081036105905761058f610539565b5b50919050565b5f819050815f5260205f209050919050565b5f81546105b481610566565b6105be81866104ff565b9450600182165f81146105d857600181146105ed5761061f565b60ff198316865281151582028601935061061f565b6105f685610596565b5f5b83811015610617578154818901526001820191506020810190506105f8565b838801955050505b50505092915050565b5f6106338285610509565b915061063f82846105a8565b91508190509392505050565b5f610655826102b0565b9150610660836102b0565b92508282019050808211156106785761067761049f565b5b92915050565b5f5ffd5b5f5ffd5b5f5f858511156106995761069861067e565b5b838611156106aa576106a9610682565b5b6001850283019150848603905094509492505050565b828183375f83830152505050565b5f6106d983856104ff565b93506106e68385846106c0565b82840190509392505050565b5f6106fe8284866106ce565b91508190509392505050565b5f610714826102b0565b91507fffffffffffffffffffffffffffffffffffffffffffffffffffffffffffffffff82036107465761074561049f565b5b60018201905091905056fea26469706673582212205715fb36dc60ea2f49d669d30e198950120016479e1c2c15ba458b6878600f1964736f6c634300081e0033",
					"opcodes": "PUSH1 0x80 PUSH1 0x40 MSTORE PUSH1 0x40 MLOAD DUP1 PUSH2 0x1A0 ADD PUSH1 0x40 MSTORE DUP1 PUSH2 0x3E8 PUSH2 0xFFFF AND DUP2 MSTORE PUSH1 0x20 ADD PUSH2 0x384 PUSH2 0xFFFF AND DUP2 MSTORE PUSH1 0x20 ADD PUSH2 0x1F4 PUSH2 0xFFFF AND DUP2 MSTORE PUSH1 0x20 ADD PUSH2 0x190 PUSH2 0xFFFF AND DUP2 MSTORE PUSH1 0x20 ADD PUSH1 0x64 PUSH2 0xFFFF AND DUP2 MSTORE PUSH1 0x20 ADD PUSH1 0x5A PUSH2 0xFFFF AND DUP2 MSTORE PUSH1 0x20 ADD PUSH1 0x32 PUSH2 0xFFFF AND DUP2 MSTORE PUSH1 0x20 ADD PUSH1 0x28 PUSH2 0xFFFF AND DUP2 MSTORE PUSH1 0x20 ADD PUSH1 0xA PUSH2 0xFFFF AND DUP2 MSTORE PUSH1 0x20 ADD PUSH1 0x9 PUSH2 0xFFFF AND DUP2 MSTORE PUSH1 0x20 ADD PUSH1 0x5 PUSH2 0xFFFF AND DUP2 MSTORE PUSH1 0x20 ADD PUSH1 0x4 PUSH2 0xFFFF AND DUP2 MSTORE PUSH1 0x20 ADD PUSH1 0x1 PUSH2 0xFFFF AND DUP2 MSTORE POP PUSH0 SWAP1 PUSH1 0xD PUSH2 0xB0 SWAP3 SWAP2 SWAP1 PUSH2 0x454 JUMP JUMPDEST POP PUSH1 0x40 MLOAD DUP1 PUSH2 0x1A0 ADD PUSH1 0x40 MSTORE DUP1 PUSH1 0x40 MLOAD DUP1 PUSH1 0x40 ADD PUSH1 0x40 MSTORE DUP1 PUSH1 0x1 DUP2 MSTORE PUSH1 0x20 ADD PUSH32 0x4D00000000000000000000000000000000000000000000000000000000000000 DUP2 MSTORE POP DUP2 MSTORE PUSH1 0x20 ADD PUSH1 0x40 MLOAD DUP1 PUSH1 0x40 ADD PUSH1 0x40 MSTORE DUP1 PUSH1 0x2 DUP2 MSTORE PUSH1 0x20 ADD PUSH32 0x434D000000000000000000000000000000000000000000000000000000000000 DUP2 MSTORE POP DUP2 MSTORE PUSH1 0x20 ADD PUSH1 0x40 MLOAD DUP1 PUSH1 0x40 ADD PUSH1 0x40 MSTORE DUP1 PUSH1 0x1 DUP2 MSTORE PUSH1 0x20 ADD PUSH32 0x4400000000000000000000000000000000000000000000000000000000000000 DUP2 MSTORE POP DUP2 MSTORE PUSH1 0x20 ADD PUSH1 0x40 MLOAD DUP1 PUSH1 0x40 ADD PUSH1 0x40 MSTORE DUP1 PUSH1 0x2 DUP2 MSTORE PUSH1 0x20 ADD PUSH32 0x4344000000000000000000000000000000000000000000000000000000000000 DUP2 MSTORE POP DUP2 MSTORE PUSH1 0x20 ADD PUSH1 0x40 MLOAD DUP1 PUSH1 0x40 ADD PUSH1 0x40 MSTORE DUP1 PUSH1 0x1 DUP2 MSTORE PUSH1 0x20 ADD PUSH32 0x4300000000000000000000000000000000000000000000000000000000000000 DUP2 MSTORE POP DUP2 MSTORE PUSH1 0x20 ADD PUSH1 0x40 MLOAD DUP1 PUSH1 0x40 ADD PUSH1 0x40 MSTORE DUP1 PUSH1 0x2 DUP2 MSTORE PUSH1 0x20 ADD PUSH32 0x5843000000000000000000000000000000000000000000000000000000000000 DUP2 MSTORE POP DUP2 MSTORE PUSH1 0x20 ADD PUSH1 0x40 MLOAD DUP1 PUSH1 0x40 ADD PUSH1 0x40 MSTORE DUP1 PUSH1 0x1 DUP2 MSTORE PUSH1 0x20 ADD PUSH32 0x4C00000000000000000000000000000000000000000000000000000000000000 DUP2 MSTORE POP DUP2 MSTORE PUSH1 0x20 ADD PUSH1 0x40 MLOAD DUP1 PUSH1 0x40 ADD PUSH1 0x40 MSTORE DUP1 PUSH1 0x2 DUP2 MSTORE PUSH1 0x20 ADD PUSH32 0x584C000000000000000000000000000000000000000000000000000000000000 DUP2 MSTORE POP DUP2 MSTORE PUSH1 0x20 ADD PUSH1 0x40 MLOAD DUP1 PUSH1 0x40 ADD PUSH1 0x40 MSTORE DUP1 PUSH1 0x1 DUP2 MSTORE PUSH1 0x20 ADD PUSH32 0x5800000000000000000000000000000000000000000000000000000000000000 DUP2 MSTORE POP DUP2 MSTORE PUSH1 0x20 ADD PUSH1 0x40 MLOAD DUP1 PUSH1 0x40 ADD PUSH1 0x40 MSTORE DUP1 PUSH1 0x2 DUP2 MSTORE PUSH1 0x20 ADD PUSH32 0x4958000000000000000000000000000000000000000000000000000000000000 DUP2 MSTORE POP DUP2 MSTORE PUSH1 0x20 ADD PUSH1 0x40 MLOAD DUP1 PUSH1 0x40 ADD PUSH1 0x40 MSTORE DUP1 PUSH1 0x1 DUP2 MSTORE PUSH1 0x20 ADD PUSH32 0x5600000000000000000000000000000000000000000000000000000000000000 DUP2 MSTORE POP DUP2 MSTORE PUSH1 0x20 ADD PUSH1 0x40 MLOAD DUP1 PUSH1 0x40 ADD PUSH1 0x40 MSTORE DUP1 PUSH1 0x2 DUP2 MSTORE PUSH1 0x20 ADD PUSH32 0x4956000000000000000000000000000000000000000000000000000000000000 DUP2 MSTORE POP DUP2 MSTORE PUSH1 0x20 ADD PUSH1 0x40 MLOAD DUP1 PUSH1 0x40 ADD PUSH1 0x40 MSTORE DUP1 PUSH1 0x1 DUP2 MSTORE PUSH1 0x20 ADD PUSH32 0x4900000000000000000000000000000000000000000000000000000000000000 DUP2 MSTORE POP DUP2 MSTORE POP PUSH1 0x1 SWAP1 PUSH1 0xD PUSH2 0x3CA SWAP3 SWAP2 SWAP1 PUSH2 0x4A5 JUMP JUMPDEST POP CALLVALUE DUP1 ISZERO PUSH2 0x3D6 JUMPI PUSH0 PUSH0 REVERT JUMPDEST POP PUSH0 PUSH0 SWAP1 POP JUMPDEST PUSH0 DUP1 SLOAD SWAP1 POP DUP2 LT ISZERO PUSH2 0x44E JUMPI PUSH0 DUP2 DUP2 SLOAD DUP2 LT PUSH2 0x3FB JUMPI PUSH2 0x3FA PUSH2 0x577 JUMP JUMPDEST JUMPDEST SWAP1 PUSH0 MSTORE PUSH1 0x20 PUSH0 KECCAK256 ADD SLOAD PUSH1 0x2 PUSH1 0x1 DUP4 DUP2 SLOAD DUP2 LT PUSH2 0x41A JUMPI PUSH2 0x419 PUSH2 0x577 JUMP JUMPDEST JUMPDEST SWAP1 PUSH0 MSTORE PUSH1 0x20 PUSH0 KECCAK256 ADD PUSH1 0x40 MLOAD PUSH2 0x42F SWAP2 SWAP1 PUSH2 0x69D JUMP JUMPDEST SWAP1 DUP2 MSTORE PUSH1 0x20 ADD PUSH1 0x40 MLOAD DUP1 SWAP2 SUB SWAP1 KECCAK256 DUP2 SWAP1 SSTORE POP DUP1 DUP1 PUSH1 0x1 ADD SWAP2 POP POP PUSH2 0x3DC JUMP JUMPDEST POP PUSH2 0x950 JUMP JUMPDEST DUP3 DUP1 SLOAD DUP3 DUP3 SSTORE SWAP1 PUSH0 MSTORE PUSH1 0x20 PUSH0 KECCAK256 SWAP1 DUP2 ADD SWAP3 DUP3 ISZERO PUSH2 0x494 JUMPI SWAP2 PUSH1 0x20 MUL DUP3 ADD JUMPDEST DUP3 DUP2 GT ISZERO PUSH2 0x493 JUMPI DUP3 MLOAD DUP3 SWAP1 PUSH2 0xFFFF AND SWAP1 SSTORE SWAP2 PUSH1 0x20 ADD SWAP2 SWAP1 PUSH1 0x1 ADD SWAP1 PUSH2 0x472 JUMP JUMPDEST JUMPDEST POP SWAP1 POP PUSH2 0x4A1 SWAP2 SWAP1 PUSH2 0x4FC JUMP JUMPDEST POP SWAP1 JUMP JUMPDEST DUP3 DUP1 SLOAD DUP3 DUP3 SSTORE SWAP1 PUSH0 MSTORE PUSH1 0x20 PUSH0 KECCAK256 SWAP1 DUP2 ADD SWAP3 DUP3 ISZERO PUSH2 0x4EB JUMPI SWAP2 PUSH1 0x20 MUL DUP3 ADD JUMPDEST DUP3 DUP2 GT ISZERO PUSH2 0x4EA JUMPI DUP3 MLOAD DUP3 SWAP1 DUP2 PUSH2 0x4DA SWAP2 SWAP1 PUSH2 0x881 JUMP JUMPDEST POP SWAP2 PUSH1 0x20 ADD SWAP2 SWAP1 PUSH1 0x1 ADD SWAP1 PUSH2 0x4C3 JUMP JUMPDEST JUMPDEST POP SWAP1 POP PUSH2 0x4F8 SWAP2 SWAP1 PUSH2 0x517 JUMP JUMPDEST POP SWAP1 JUMP JUMPDEST JUMPDEST DUP1 DUP3 GT ISZERO PUSH2 0x513 JUMPI PUSH0 DUP2 PUSH0 SWAP1 SSTORE POP PUSH1 0x1 ADD PUSH2 0x4FD JUMP JUMPDEST POP SWAP1 JUMP JUMPDEST JUMPDEST DUP1 DUP3 GT ISZERO PUSH2 0x536 JUMPI PUSH0 DUP2 DUP2 PUSH2 0x52D SWAP2 SWAP1 PUSH2 0x53A JUMP JUMPDEST POP PUSH1 0x1 ADD PUSH2 0x518 JUMP JUMPDEST POP SWAP1 JUMP JUMPDEST POP DUP1 SLOAD PUSH2 0x546 SWAP1 PUSH2 0x5D1 JUMP JUMPDEST PUSH0 DUP3 SSTORE DUP1 PUSH1 0x1F LT PUSH2 0x557 JUMPI POP PUSH2 0x574 JUMP JUMPDEST PUSH1 0x1F ADD PUSH1 0x20 SWAP1 DIV SWAP1 PUSH0 MSTORE PUSH1 0x20 PUSH0 KECCAK256 SWAP1 DUP2 ADD SWAP1 PUSH2 0x573 SWAP2 SWAP1 PUSH2 0x4FC JUMP JUMPDEST JUMPDEST POP JUMP JUMPDEST PUSH32 0x4E487B7100000000000000000000000000000000000000000000000000000000 PUSH0 MSTORE PUSH1 0x32 PUSH1 0x4 MSTORE PUSH1 0x24 PUSH0 REVERT JUMPDEST PUSH32 0x4E487B7100000000000000000000000000000000000000000000000000000000 PUSH0 MSTORE PUSH1 0x22 PUSH1 0x4 MSTORE PUSH1 0x24 PUSH0 REVERT JUMPDEST PUSH0 PUSH1 0x2 DUP3 DIV SWAP1 POP PUSH1 0x1 DUP3 AND DUP1 PUSH2 0x5E8 JUMPI PUSH1 0x7F DUP3 AND SWAP2 POP JUMPDEST PUSH1 0x20 DUP3 LT DUP2 SUB PUSH2 0x5FB JUMPI PUSH2 0x5FA PUSH2 0x5A4 JUMP JUMPDEST JUMPDEST POP SWAP2 SWAP1 POP JUMP JUMPDEST PUSH0 DUP2 SWAP1 POP SWAP3 SWAP2 POP POP JUMP JUMPDEST PUSH0 DUP2 SWAP1 POP DUP2 PUSH0 MSTORE PUSH1 0x20 PUSH0 KECCAK256 SWAP1 POP SWAP2 SWAP1 POP JUMP JUMPDEST PUSH0 DUP2 SLOAD PUSH2 0x629 DUP2 PUSH2 0x5D1 JUMP JUMPDEST PUSH2 0x633 DUP2 DUP7 PUSH2 0x601 JUMP JUMPDEST SWAP5 POP PUSH1 0x1 DUP3 AND PUSH0 DUP2 EQ PUSH2 0x64D JUMPI PUSH1 0x1 DUP2 EQ PUSH2 0x662 JUMPI PUSH2 0x694 JUMP JUMPDEST PUSH1 0xFF NOT DUP4 AND DUP7 MSTORE DUP2 ISZERO ISZERO DUP3 MUL DUP7 ADD SWAP4 POP PUSH2 0x694 JUMP JUMPDEST PUSH2 0x66B DUP6 PUSH2 0x60B JUMP JUMPDEST PUSH0 JUMPDEST DUP4 DUP2 LT ISZERO PUSH2 0x68C JUMPI DUP2 SLOAD DUP2 DUP10 ADD MSTORE PUSH1 0x1 DUP3 ADD SWAP2 POP PUSH1 0x20 DUP2 ADD SWAP1 POP PUSH2 0x66D JUMP JUMPDEST DUP4 DUP9 ADD SWAP6 POP POP POP JUMPDEST POP POP POP SWAP3 SWAP2 POP POP JUMP JUMPDEST PUSH0 PUSH2 0x6A8 DUP3 DUP5 PUSH2 0x61D JUMP JUMPDEST SWAP2 POP DUP2 SWAP1 POP SWAP3 SWAP2 POP POP JUMP JUMPDEST PUSH0 DUP2 MLOAD SWAP1 POP SWAP2 SWAP1 POP JUMP JUMPDEST PUSH32 0x4E487B7100000000000000000000000000000000000000000000000000000000 PUSH0 MSTORE PUSH1 0x41 PUSH1 0x4 MSTORE PUSH1 0x24 PUSH0 REVERT JUMPDEST PUSH0 PUSH1 0x20 PUSH1 0x1F DUP4 ADD DIV SWAP1 POP SWAP2 SWAP1 POP JUMP JUMPDEST PUSH0 DUP3 DUP3 SHL SWAP1 POP SWAP3 SWAP2 POP POP JUMP JUMPDEST PUSH0 PUSH1 0x8 DUP4 MUL PUSH2 0x734 PUSH32 0xFFFFFFFFFFFFFFFFFFFFFFFFFFFFFFFFFFFFFFFFFFFFFFFFFFFFFFFFFFFFFFFF DUP3 PUSH2 0x6F9 JUMP JUMPDEST PUSH2 0x73E DUP7 DUP4 PUSH2 0x6F9 JUMP JUMPDEST SWAP6 POP DUP1 NOT DUP5 AND SWAP4 POP DUP1 DUP7 AND DUP5 OR SWAP3 POP POP POP SWAP4 SWAP3 POP POP POP JUMP JUMPDEST PUSH0 DUP2 SWAP1 POP SWAP2 SWAP1 POP JUMP JUMPDEST PUSH0 DUP2 SWAP1 POP SWAP2 SWAP1 POP JUMP JUMPDEST PUSH0 PUSH2 0x782 PUSH2 0x77D PUSH2 0x778 DUP5 PUSH2 0x756 JUMP JUMPDEST PUSH2 0x75F JUMP JUMPDEST PUSH2 0x756 JUMP JUMPDEST SWAP1 POP SWAP2 SWAP1 POP JUMP JUMPDEST PUSH0 DUP2 SWAP1 POP SWAP2 SWAP1 POP JUMP JUMPDEST PUSH2 0x79B DUP4 PUSH2 0x768 JUMP JUMPDEST PUSH2 0x7AF PUSH2 0x7A7 DUP3 PUSH2 0x789 JUMP JUMPDEST DUP5 DUP5 SLOAD PUSH2 0x705 JUMP JUMPDEST DUP3 SSTORE POP POP POP POP JUMP JUMPDEST PUSH0 PUSH0 SWAP1 POP SWAP1 JUMP JUMPDEST PUSH2 0x7C6 PUSH2 0x7B7 JUMP JUMPDEST PUSH2 0x7D1 DUP2 DUP5 DUP5 PUSH2 0x792 JUMP JUMPDEST POP POP POP JUMP JUMPDEST JUMPDEST DUP2 DUP2 LT ISZERO PUSH2 0x7F4 JUMPI PUSH2 0x7E9 PUSH0 DUP3 PUSH2 0x7BE JUMP JUMPDEST PUSH1 0x1 DUP2 ADD SWAP1 POP PUSH2 0x7D7 JUMP JUMPDEST POP POP JUMP JUMPDEST PUSH1 0x1F DUP3 GT ISZERO PUSH2 0x839 JUMPI PUSH2 0x80A DUP2 PUSH2 0x60B JUMP JUMPDEST PUSH2 0x813 DUP5 PUSH2 0x6EA JUMP JUMPDEST DUP2 ADD PUSH1 0x20 DUP6 LT ISZERO PUSH2 0x822 JUMPI DUP2 SWAP1 POP JUMPDEST PUSH2 0x836 PUSH2 0x82E DUP6 PUSH2 0x6EA JUMP JUMPDEST DUP4 ADD DUP3 PUSH2 0x7D6 JUMP JUMPDEST POP POP JUMPDEST POP POP POP JUMP JUMPDEST PUSH0 DUP3 DUP3 SHR SWAP1 POP SWAP3 SWAP2 POP POP JUMP JUMPDEST PUSH0 PUSH2 0x859 PUSH0 NOT DUP5 PUSH1 0x8 MUL PUSH2 0x83E JUMP JUMPDEST NOT DUP1 DUP4 AND SWAP2 POP POP SWAP3 SWAP2 POP POP JUMP JUMPDEST PUSH0 PUSH2 0x871 DUP4 DUP4 PUSH2 0x84A JUMP JUMPDEST SWAP2 POP DUP3 PUSH1 0x2 MUL DUP3 OR SWAP1 POP SWAP3 SWAP2 POP POP JUMP JUMPDEST PUSH2 0x88A DUP3 PUSH2 0x6B3 JUMP JUMPDEST PUSH8 0xFFFFFFFFFFFFFFFF DUP2 GT ISZERO PUSH2 0x8A3 JUMPI PUSH2 0x8A2 PUSH2 0x6BD JUMP JUMPDEST JUMPDEST PUSH2 0x8AD DUP3 SLOAD PUSH2 0x5D1 JUMP JUMPDEST PUSH2 0x8B8 DUP3 DUP3 DUP6 PUSH2 0x7F8 JUMP JUMPDEST PUSH0 PUSH1 0x20 SWAP1 POP PUSH1 0x1F DUP4 GT PUSH1 0x1 DUP2 EQ PUSH2 0x8E9 JUMPI PUSH0 DUP5 ISZERO PUSH2 0x8D7 JUMPI DUP3 DUP8 ADD MLOAD SWAP1 POP JUMPDEST PUSH2 0x8E1 DUP6 DUP3 PUSH2 0x866 JUMP JUMPDEST DUP7 SSTORE POP PUSH2 0x948 JUMP JUMPDEST PUSH1 0x1F NOT DUP5 AND PUSH2 0x8F7 DUP7 PUSH2 0x60B JUMP JUMPDEST PUSH0 JUMPDEST DUP3 DUP2 LT ISZERO PUSH2 0x91E JUMPI DUP5 DUP10 ADD MLOAD DUP3 SSTORE PUSH1 0x1 DUP3 ADD SWAP2 POP PUSH1 0x20 DUP6 ADD SWAP5 POP PUSH1 0x20 DUP2 ADD SWAP1 POP PUSH2 0x8F9 JUMP JUMPDEST DUP7 DUP4 LT ISZERO PUSH2 0x93B JUMPI DUP5 DUP10 ADD MLOAD PUSH2 0x937 PUSH1 0x1F DUP10 AND DUP3 PUSH2 0x84A JUMP JUMPDEST DUP4 SSTORE POP JUMPDEST PUSH1 0x1 PUSH1 0x2 DUP9 MUL ADD DUP9 SSTORE POP POP POP JUMPDEST POP POP POP POP POP POP JUMP JUMPDEST PUSH2 0x787 DUP1 PUSH2 0x95D PUSH0 CODECOPY PUSH0 RETURN INVALID PUSH1 0x80 PUSH1 0x40 MSTORE CALLVALUE DUP1 ISZERO PUSH2 0xF JUMPI PUSH0 PUSH0 REVERT JUMPDEST POP PUSH1 0x4 CALLDATASIZE LT PUSH2 0x34 JUMPI PUSH0 CALLDATALOAD PUSH1 0xE0 SHR DUP1 PUSH4 0xCBC513A EQ PUSH2 0x38 JUMPI DUP1 PUSH4 0xCB159DFE EQ PUSH2 0x68 JUMPI JUMPDEST PUSH0 PUSH0 REVERT JUMPDEST PUSH2 0x52 PUSH1 0x4 DUP1 CALLDATASIZE SUB DUP2 ADD SWAP1 PUSH2 0x4D SWAP2 SWAP1 PUSH2 0x2E3 JUMP JUMPDEST PUSH2 0x98 JUMP JUMPDEST PUSH1 0x40 MLOAD PUSH2 0x5F SWAP2 SWAP1 PUSH2 0x37E JUMP JUMPDEST PUSH1 0x40 MLOAD DUP1 SWAP2 SUB SWAP1 RETURN JUMPDEST PUSH2 0x82 PUSH1 0x4 DUP1 CALLDATASIZE SUB DUP2 ADD SWAP1 PUSH2 0x7D SWAP2 SWAP1 PUSH2 0x3FF JUMP JUMPDEST PUSH2 0x164 JUMP JUMPDEST PUSH1 0x40 MLOAD PUSH2 0x8F SWAP2 SWAP1 PUSH2 0x459 JUMP JUMPDEST PUSH1 0x40 MLOAD DUP1 SWAP2 SUB SWAP1 RETURN JUMPDEST PUSH1 0x60 PUSH0 PUSH1 0x40 MLOAD DUP1 PUSH1 0x20 ADD PUSH1 0x40 MSTORE DUP1 PUSH0 DUP2 MSTORE POP SWAP1 POP PUSH0 PUSH0 SWAP1 POP JUMPDEST PUSH0 DUP1 SLOAD SWAP1 POP DUP2 LT ISZERO PUSH2 0x15A JUMPI JUMPDEST PUSH0 DUP2 DUP2 SLOAD DUP2 LT PUSH2 0xD1 JUMPI PUSH2 0xD0 PUSH2 0x472 JUMP JUMPDEST JUMPDEST SWAP1 PUSH0 MSTORE PUSH1 0x20 PUSH0 KECCAK256 ADD SLOAD DUP5 LT PUSH2 0x14D JUMPI PUSH0 DUP2 DUP2 SLOAD DUP2 LT PUSH2 0xF3 JUMPI PUSH2 0xF2 PUSH2 0x472 JUMP JUMPDEST JUMPDEST SWAP1 PUSH0 MSTORE PUSH1 0x20 PUSH0 KECCAK256 ADD SLOAD DUP5 PUSH2 0x107 SWAP2 SWAP1 PUSH2 0x4CC JUMP JUMPDEST SWAP4 POP DUP2 PUSH1 0x1 DUP3 DUP2 SLOAD DUP2 LT PUSH2 0x11E JUMPI PUSH2 0x11D PUSH2 0x472 JUMP JUMPDEST JUMPDEST SWAP1 PUSH0 MSTORE PUSH1 0x20 PUSH0 KECCAK256 ADD PUSH1 0x40 MLOAD PUSH1 0x20 ADD PUSH2 0x137 SWAP3 SWAP2 SWAP1 PUSH2 0x628 JUMP JUMPDEST PUSH1 0x40 MLOAD PUSH1 0x20 DUP2 DUP4 SUB SUB DUP2 MSTORE SWAP1 PUSH1 0x40 MSTORE SWAP2 POP PUSH2 0xBE JUMP JUMPDEST DUP1 DUP1 PUSH1 0x1 ADD SWAP2 POP POP PUSH2 0xB1 JUMP JUMPDEST POP DUP1 SWAP2 POP POP SWAP2 SWAP1 POP JUMP JUMPDEST PUSH0 PUSH0 PUSH0 SWAP1 POP PUSH0 PUSH0 SWAP1 POP CALLDATASIZE PUSH0 DUP7 DUP7 SWAP2 POP SWAP2 POP JUMPDEST DUP2 DUP2 SWAP1 POP DUP4 LT ISZERO PUSH2 0x29B JUMPI DUP2 DUP2 SWAP1 POP PUSH1 0x1 DUP5 PUSH2 0x192 SWAP2 SWAP1 PUSH2 0x64B JUMP JUMPDEST LT DUP1 ISZERO PUSH2 0x1DA JUMPI POP PUSH0 PUSH1 0x2 DUP4 DUP4 DUP7 SWAP1 PUSH1 0x2 DUP9 PUSH2 0x1AE SWAP2 SWAP1 PUSH2 0x64B JUMP JUMPDEST SWAP3 PUSH2 0x1BB SWAP4 SWAP3 SWAP2 SWAP1 PUSH2 0x686 JUMP JUMPDEST PUSH1 0x40 MLOAD PUSH2 0x1C9 SWAP3 SWAP2 SWAP1 PUSH2 0x6F2 JUMP JUMPDEST SWAP1 DUP2 MSTORE PUSH1 0x20 ADD PUSH1 0x40 MLOAD DUP1 SWAP2 SUB SWAP1 KECCAK256 SLOAD GT JUMPDEST ISZERO PUSH2 0x23D JUMPI PUSH1 0x2 DUP3 DUP3 DUP6 SWAP1 PUSH1 0x2 DUP8 PUSH2 0x1F2 SWAP2 SWAP1 PUSH2 0x64B JUMP JUMPDEST SWAP3 PUSH2 0x1FF SWAP4 SWAP3 SWAP2 SWAP1 PUSH2 0x686 JUMP JUMPDEST PUSH1 0x40 MLOAD PUSH2 0x20D SWAP3 SWAP2 SWAP1 PUSH2 0x6F2 JUMP JUMPDEST SWAP1 DUP2 MSTORE PUSH1 0x20 ADD PUSH1 0x40 MLOAD DUP1 SWAP2 SUB SWAP1 KECCAK256 SLOAD DUP5 PUSH2 0x227 SWAP2 SWAP1 PUSH2 0x64B JUMP JUMPDEST SWAP4 POP PUSH1 0x2 DUP4 PUSH2 0x236 SWAP2 SWAP1 PUSH2 0x64B JUMP JUMPDEST SWAP3 POP PUSH2 0x296 JUMP JUMPDEST PUSH1 0x2 DUP3 DUP3 DUP6 SWAP1 PUSH1 0x1 DUP8 PUSH2 0x250 SWAP2 SWAP1 PUSH2 0x64B JUMP JUMPDEST SWAP3 PUSH2 0x25D SWAP4 SWAP3 SWAP2 SWAP1 PUSH2 0x686 JUMP JUMPDEST PUSH1 0x40 MLOAD PUSH2 0x26B SWAP3 SWAP2 SWAP1 PUSH2 0x6F2 JUMP JUMPDEST SWAP1 DUP2 MSTORE PUSH1 0x20 ADD PUSH1 0x40 MLOAD DUP1 SWAP2 SUB SWAP1 KECCAK256 SLOAD DUP5 PUSH2 0x285 SWAP2 SWAP1 PUSH2 0x64B JUMP JUMPDEST SWAP4 POP DUP3 DUP1 PUSH2 0x292 SWAP1 PUSH2 0x70A JUMP JUMPDEST SWAP4 POP POP JUMPDEST PUSH2 0x176 JUMP JUMPDEST DUP4 SWAP5 POP POP POP POP POP SWAP3 SWAP2 POP POP JUMP JUMPDEST PUSH0 PUSH0 REVERT JUMPDEST PUSH0 PUSH0 REVERT JUMPDEST PUSH0 DUP2 SWAP1 POP SWAP2 SWAP1 POP JUMP JUMPDEST PUSH2 0x2C2 DUP2 PUSH2 0x2B0 JUMP JUMPDEST DUP2 EQ PUSH2 0x2CC JUMPI PUSH0 PUSH0 REVERT JUMPDEST POP JUMP JUMPDEST PUSH0 DUP2 CALLDATALOAD SWAP1 POP PUSH2 0x2DD DUP2 PUSH2 0x2B9 JUMP JUMPDEST SWAP3 SWAP2 POP POP JUMP JUMPDEST PUSH0 PUSH1 0x20 DUP3 DUP5 SUB SLT ISZERO PUSH2 0x2F8 JUMPI PUSH2 0x2F7 PUSH2 0x2A8 JUMP JUMPDEST JUMPDEST PUSH0 PUSH2 0x305 DUP5 DUP3 DUP6 ADD PUSH2 0x2CF JUMP JUMPDEST SWAP2 POP POP SWAP3 SWAP2 POP POP JUMP JUMPDEST PUSH0 DUP2 MLOAD SWAP1 POP SWAP2 SWAP1 POP JUMP JUMPDEST PUSH0 DUP3 DUP3 MSTORE PUSH1 0x20 DUP3 ADD SWAP1 POP SWAP3 SWAP2 POP POP JUMP JUMPDEST DUP3 DUP2 DUP4 MCOPY PUSH0 DUP4 DUP4 ADD MSTORE POP POP POP JUMP JUMPDEST PUSH0 PUSH1 0x1F NOT PUSH1 0x1F DUP4 ADD AND SWAP1 POP SWAP2 SWAP1 POP JUMP JUMPDEST PUSH0 PUSH2 0x350 DUP3 PUSH2 0x30E JUMP JUMPDEST PUSH2 0x35A DUP2 DUP6 PUSH2 0x318 JUMP JUMPDEST SWAP4 POP PUSH2 0x36A DUP2 DUP6 PUSH1 0x20 DUP7 ADD PUSH2 0x328 JUMP JUMPDEST PUSH2 0x373 DUP2 PUSH2 0x336 JUMP JUMPDEST DUP5 ADD SWAP2 POP POP SWAP3 SWAP2 POP POP JUMP JUMPDEST PUSH0 PUSH1 0x20 DUP3 ADD SWAP1 POP DUP2 DUP2 SUB PUSH0 DUP4 ADD MSTORE PUSH2 0x396 DUP2 DUP5 PUSH2 0x346 JUMP JUMPDEST SWAP1 POP SWAP3 SWAP2 POP POP JUMP JUMPDEST PUSH0 PUSH0 REVERT JUMPDEST PUSH0 PUSH0 REVERT JUMPDEST PUSH0 PUSH0 REVERT JUMPDEST PUSH0 PUSH0 DUP4 PUSH1 0x1F DUP5 ADD SLT PUSH2 0x3BF JUMPI PUSH2 0x3BE PUSH2 0x39E JUMP JUMPDEST JUMPDEST DUP3 CALLDATALOAD SWAP1 POP PUSH8 0xFFFFFFFFFFFFFFFF DUP2 GT ISZERO PUSH2 0x3DC JUMPI PUSH2 0x3DB PUSH2 0x3A2 JUMP JUMPDEST JUMPDEST PUSH1 0x20 DUP4 ADD SWAP2 POP DUP4 PUSH1 0x1 DUP3 MUL DUP4 ADD GT ISZERO PUSH2 0x3F8 JUMPI PUSH2 0x3F7 PUSH2 0x3A6 JUMP JUMPDEST JUMPDEST SWAP3 POP SWAP3 SWAP1 POP JUMP JUMPDEST PUSH0 PUSH0 PUSH1 0x20 DUP4 DUP6 SUB SLT ISZERO PUSH2 0x415 JUMPI PUSH2 0x414 PUSH2 0x2A8 JUMP JUMPDEST JUMPDEST PUSH0 DUP4 ADD CALLDATALOAD PUSH8 0xFFFFFFFFFFFFFFFF DUP2 GT ISZERO PUSH2 0x432 JUMPI PUSH2 0x431 PUSH2 0x2AC JUMP JUMPDEST JUMPDEST PUSH2 0x43E DUP6 DUP3 DUP7 ADD PUSH2 0x3AA JUMP JUMPDEST SWAP3 POP SWAP3 POP POP SWAP3 POP SWAP3 SWAP1 POP JUMP JUMPDEST PUSH2 0x453 DUP2 PUSH2 0x2B0 JUMP JUMPDEST DUP3 MSTORE POP POP JUMP JUMPDEST PUSH0 PUSH1 0x20 DUP3 ADD SWAP1 POP PUSH2 0x46C PUSH0 DUP4 ADD DUP5 PUSH2 0x44A JUMP JUMPDEST SWAP3 SWAP2 POP POP JUMP JUMPDEST PUSH32 0x4E487B7100000000000000000000000000000000000000000000000000000000 PUSH0 MSTORE PUSH1 0x32 PUSH1 0x4 MSTORE PUSH1 0x24 PUSH0 REVERT JUMPDEST PUSH32 0x4E487B7100000000000000000000000000000000000000000000000000000000 PUSH0 MSTORE PUSH1 0x11 PUSH1 0x4 MSTORE PUSH1 0x24 PUSH0 REVERT JUMPDEST PUSH0 PUSH2 0x4D6 DUP3 PUSH2 0x2B0 JUMP JUMPDEST SWAP2 POP PUSH2 0x4E1 DUP4 PUSH2 0x2B0 JUMP JUMPDEST SWAP3 POP DUP3 DUP3 SUB SWAP1 POP DUP2 DUP2 GT ISZERO PUSH2 0x4F9 JUMPI PUSH2 0x4F8 PUSH2 0x49F JUMP JUMPDEST JUMPDEST SWAP3 SWAP2 POP POP JUMP JUMPDEST PUSH0 DUP2 SWAP1 POP SWAP3 SWAP2 POP POP JUMP JUMPDEST PUSH0 PUSH2 0x513 DUP3 PUSH2 0x30E JUMP JUMPDEST PUSH2 0x51D DUP2 DUP6 PUSH2 0x4FF JUMP JUMPDEST SWAP4 POP PUSH2 0x52D DUP2 DUP6 PUSH1 0x20 DUP7 ADD PUSH2 0x328 JUMP JUMPDEST DUP1 DUP5 ADD SWAP2 POP POP SWAP3 SWAP2 POP POP JUMP JUMPDEST PUSH32 0x4E487B7100000000000000000000000000000000000000000000000000000000 PUSH0 MSTORE PUSH1 0x22 PUSH1 0x4 MSTORE PUSH1 0x24 PUSH0 REVERT JUMPDEST PUSH0 PUSH1 0x2 DUP3 DIV SWAP1 POP PUSH1 0x1 DUP3 AND DUP1 PUSH2 0x57D JUMPI PUSH1 0x7F DUP3 AND SWAP2 POP JUMPDEST PUSH1 0x20 DUP3 LT DUP2 SUB PUSH2 0x590 JUMPI PUSH2 0x58F PUSH2 0x539 JUMP JUMPDEST JUMPDEST POP SWAP2 SWAP1 POP JUMP JUMPDEST PUSH0 DUP2 SWAP1 POP DUP2 PUSH0 MSTORE PUSH1 0x20 PUSH0 KECCAK256 SWAP1 POP SWAP2 SWAP1 POP JUMP JUMPDEST PUSH0 DUP2 SLOAD PUSH2 0x5B4 DUP2 PUSH2 0x566 JUMP JUMPDEST PUSH2 0x5BE DUP2 DUP7 PUSH2 0x4FF JUMP JUMPDEST SWAP5 POP PUSH1 0x1 DUP3 AND PUSH0 DUP2 EQ PUSH2 0x5D8 JUMPI PUSH1 0x1 DUP2 EQ PUSH2 0x5ED JUMPI PUSH2 0x61F JUMP JUMPDEST PUSH1 0xFF NOT DUP4 AND DUP7 MSTORE DUP2 ISZERO ISZERO DUP3 MUL DUP7 ADD SWAP4 POP PUSH2 0x61F JUMP JUMPDEST PUSH2 0x5F6 DUP6 PUSH2 0x596 JUMP JUMPDEST PUSH0 JUMPDEST DUP4 DUP2 LT ISZERO PUSH2 0x617 JUMPI DUP2 SLOAD DUP2 DUP10 ADD MSTORE PUSH1 0x1 DUP3 ADD SWAP2 POP PUSH1 0x20 DUP2 ADD SWAP1 POP PUSH2 0x5F8 JUMP JUMPDEST DUP4 DUP9 ADD SWAP6 POP POP POP JUMPDEST POP POP POP SWAP3 SWAP2 POP POP JUMP JUMPDEST PUSH0 PUSH2 0x633 DUP3 DUP6 PUSH2 0x509 JUMP JUMPDEST SWAP2 POP PUSH2 0x63F DUP3 DUP5 PUSH2 0x5A8 JUMP JUMPDEST SWAP2 POP DUP2 SWAP1 POP SWAP4 SWAP3 POP POP POP JUMP JUMPDEST PUSH0 PUSH2 0x655 DUP3 PUSH2 0x2B0 JUMP JUMPDEST SWAP2 POP PUSH2 0x660 DUP4 PUSH2 0x2B0 JUMP JUMPDEST SWAP3 POP DUP3 DUP3 ADD SWAP1 POP DUP1 DUP3 GT ISZERO PUSH2 0x678 JUMPI PUSH2 0x677 PUSH2 0x49F JUMP JUMPDEST JUMPDEST SWAP3 SWAP2 POP POP JUMP JUMPDEST PUSH0 PUSH0 REVERT JUMPDEST PUSH0 PUSH0 REVERT JUMPDEST PUSH0 PUSH0 DUP6 DUP6 GT ISZERO PUSH2 0x699 JUMPI PUSH2 0x698 PUSH2 0x67E JUMP JUMPDEST JUMPDEST DUP4 DUP7 GT ISZERO PUSH2 0x6AA JUMPI PUSH2 0x6A9 PUSH2 0x682 JUMP JUMPDEST JUMPDEST PUSH1 0x1 DUP6 MUL DUP4 ADD SWAP2 POP DUP5 DUP7 SUB SWAP1 POP SWAP5 POP SWAP5 SWAP3 POP POP POP JUMP JUMPDEST DUP3 DUP2 DUP4 CALLDATACOPY PUSH0 DUP4 DUP4 ADD MSTORE POP POP POP JUMP JUMPDEST PUSH0 PUSH2 0x6D9 DUP4 DUP6 PUSH2 0x4FF JUMP JUMPDEST SWAP4 POP PUSH2 0x6E6 DUP4 DUP6 DUP5 PUSH2 0x6C0 JUMP JUMPDEST DUP3 DUP5 ADD SWAP1 POP SWAP4 SWAP3 POP POP POP JUMP JUMPDEST PUSH0 PUSH2 0x6FE DUP3 DUP5 DUP7 PUSH2 0x6CE JUMP JUMPDEST SWAP2 POP DUP2 SWAP1 POP SWAP4 SWAP3 POP POP POP JUMP JUMPDEST PUSH0 PUSH2 0x714 DUP3 PUSH2 0x2B0 JUMP JUMPDEST SWAP2 POP PUSH32 0xFFFFFFFFFFFFFFFFFFFFFFFFFFFFFFFFFFFFFFFFFFFFFFFFFFFFFFFFFFFFFFFF DUP3 SUB PUSH2 0x746 JUMPI PUSH2 0x745 PUSH2 0x49F JUMP JUMPDEST JUMPDEST PUSH1 0x1 DUP3 ADD SWAP1 POP SWAP2 SWAP1 POP JUMP INVALID LOG2 PUSH5 0x6970667358 0x22 SLT KECCAK256 JUMPI ISZERO EXTSTATICCALL CALLDATASIZE 0xDC PUSH1 0xEA 0x2F BLOBHASH 0xD6 PUSH10 0xD30E198950120016479E SHR 0x2C ISZERO 0xBA GASLIMIT DUP12 PUSH9 0x78600F1964736F6C63 NUMBER STOP ADDMOD 0x1E STOP CALLER "
				},
				"gasEstimates": {
					"creation": {
						"codeDepositCost": "385400",
						"executionCost": "infinite",
						"totalCost": "infinite"
					},
					"external": {
						"intToRoman(uint256)": "infinite",
						"romanToInt(string)": "infinite"
					}
				},
				"methodIdentifiers": {
					"intToRoman(uint256)": "0cbc513a",
					"romanToInt(string)": "cb159dfe"
				}
			},
			"storageLayout": {
				"storage": [
					{
						"astId": 18,
						"contract": "task1/roman.sol:Roman",
						"label": "a",
						"offset": 0,
						"slot": "0",
						"type": "t_array(t_uint256)dyn_storage"
					},
					{
						"astId": 35,
						"contract": "task1/roman.sol:Roman",
						"label": "b",
						"offset": 0,
						"slot": "1",
						"type": "t_array(t_string_storage)dyn_storage"
					},
					{
						"astId": 90,
						"contract": "task1/roman.sol:Roman",
						"label": "romanToIntMap",
						"offset": 0,
						"slot": "2",
						"type": "t_mapping(t_string_memory_ptr,t_uint256)"
					}
				],
				"types": {
					"t_array(t_string_storage)dyn_storage": {
						"base": "t_string_storage",
						"encoding": "dynamic_array",
						"label": "string[]",
						"numberOfBytes": "32"
					},
					"t_array(t_uint256)dyn_storage": {
						"base": "t_uint256",
						"encoding": "dynamic_array",
						"label": "uint256[]",
						"numberOfBytes": "32"
					},
					"t_mapping(t_string_memory_ptr,t_uint256)": {
						"encoding": "mapping",
						"key": "t_string_memory_ptr",
						"label": "mapping(string => uint256)",
						"numberOfBytes": "32",
						"value": "t_uint256"
					},
					"t_string_memory_ptr": {
						"encoding": "bytes",
						"label": "string",
						"numberOfBytes": "32"
					},
					"t_string_storage": {
						"encoding": "bytes",
						"label": "string",
						"numberOfBytes": "32"
					},
					"t_uint256": {
						"encoding": "inplace",
						"label": "uint256",
						"numberOfBytes": "32"
					}
				}
			},
			"userdoc": {
				"kind": "user",
				"methods": {},
				"version": 1
			}
		}
	}
}