{
	"data": {
		"bytecode": {
			"linkReferences": {},
			"object": "6080604052348015600e575f5ffd5b5061059a8061001c5f395ff3fe608060405234801561000f575f5ffd5b5060043610610029575f3560e01c8063088b9bf61461002d575b5f5ffd5b61004760048036038101906100429190610305565b61005d565b6040516100549190610443565b60405180910390f35b60605f83839050868690506100729190610490565b67ffffffffffffffff81111561008b5761008a6104c3565b5b6040519080825280602002602001820160405280156100b95781602001602082028036833780820191505090505b5090505f5f90505f5f90505f5f90505b88889050831080156100dd57508686905082105b156101c9578686838181106100f5576100f46104f0565b5b9050602002013589898581811061010f5761010e6104f0565b5b90506020020135101561017257888884806101299061051d565b955081811061013b5761013a6104f0565b5b9050602002013584828061014e9061051d565b935081518110610161576101606104f0565b5b6020026020010181815250506101c4565b8686838061017f9061051d565b9450818110610191576101906104f0565b5b905060200201358482806101a49061051d565b9350815181106101b7576101b66104f0565b5b6020026020010181815250505b6100c9565b5b8888905083101561022b57888884806101e29061051d565b95508181106101f4576101f36104f0565b5b905060200201358482806102079061051d565b93508151811061021a576102196104f0565b5b6020026020010181815250506101ca565b5b8686905082101561028d57868683806102449061051d565b9450818110610256576102556104f0565b5b905060200201358482806102699061051d565b93508151811061027c5761027b6104f0565b5b60200260200101818152505061022c565b83945050505050949350505050565b5f5ffd5b5f5ffd5b5f5ffd5b5f5ffd5b5f5ffd5b5f5f83601f8401126102c5576102c46102a4565b5b8235905067ffffffffffffffff8111156102e2576102e16102a8565b5b6020830191508360208202830111156102fe576102fd6102ac565b5b9250929050565b5f5f5f5f6040858703121561031d5761031c61029c565b5b5f85013567ffffffffffffffff81111561033a576103396102a0565b5b610346878288016102b0565b9450945050602085013567ffffffffffffffff811115610369576103686102a0565b5b610375878288016102b0565b925092505092959194509250565b5f81519050919050565b5f82825260208201905092915050565b5f819050602082019050919050565b5f819050919050565b6103be816103ac565b82525050565b5f6103cf83836103b5565b60208301905092915050565b5f602082019050919050565b5f6103f182610383565b6103fb818561038d565b93506104068361039d565b805f5b8381101561043657815161041d88826103c4565b9750610428836103db565b925050600181019050610409565b5085935050505092915050565b5f6020820190508181035f83015261045b81846103e7565b905092915050565b7f4e487b71000000000000000000000000000000000000000000000000000000005f52601160045260245ffd5b5f61049a826103ac565b91506104a5836103ac565b92508282019050808211156104bd576104bc610463565b5b92915050565b7f4e487b71000000000000000000000000000000000000000000000000000000005f52604160045260245ffd5b7f4e487b71000000000000000000000000000000000000000000000000000000005f52603260045260245ffd5b5f610527826103ac565b91507fffffffffffffffffffffffffffffffffffffffffffffffffffffffffffffffff820361055957610558610463565b5b60018201905091905056fea26469706673582212208585900095befe1ce72e946b37be9f93fe7569c9b3cc85aa26db9c7c5bf760e564736f6c634300081e0033",
			"opcodes": "PUSH1 0x80 PUSH1 0x40 MSTORE CALLVALUE DUP1 ISZERO PUSH1 0xE JUMPI PUSH0 PUSH0 REVERT JUMPDEST POP PUSH2 0x59A DUP1 PUSH2 0x1C PUSH0 CODECOPY PUSH0 RETURN INVALID PUSH1 0x80 PUSH1 0x40 MSTORE CALLVALUE DUP1 ISZERO PUSH2 0xF JUMPI PUSH0 PUSH0 REVERT JUMPDEST POP PUSH1 0x4 CALLDATASIZE LT PUSH2 0x29 JUMPI PUSH0 CALLDATALOAD PUSH1 0xE0 SHR DUP1 PUSH4 0x88B9BF6 EQ PUSH2 0x2D JUMPI JUMPDEST PUSH0 PUSH0 REVERT JUMPDEST PUSH2 0x47 PUSH1 0x4 DUP1 CALLDATASIZE SUB DUP2 ADD SWAP1 PUSH2 0x42 SWAP2 SWAP1 PUSH2 0x305 JUMP JUMPDEST PUSH2 0x5D JUMP JUMPDEST PUSH1 0x40 MLOAD PUSH2 0x54 SWAP2 SWAP1 PUSH2 0x443 JUMP JUMPDEST PUSH1 0x40 MLOAD DUP1 SWAP2 SUB SWAP1 RETURN JUMPDEST PUSH1 0x60 PUSH0 DUP4 DUP4 SWAP1 POP DUP7 DUP7 SWAP1 POP PUSH2 0x72 SWAP2 SWAP1 PUSH2 0x490 JUMP JUMPDEST PUSH8 0xFFFFFFFFFFFFFFFF DUP2 GT ISZERO PUSH2 0x8B JUMPI PUSH2 0x8A PUSH2 0x4C3 JUMP JUMPDEST JUMPDEST PUSH1 0x40 MLOAD SWAP1 DUP1 DUP3 MSTORE DUP1 PUSH1 0x20 MUL PUSH1 0x20 ADD DUP3 ADD PUSH1 0x40 MSTORE DUP1 ISZERO PUSH2 0xB9 JUMPI DUP2 PUSH1 0x20 ADD PUSH1 0x20 DUP3 MUL DUP1 CALLDATASIZE DUP4 CALLDATACOPY DUP1 DUP3 ADD SWAP2 POP POP SWAP1 POP JUMPDEST POP SWAP1 POP PUSH0 PUSH0 SWAP1 POP PUSH0 PUSH0 SWAP1 POP PUSH0 PUSH0 SWAP1 POP JUMPDEST DUP9 DUP9 SWAP1 POP DUP4 LT DUP1 ISZERO PUSH2 0xDD JUMPI POP DUP7 DUP7 SWAP1 POP DUP3 LT JUMPDEST ISZERO PUSH2 0x1C9 JUMPI DUP7 DUP7 DUP4 DUP2 DUP2 LT PUSH2 0xF5 JUMPI PUSH2 0xF4 PUSH2 0x4F0 JUMP JUMPDEST JUMPDEST SWAP1 POP PUSH1 0x20 MUL ADD CALLDATALOAD DUP10 DUP10 DUP6 DUP2 DUP2 LT PUSH2 0x10F JUMPI PUSH2 0x10E PUSH2 0x4F0 JUMP JUMPDEST JUMPDEST SWAP1 POP PUSH1 0x20 MUL ADD CALLDATALOAD LT ISZERO PUSH2 0x172 JUMPI DUP9 DUP9 DUP5 DUP1 PUSH2 0x129 SWAP1 PUSH2 0x51D JUMP JUMPDEST SWAP6 POP DUP2 DUP2 LT PUSH2 0x13B JUMPI PUSH2 0x13A PUSH2 0x4F0 JUMP JUMPDEST JUMPDEST SWAP1 POP PUSH1 0x20 MUL ADD CALLDATALOAD DUP5 DUP3 DUP1 PUSH2 0x14E SWAP1 PUSH2 0x51D JUMP JUMPDEST SWAP4 POP DUP2 MLOAD DUP2 LT PUSH2 0x161 JUMPI PUSH2 0x160 PUSH2 0x4F0 JUMP JUMPDEST JUMPDEST PUSH1 0x20 MUL PUSH1 0x20 ADD ADD DUP2 DUP2 MSTORE POP POP PUSH2 0x1C4 JUMP JUMPDEST DUP7 DUP7 DUP4 DUP1 PUSH2 0x17F SWAP1 PUSH2 0x51D JUMP JUMPDEST SWAP5 POP DUP2 DUP2 LT PUSH2 0x191 JUMPI PUSH2 0x190 PUSH2 0x4F0 JUMP JUMPDEST JUMPDEST SWAP1 POP PUSH1 0x20 MUL ADD CALLDATALOAD DUP5 DUP3 DUP1 PUSH2 0x1A4 SWAP1 PUSH2 0x51D JUMP JUMPDEST SWAP4 POP DUP2 MLOAD DUP2 LT PUSH2 0x1B7 JUMPI PUSH2 0x1B6 PUSH2 0x4F0 JUMP JUMPDEST JUMPDEST PUSH1 0x20 MUL PUSH1 0x20 ADD ADD DUP2 DUP2 MSTORE POP POP JUMPDEST PUSH2 0xC9 JUMP JUMPDEST JUMPDEST DUP9 DUP9 SWAP1 POP DUP4 LT ISZERO PUSH2 0x22B JUMPI DUP9 DUP9 DUP5 DUP1 PUSH2 0x1E2 SWAP1 PUSH2 0x51D JUMP JUMPDEST SWAP6 POP DUP2 DUP2 LT PUSH2 0x1F4 JUMPI PUSH2 0x1F3 PUSH2 0x4F0 JUMP JUMPDEST JUMPDEST SWAP1 POP PUSH1 0x20 MUL ADD CALLDATALOAD DUP5 DUP3 DUP1 PUSH2 0x207 SWAP1 PUSH2 0x51D JUMP JUMPDEST SWAP4 POP DUP2 MLOAD DUP2 LT PUSH2 0x21A JUMPI PUSH2 0x219 PUSH2 0x4F0 JUMP JUMPDEST JUMPDEST PUSH1 0x20 MUL PUSH1 0x20 ADD ADD DUP2 DUP2 MSTORE POP POP PUSH2 0x1CA JUMP JUMPDEST JUMPDEST DUP7 DUP7 SWAP1 POP DUP3 LT ISZERO PUSH2 0x28D JUMPI DUP7 DUP7 DUP4 DUP1 PUSH2 0x244 SWAP1 PUSH2 0x51D JUMP JUMPDEST SWAP5 POP DUP2 DUP2 LT PUSH2 0x256 JUMPI PUSH2 0x255 PUSH2 0x4F0 JUMP JUMPDEST JUMPDEST SWAP1 POP PUSH1 0x20 MUL ADD CALLDATALOAD DUP5 DUP3 DUP1 PUSH2 0x269 SWAP1 PUSH2 0x51D JUMP JUMPDEST SWAP4 POP DUP2 MLOAD DUP2 LT PUSH2 0x27C JUMPI PUSH2 0x27B PUSH2 0x4F0 JUMP JUMPDEST JUMPDEST PUSH1 0x20 MUL PUSH1 0x20 ADD ADD DUP2 DUP2 MSTORE POP POP PUSH2 0x22C JUMP JUMPDEST DUP4 SWAP5 POP POP POP POP POP SWAP5 SWAP4 POP POP POP POP JUMP JUMPDEST PUSH0 PUSH0 REVERT JUMPDEST PUSH0 PUSH0 REVERT JUMPDEST PUSH0 PUSH0 REVERT JUMPDEST PUSH0 PUSH0 REVERT JUMPDEST PUSH0 PUSH0 REVERT JUMPDEST PUSH0 PUSH0 DUP4 PUSH1 0x1F DUP5 ADD SLT PUSH2 0x2C5 JUMPI PUSH2 0x2C4 PUSH2 0x2A4 JUMP JUMPDEST JUMPDEST DUP3 CALLDATALOAD SWAP1 POP PUSH8 0xFFFFFFFFFFFFFFFF DUP2 GT ISZERO PUSH2 0x2E2 JUMPI PUSH2 0x2E1 PUSH2 0x2A8 JUMP JUMPDEST JUMPDEST PUSH1 0x20 DUP4 ADD SWAP2 POP DUP4 PUSH1 0x20 DUP3 MUL DUP4 ADD GT ISZERO PUSH2 0x2FE JUMPI PUSH2 0x2FD PUSH2 0x2AC JUMP JUMPDEST JUMPDEST SWAP3 POP SWAP3 SWAP1 POP JUMP JUMPDEST PUSH0 PUSH0 PUSH0 PUSH0 PUSH1 0x40 DUP6 DUP8 SUB SLT ISZERO PUSH2 0x31D JUMPI PUSH2 0x31C PUSH2 0x29C JUMP JUMPDEST JUMPDEST PUSH0 DUP6 ADD CALLDATALOAD PUSH8 0xFFFFFFFFFFFFFFFF DUP2 GT ISZERO PUSH2 0x33A JUMPI PUSH2 0x339 PUSH2 0x2A0 JUMP JUMPDEST JUMPDEST PUSH2 0x346 DUP8 DUP3 DUP9 ADD PUSH2 0x2B0 JUMP JUMPDEST SWAP5 POP SWAP5 POP POP PUSH1 0x20 DUP6 ADD CALLDATALOAD PUSH8 0xFFFFFFFFFFFFFFFF DUP2 GT ISZERO PUSH2 0x369 JUMPI PUSH2 0x368 PUSH2 0x2A0 JUMP JUMPDEST JUMPDEST PUSH2 0x375 DUP8 DUP3 DUP9 ADD PUSH2 0x2B0 JUMP JUMPDEST SWAP3 POP SWAP3 POP POP SWAP3 SWAP6 SWAP2 SWAP5 POP SWAP3 POP JUMP JUMPDEST PUSH0 DUP2 MLOAD SWAP1 POP SWAP2 SWAP1 POP JUMP JUMPDEST PUSH0 DUP3 DUP3 MSTORE PUSH1 0x20 DUP3 ADD SWAP1 POP SWAP3 SWAP2 POP POP JUMP JUMPDEST PUSH0 DUP2 SWAP1 POP PUSH1 0x20 DUP3 ADD SWAP1 POP SWAP2 SWAP1 POP JUMP JUMPDEST PUSH0 DUP2 SWAP1 POP SWAP2 SWAP1 POP JUMP JUMPDEST PUSH2 0x3BE DUP2 PUSH2 0x3AC JUMP JUMPDEST DUP3 MSTORE POP POP JUMP JUMPDEST PUSH0 PUSH2 0x3CF DUP4 DUP4 PUSH2 0x3B5 JUMP JUMPDEST PUSH1 0x20 DUP4 ADD SWAP1 POP SWAP3 SWAP2 POP POP JUMP JUMPDEST PUSH0 PUSH1 0x20 DUP3 ADD SWAP1 POP SWAP2 SWAP1 POP JUMP JUMPDEST PUSH0 PUSH2 0x3F1 DUP3 PUSH2 0x383 JUMP JUMPDEST PUSH2 0x3FB DUP2 DUP6 PUSH2 0x38D JUMP JUMPDEST SWAP4 POP PUSH2 0x406 DUP4 PUSH2 0x39D JUMP JUMPDEST DUP1 PUSH0 JUMPDEST DUP4 DUP2 LT ISZERO PUSH2 0x436 JUMPI DUP2 MLOAD PUSH2 0x41D DUP9 DUP3 PUSH2 0x3C4 JUMP JUMPDEST SWAP8 POP PUSH2 0x428 DUP4 PUSH2 0x3DB JUMP JUMPDEST SWAP3 POP POP PUSH1 0x1 DUP2 ADD SWAP1 POP PUSH2 0x409 JUMP JUMPDEST POP DUP6 SWAP4 POP POP POP POP SWAP3 SWAP2 POP POP JUMP JUMPDEST PUSH0 PUSH1 0x20 DUP3 ADD SWAP1 POP DUP2 DUP2 SUB PUSH0 DUP4 ADD MSTORE PUSH2 0x45B DUP2 DUP5 PUSH2 0x3E7 JUMP JUMPDEST SWAP1 POP SWAP3 SWAP2 POP POP JUMP JUMPDEST PUSH32 0x4E487B7100000000000000000000000000000000000000000000000000000000 PUSH0 MSTORE PUSH1 0x11 PUSH1 0x4 MSTORE PUSH1 0x24 PUSH0 REVERT JUMPDEST PUSH0 PUSH2 0x49A DUP3 PUSH2 0x3AC JUMP JUMPDEST SWAP2 POP PUSH2 0x4A5 DUP4 PUSH2 0x3AC JUMP JUMPDEST SWAP3 POP DUP3 DUP3 ADD SWAP1 POP DUP1 DUP3 GT ISZERO PUSH2 0x4BD JUMPI PUSH2 0x4BC PUSH2 0x463 JUMP JUMPDEST JUMPDEST SWAP3 SWAP2 POP POP JUMP JUMPDEST PUSH32 0x4E487B7100000000000000000000000000000000000000000000000000000000 PUSH0 MSTORE PUSH1 0x41 PUSH1 0x4 MSTORE PUSH1 0x24 PUSH0 REVERT JUMPDEST PUSH32 0x4E487B7100000000000000000000000000000000000000000000000000000000 PUSH0 MSTORE PUSH1 0x32 PUSH1 0x4 MSTORE PUSH1 0x24 PUSH0 REVERT JUMPDEST PUSH0 PUSH2 0x527 DUP3 PUSH2 0x3AC JUMP JUMPDEST SWAP2 POP PUSH32 0xFFFFFFFFFFFFFFFFFFFFFFFFFFFFFFFFFFFFFFFFFFFFFFFFFFFFFFFFFFFFFFFF DUP3 SUB PUSH2 0x559 JUMPI PUSH2 0x558 PUSH2 0x463 JUMP JUMPDEST JUMPDEST PUSH1 0x1 DUP3 ADD SWAP1 POP SWAP2 SWAP1 POP JUMP INVALID LOG2 PUSH5 0x6970667358 0x22 SLT KECCAK256 DUP6 DUP6 SWAP1 STOP SWAP6 0xBE INVALID SHR SWAPN 0x2E SWAP5 PUSH12 0x37BE9F93FE7569C9B3CC85AA 0x26 0xDB SWAP13 PUSH29 0x5BF760E564736F6C634300081E00330000000000000000000000000000 "
		},
		"gasEstimates": {
			"creation": {
				"codeDepositCost": "286800",
				"executionCost": "322",
				"totalCost": "287122"
			},
			"external": {
				"merge(uint256[],uint256[])": "infinite"
			}
		},
		"methodIdentifiers": {
			"merge(uint256[],uint256[])": "088b9bf6"
		}
	},
	"abi": [
		{
			"inputs": [
				{
					"internalType": "uint256[]",
					"name": "arr1",
					"type": "uint256[]"
				},
				{
					"internalType": "uint256[]",
					"name": "arr2",
					"type": "uint256[]"
				}
			],
			"name": "merge",
			"outputs": [
				{
					"internalType": "uint256[]",
					"name": "",
					"type": "uint256[]"
				}
			],
			"stateMutability": "pure",
			"type": "function"
		}
	]
}