{
	"data": {
		"bytecode": {
			"linkReferences": {},
			"object": "6080604052348015600e575f5ffd5b50610a548061001c5f395ff3fe608060405234801561000f575f5ffd5b506004361061004a575f3560e01c80631945c2f31461004e578063805265e51461007e578063b9830ff1146100ae578063fc36e15b146100b8575b5f5ffd5b61006860048036038101906100639190610375565b6100d4565b6040516100759190610410565b60405180910390f35b6100986004803603810190610093919061055c565b61017a565b6040516100a591906105b2565b60405180910390f35b6100b66101a0565b005b6100d260048036038101906100cd919061055c565b61020c565b005b600181815481106100e3575f80fd5b905f5260205f20015f9150905080546100fb906105f8565b80601f0160208091040260200160405190810160405280929190818152602001828054610127906105f8565b80156101725780601f1061014957610100808354040283529160200191610172565b820191905f5260205f20905b81548152906001019060200180831161015557829003601f168201915b505050505081565b5f5f8260405161018a9190610662565b9081526020016040518091039020549050919050565b5f5f90505b6001805490508110156101fc575f5f600183815481106101c8576101c7610678565b5b905f5260205f20016040516101dd9190610737565b90815260200160405180910390208190555080806001019150506101a5565b5060015f61020a9190610298565b565b5f5f8260405161021c9190610662565b9081526020016040518091039020540361026357600181908060018154018082558091505060019003905f5260205f20015f90919091909150908161026191906108db565b505b5f816040516102729190610662565b90815260200160405180910390205f815480929190610290906109d7565b919050555050565b5080545f8255905f5260205f20908101906102b391906102b6565b50565b5b808211156102d5575f81816102cc91906102d9565b506001016102b7565b5090565b5080546102e5906105f8565b5f825580601f106102f65750610313565b601f0160209004905f5260205f20908101906103129190610316565b5b50565b5b8082111561032d575f815f905550600101610317565b5090565b5f604051905090565b5f5ffd5b5f5ffd5b5f819050919050565b61035481610342565b811461035e575f5ffd5b50565b5f8135905061036f8161034b565b92915050565b5f6020828403121561038a5761038961033a565b5b5f61039784828501610361565b91505092915050565b5f81519050919050565b5f82825260208201905092915050565b8281835e5f83830152505050565b5f601f19601f8301169050919050565b5f6103e2826103a0565b6103ec81856103aa565b93506103fc8185602086016103ba565b610405816103c8565b840191505092915050565b5f6020820190508181035f83015261042881846103d8565b905092915050565b5f5ffd5b5f5ffd5b7f4e487b71000000000000000000000000000000000000000000000000000000005f52604160045260245ffd5b61046e826103c8565b810181811067ffffffffffffffff8211171561048d5761048c610438565b5b80604052505050565b5f61049f610331565b90506104ab8282610465565b919050565b5f67ffffffffffffffff8211156104ca576104c9610438565b5b6104d3826103c8565b9050602081019050919050565b828183375f83830152505050565b5f6105006104fb846104b0565b610496565b90508281526020810184848401111561051c5761051b610434565b5b6105278482856104e0565b509392505050565b5f82601f83011261054357610542610430565b5b81356105538482602086016104ee565b91505092915050565b5f602082840312156105715761057061033a565b5b5f82013567ffffffffffffffff81111561058e5761058d61033e565b5b61059a8482850161052f565b91505092915050565b6105ac81610342565b82525050565b5f6020820190506105c55f8301846105a3565b92915050565b7f4e487b71000000000000000000000000000000000000000000000000000000005f52602260045260245ffd5b5f600282049050600182168061060f57607f821691505b602082108103610622576106216105cb565b5b50919050565b5f81905092915050565b5f61063c826103a0565b6106468185610628565b93506106568185602086016103ba565b80840191505092915050565b5f61066d8284610632565b915081905092915050565b7f4e487b71000000000000000000000000000000000000000000000000000000005f52603260045260245ffd5b5f819050815f5260205f209050919050565b5f81546106c3816105f8565b6106cd8186610628565b9450600182165f81146106e757600181146106fc5761072e565b60ff198316865281151582028601935061072e565b610705856106a5565b5f5b8381101561072657815481890152600182019150602081019050610707565b838801955050505b50505092915050565b5f61074282846106b7565b915081905092915050565b5f6020601f8301049050919050565b5f82821b905092915050565b5f600883026107977fffffffffffffffffffffffffffffffffffffffffffffffffffffffffffffffff8261075c565b6107a1868361075c565b95508019841693508086168417925050509392505050565b5f819050919050565b5f6107dc6107d76107d284610342565b6107b9565b610342565b9050919050565b5f819050919050565b6107f5836107c2565b610809610801826107e3565b848454610768565b825550505050565b5f5f905090565b610820610811565b61082b8184846107ec565b505050565b5b8181101561084e576108435f82610818565b600181019050610831565b5050565b601f82111561089357610864816106a5565b61086d8461074d565b8101602085101561087c578190505b6108906108888561074d565b830182610830565b50505b505050565b5f82821c905092915050565b5f6108b35f1984600802610898565b1980831691505092915050565b5f6108cb83836108a4565b9150826002028217905092915050565b6108e4826103a0565b67ffffffffffffffff8111156108fd576108fc610438565b5b61090782546105f8565b610912828285610852565b5f60209050601f831160018114610943575f8415610931578287015190505b61093b85826108c0565b8655506109a2565b601f198416610951866106a5565b5f5b8281101561097857848901518255600182019150602085019450602081019050610953565b868310156109955784890151610991601f8916826108a4565b8355505b6001600288020188555050505b505050505050565b7f4e487b71000000000000000000000000000000000000000000000000000000005f52601160045260245ffd5b5f6109e182610342565b91507fffffffffffffffffffffffffffffffffffffffffffffffffffffffffffffffff8203610a1357610a126109aa565b5b60018201905091905056fea26469706673582212205b28676567a17de7d443d4e712ef2863a502caf23ccb0dc8995d52b6120c0f1d64736f6c634300081e0033",
			"opcodes": "PUSH1 0x80 PUSH1 0x40 MSTORE CALLVALUE DUP1 ISZERO PUSH1 0xE JUMPI PUSH0 PUSH0 REVERT JUMPDEST POP PUSH2 0xA54 DUP1 PUSH2 0x1C PUSH0 CODECOPY PUSH0 RETURN INVALID PUSH1 0x80 PUSH1 0x40 MSTORE CALLVALUE DUP1 ISZERO PUSH2 0xF JUMPI PUSH0 PUSH0 REVERT JUMPDEST POP PUSH1 0x4 CALLDATASIZE LT PUSH2 0x4A JUMPI PUSH0 CALLDATALOAD PUSH1 0xE0 SHR DUP1 PUSH4 0x1945C2F3 EQ PUSH2 0x4E JUMPI DUP1 PUSH4 0x805265E5 EQ PUSH2 0x7E JUMPI DUP1 PUSH4 0xB9830FF1 EQ PUSH2 0xAE JUMPI DUP1 PUSH4 0xFC36E15B EQ PUSH2 0xB8 JUMPI JUMPDEST PUSH0 PUSH0 REVERT JUMPDEST PUSH2 0x68 PUSH1 0x4 DUP1 CALLDATASIZE SUB DUP2 ADD SWAP1 PUSH2 0x63 SWAP2 SWAP1 PUSH2 0x375 JUMP JUMPDEST PUSH2 0xD4 JUMP JUMPDEST PUSH1 0x40 MLOAD PUSH2 0x75 SWAP2 SWAP1 PUSH2 0x410 JUMP JUMPDEST PUSH1 0x40 MLOAD DUP1 SWAP2 SUB SWAP1 RETURN JUMPDEST PUSH2 0x98 PUSH1 0x4 DUP1 CALLDATASIZE SUB DUP2 ADD SWAP1 PUSH2 0x93 SWAP2 SWAP1 PUSH2 0x55C JUMP JUMPDEST PUSH2 0x17A JUMP JUMPDEST PUSH1 0x40 MLOAD PUSH2 0xA5 SWAP2 SWAP1 PUSH2 0x5B2 JUMP JUMPDEST PUSH1 0x40 MLOAD DUP1 SWAP2 SUB SWAP1 RETURN JUMPDEST PUSH2 0xB6 PUSH2 0x1A0 JUMP JUMPDEST STOP JUMPDEST PUSH2 0xD2 PUSH1 0x4 DUP1 CALLDATASIZE SUB DUP2 ADD SWAP1 PUSH2 0xCD SWAP2 SWAP1 PUSH2 0x55C JUMP JUMPDEST PUSH2 0x20C JUMP JUMPDEST STOP JUMPDEST PUSH1 0x1 DUP2 DUP2 SLOAD DUP2 LT PUSH2 0xE3 JUMPI PUSH0 DUP1 REVERT JUMPDEST SWAP1 PUSH0 MSTORE PUSH1 0x20 PUSH0 KECCAK256 ADD PUSH0 SWAP2 POP SWAP1 POP DUP1 SLOAD PUSH2 0xFB SWAP1 PUSH2 0x5F8 JUMP JUMPDEST DUP1 PUSH1 0x1F ADD PUSH1 0x20 DUP1 SWAP2 DIV MUL PUSH1 0x20 ADD PUSH1 0x40 MLOAD SWAP1 DUP2 ADD PUSH1 0x40 MSTORE DUP1 SWAP3 SWAP2 SWAP1 DUP2 DUP2 MSTORE PUSH1 0x20 ADD DUP3 DUP1 SLOAD PUSH2 0x127 SWAP1 PUSH2 0x5F8 JUMP JUMPDEST DUP1 ISZERO PUSH2 0x172 JUMPI DUP1 PUSH1 0x1F LT PUSH2 0x149 JUMPI PUSH2 0x100 DUP1 DUP4 SLOAD DIV MUL DUP4 MSTORE SWAP2 PUSH1 0x20 ADD SWAP2 PUSH2 0x172 JUMP JUMPDEST DUP3 ADD SWAP2 SWAP1 PUSH0 MSTORE PUSH1 0x20 PUSH0 KECCAK256 SWAP1 JUMPDEST DUP2 SLOAD DUP2 MSTORE SWAP1 PUSH1 0x1 ADD SWAP1 PUSH1 0x20 ADD DUP1 DUP4 GT PUSH2 0x155 JUMPI DUP3 SWAP1 SUB PUSH1 0x1F AND DUP3 ADD SWAP2 JUMPDEST POP POP POP POP POP DUP2 JUMP JUMPDEST PUSH0 PUSH0 DUP3 PUSH1 0x40 MLOAD PUSH2 0x18A SWAP2 SWAP1 PUSH2 0x662 JUMP JUMPDEST SWAP1 DUP2 MSTORE PUSH1 0x20 ADD PUSH1 0x40 MLOAD DUP1 SWAP2 SUB SWAP1 KECCAK256 SLOAD SWAP1 POP SWAP2 SWAP1 POP JUMP JUMPDEST PUSH0 PUSH0 SWAP1 POP JUMPDEST PUSH1 0x1 DUP1 SLOAD SWAP1 POP DUP2 LT ISZERO PUSH2 0x1FC JUMPI PUSH0 PUSH0 PUSH1 0x1 DUP4 DUP2 SLOAD DUP2 LT PUSH2 0x1C8 JUMPI PUSH2 0x1C7 PUSH2 0x678 JUMP JUMPDEST JUMPDEST SWAP1 PUSH0 MSTORE PUSH1 0x20 PUSH0 KECCAK256 ADD PUSH1 0x40 MLOAD PUSH2 0x1DD SWAP2 SWAP1 PUSH2 0x737 JUMP JUMPDEST SWAP1 DUP2 MSTORE PUSH1 0x20 ADD PUSH1 0x40 MLOAD DUP1 SWAP2 SUB SWAP1 KECCAK256 DUP2 SWAP1 SSTORE POP DUP1 DUP1 PUSH1 0x1 ADD SWAP2 POP POP PUSH2 0x1A5 JUMP JUMPDEST POP PUSH1 0x1 PUSH0 PUSH2 0x20A SWAP2 SWAP1 PUSH2 0x298 JUMP JUMPDEST JUMP JUMPDEST PUSH0 PUSH0 DUP3 PUSH1 0x40 MLOAD PUSH2 0x21C SWAP2 SWAP1 PUSH2 0x662 JUMP JUMPDEST SWAP1 DUP2 MSTORE PUSH1 0x20 ADD PUSH1 0x40 MLOAD DUP1 SWAP2 SUB SWAP1 KECCAK256 SLOAD SUB PUSH2 0x263 JUMPI PUSH1 0x1 DUP2 SWAP1 DUP1 PUSH1 0x1 DUP2 SLOAD ADD DUP1 DUP3 SSTORE DUP1 SWAP2 POP POP PUSH1 0x1 SWAP1 SUB SWAP1 PUSH0 MSTORE PUSH1 0x20 PUSH0 KECCAK256 ADD PUSH0 SWAP1 SWAP2 SWAP1 SWAP2 SWAP1 SWAP2 POP SWAP1 DUP2 PUSH2 0x261 SWAP2 SWAP1 PUSH2 0x8DB JUMP JUMPDEST POP JUMPDEST PUSH0 DUP2 PUSH1 0x40 MLOAD PUSH2 0x272 SWAP2 SWAP1 PUSH2 0x662 JUMP JUMPDEST SWAP1 DUP2 MSTORE PUSH1 0x20 ADD PUSH1 0x40 MLOAD DUP1 SWAP2 SUB SWAP1 KECCAK256 PUSH0 DUP2 SLOAD DUP1 SWAP3 SWAP2 SWAP1 PUSH2 0x290 SWAP1 PUSH2 0x9D7 JUMP JUMPDEST SWAP2 SWAP1 POP SSTORE POP POP JUMP JUMPDEST POP DUP1 SLOAD PUSH0 DUP3 SSTORE SWAP1 PUSH0 MSTORE PUSH1 0x20 PUSH0 KECCAK256 SWAP1 DUP2 ADD SWAP1 PUSH2 0x2B3 SWAP2 SWAP1 PUSH2 0x2B6 JUMP JUMPDEST POP JUMP JUMPDEST JUMPDEST DUP1 DUP3 GT ISZERO PUSH2 0x2D5 JUMPI PUSH0 DUP2 DUP2 PUSH2 0x2CC SWAP2 SWAP1 PUSH2 0x2D9 JUMP JUMPDEST POP PUSH1 0x1 ADD PUSH2 0x2B7 JUMP JUMPDEST POP SWAP1 JUMP JUMPDEST POP DUP1 SLOAD PUSH2 0x2E5 SWAP1 PUSH2 0x5F8 JUMP JUMPDEST PUSH0 DUP3 SSTORE DUP1 PUSH1 0x1F LT PUSH2 0x2F6 JUMPI POP PUSH2 0x313 JUMP JUMPDEST PUSH1 0x1F ADD PUSH1 0x20 SWAP1 DIV SWAP1 PUSH0 MSTORE PUSH1 0x20 PUSH0 KECCAK256 SWAP1 DUP2 ADD SWAP1 PUSH2 0x312 SWAP2 SWAP1 PUSH2 0x316 JUMP JUMPDEST JUMPDEST POP JUMP JUMPDEST JUMPDEST DUP1 DUP3 GT ISZERO PUSH2 0x32D JUMPI PUSH0 DUP2 PUSH0 SWAP1 SSTORE POP PUSH1 0x1 ADD PUSH2 0x317 JUMP JUMPDEST POP SWAP1 JUMP JUMPDEST PUSH0 PUSH1 0x40 MLOAD SWAP1 POP SWAP1 JUMP JUMPDEST PUSH0 PUSH0 REVERT JUMPDEST PUSH0 PUSH0 REVERT JUMPDEST PUSH0 DUP2 SWAP1 POP SWAP2 SWAP1 POP JUMP JUMPDEST PUSH2 0x354 DUP2 PUSH2 0x342 JUMP JUMPDEST DUP2 EQ PUSH2 0x35E JUMPI PUSH0 PUSH0 REVERT JUMPDEST POP JUMP JUMPDEST PUSH0 DUP2 CALLDATALOAD SWAP1 POP PUSH2 0x36F DUP2 PUSH2 0x34B JUMP JUMPDEST SWAP3 SWAP2 POP POP JUMP JUMPDEST PUSH0 PUSH1 0x20 DUP3 DUP5 SUB SLT ISZERO PUSH2 0x38A JUMPI PUSH2 0x389 PUSH2 0x33A JUMP JUMPDEST JUMPDEST PUSH0 PUSH2 0x397 DUP5 DUP3 DUP6 ADD PUSH2 0x361 JUMP JUMPDEST SWAP2 POP POP SWAP3 SWAP2 POP POP JUMP JUMPDEST PUSH0 DUP2 MLOAD SWAP1 POP SWAP2 SWAP1 POP JUMP JUMPDEST PUSH0 DUP3 DUP3 MSTORE PUSH1 0x20 DUP3 ADD SWAP1 POP SWAP3 SWAP2 POP POP JUMP JUMPDEST DUP3 DUP2 DUP4 MCOPY PUSH0 DUP4 DUP4 ADD MSTORE POP POP POP JUMP JUMPDEST PUSH0 PUSH1 0x1F NOT PUSH1 0x1F DUP4 ADD AND SWAP1 POP SWAP2 SWAP1 POP JUMP JUMPDEST PUSH0 PUSH2 0x3E2 DUP3 PUSH2 0x3A0 JUMP JUMPDEST PUSH2 0x3EC DUP2 DUP6 PUSH2 0x3AA JUMP JUMPDEST SWAP4 POP PUSH2 0x3FC DUP2 DUP6 PUSH1 0x20 DUP7 ADD PUSH2 0x3BA JUMP JUMPDEST PUSH2 0x405 DUP2 PUSH2 0x3C8 JUMP JUMPDEST DUP5 ADD SWAP2 POP POP SWAP3 SWAP2 POP POP JUMP JUMPDEST PUSH0 PUSH1 0x20 DUP3 ADD SWAP1 POP DUP2 DUP2 SUB PUSH0 DUP4 ADD MSTORE PUSH2 0x428 DUP2 DUP5 PUSH2 0x3D8 JUMP JUMPDEST SWAP1 POP SWAP3 SWAP2 POP POP JUMP JUMPDEST PUSH0 PUSH0 REVERT JUMPDEST PUSH0 PUSH0 REVERT JUMPDEST PUSH32 0x4E487B7100000000000000000000000000000000000000000000000000000000 PUSH0 MSTORE PUSH1 0x41 PUSH1 0x4 MSTORE PUSH1 0x24 PUSH0 REVERT JUMPDEST PUSH2 0x46E DUP3 PUSH2 0x3C8 JUMP JUMPDEST DUP2 ADD DUP2 DUP2 LT PUSH8 0xFFFFFFFFFFFFFFFF DUP3 GT OR ISZERO PUSH2 0x48D JUMPI PUSH2 0x48C PUSH2 0x438 JUMP JUMPDEST JUMPDEST DUP1 PUSH1 0x40 MSTORE POP POP POP JUMP JUMPDEST PUSH0 PUSH2 0x49F PUSH2 0x331 JUMP JUMPDEST SWAP1 POP PUSH2 0x4AB DUP3 DUP3 PUSH2 0x465 JUMP JUMPDEST SWAP2 SWAP1 POP JUMP JUMPDEST PUSH0 PUSH8 0xFFFFFFFFFFFFFFFF DUP3 GT ISZERO PUSH2 0x4CA JUMPI PUSH2 0x4C9 PUSH2 0x438 JUMP JUMPDEST JUMPDEST PUSH2 0x4D3 DUP3 PUSH2 0x3C8 JUMP JUMPDEST SWAP1 POP PUSH1 0x20 DUP2 ADD SWAP1 POP SWAP2 SWAP1 POP JUMP JUMPDEST DUP3 DUP2 DUP4 CALLDATACOPY PUSH0 DUP4 DUP4 ADD MSTORE POP POP POP JUMP JUMPDEST PUSH0 PUSH2 0x500 PUSH2 0x4FB DUP5 PUSH2 0x4B0 JUMP JUMPDEST PUSH2 0x496 JUMP JUMPDEST SWAP1 POP DUP3 DUP2 MSTORE PUSH1 0x20 DUP2 ADD DUP5 DUP5 DUP5 ADD GT ISZERO PUSH2 0x51C JUMPI PUSH2 0x51B PUSH2 0x434 JUMP JUMPDEST JUMPDEST PUSH2 0x527 DUP5 DUP3 DUP6 PUSH2 0x4E0 JUMP JUMPDEST POP SWAP4 SWAP3 POP POP POP JUMP JUMPDEST PUSH0 DUP3 PUSH1 0x1F DUP4 ADD SLT PUSH2 0x543 JUMPI PUSH2 0x542 PUSH2 0x430 JUMP JUMPDEST JUMPDEST DUP2 CALLDATALOAD PUSH2 0x553 DUP5 DUP3 PUSH1 0x20 DUP7 ADD PUSH2 0x4EE JUMP JUMPDEST SWAP2 POP POP SWAP3 SWAP2 POP POP JUMP JUMPDEST PUSH0 PUSH1 0x20 DUP3 DUP5 SUB SLT ISZERO PUSH2 0x571 JUMPI PUSH2 0x570 PUSH2 0x33A JUMP JUMPDEST JUMPDEST PUSH0 DUP3 ADD CALLDATALOAD PUSH8 0xFFFFFFFFFFFFFFFF DUP2 GT ISZERO PUSH2 0x58E JUMPI PUSH2 0x58D PUSH2 0x33E JUMP JUMPDEST JUMPDEST PUSH2 0x59A DUP5 DUP3 DUP6 ADD PUSH2 0x52F JUMP JUMPDEST SWAP2 POP POP SWAP3 SWAP2 POP POP JUMP JUMPDEST PUSH2 0x5AC DUP2 PUSH2 0x342 JUMP JUMPDEST DUP3 MSTORE POP POP JUMP JUMPDEST PUSH0 PUSH1 0x20 DUP3 ADD SWAP1 POP PUSH2 0x5C5 PUSH0 DUP4 ADD DUP5 PUSH2 0x5A3 JUMP JUMPDEST SWAP3 SWAP2 POP POP JUMP JUMPDEST PUSH32 0x4E487B7100000000000000000000000000000000000000000000000000000000 PUSH0 MSTORE PUSH1 0x22 PUSH1 0x4 MSTORE PUSH1 0x24 PUSH0 REVERT JUMPDEST PUSH0 PUSH1 0x2 DUP3 DIV SWAP1 POP PUSH1 0x1 DUP3 AND DUP1 PUSH2 0x60F JUMPI PUSH1 0x7F DUP3 AND SWAP2 POP JUMPDEST PUSH1 0x20 DUP3 LT DUP2 SUB PUSH2 0x622 JUMPI PUSH2 0x621 PUSH2 0x5CB JUMP JUMPDEST JUMPDEST POP SWAP2 SWAP1 POP JUMP JUMPDEST PUSH0 DUP2 SWAP1 POP SWAP3 SWAP2 POP POP JUMP JUMPDEST PUSH0 PUSH2 0x63C DUP3 PUSH2 0x3A0 JUMP JUMPDEST PUSH2 0x646 DUP2 DUP6 PUSH2 0x628 JUMP JUMPDEST SWAP4 POP PUSH2 0x656 DUP2 DUP6 PUSH1 0x20 DUP7 ADD PUSH2 0x3BA JUMP JUMPDEST DUP1 DUP5 ADD SWAP2 POP POP SWAP3 SWAP2 POP POP JUMP JUMPDEST PUSH0 PUSH2 0x66D DUP3 DUP5 PUSH2 0x632 JUMP JUMPDEST SWAP2 POP DUP2 SWAP1 POP SWAP3 SWAP2 POP POP JUMP JUMPDEST PUSH32 0x4E487B7100000000000000000000000000000000000000000000000000000000 PUSH0 MSTORE PUSH1 0x32 PUSH1 0x4 MSTORE PUSH1 0x24 PUSH0 REVERT JUMPDEST PUSH0 DUP2 SWAP1 POP DUP2 PUSH0 MSTORE PUSH1 0x20 PUSH0 KECCAK256 SWAP1 POP SWAP2 SWAP1 POP JUMP JUMPDEST PUSH0 DUP2 SLOAD PUSH2 0x6C3 DUP2 PUSH2 0x5F8 JUMP JUMPDEST PUSH2 0x6CD DUP2 DUP7 PUSH2 0x628 JUMP JUMPDEST SWAP5 POP PUSH1 0x1 DUP3 AND PUSH0 DUP2 EQ PUSH2 0x6E7 JUMPI PUSH1 0x1 DUP2 EQ PUSH2 0x6FC JUMPI PUSH2 0x72E JUMP JUMPDEST PUSH1 0xFF NOT DUP4 AND DUP7 MSTORE DUP2 ISZERO ISZERO DUP3 MUL DUP7 ADD SWAP4 POP PUSH2 0x72E JUMP JUMPDEST PUSH2 0x705 DUP6 PUSH2 0x6A5 JUMP JUMPDEST PUSH0 JUMPDEST DUP4 DUP2 LT ISZERO PUSH2 0x726 JUMPI DUP2 SLOAD DUP2 DUP10 ADD MSTORE PUSH1 0x1 DUP3 ADD SWAP2 POP PUSH1 0x20 DUP2 ADD SWAP1 POP PUSH2 0x707 JUMP JUMPDEST DUP4 DUP9 ADD SWAP6 POP POP POP JUMPDEST POP POP POP SWAP3 SWAP2 POP POP JUMP JUMPDEST PUSH0 PUSH2 0x742 DUP3 DUP5 PUSH2 0x6B7 JUMP JUMPDEST SWAP2 POP DUP2 SWAP1 POP SWAP3 SWAP2 POP POP JUMP JUMPDEST PUSH0 PUSH1 0x20 PUSH1 0x1F DUP4 ADD DIV SWAP1 POP SWAP2 SWAP1 POP JUMP JUMPDEST PUSH0 DUP3 DUP3 SHL SWAP1 POP SWAP3 SWAP2 POP POP JUMP JUMPDEST PUSH0 PUSH1 0x8 DUP4 MUL PUSH2 0x797 PUSH32 0xFFFFFFFFFFFFFFFFFFFFFFFFFFFFFFFFFFFFFFFFFFFFFFFFFFFFFFFFFFFFFFFF DUP3 PUSH2 0x75C JUMP JUMPDEST PUSH2 0x7A1 DUP7 DUP4 PUSH2 0x75C JUMP JUMPDEST SWAP6 POP DUP1 NOT DUP5 AND SWAP4 POP DUP1 DUP7 AND DUP5 OR SWAP3 POP POP POP SWAP4 SWAP3 POP POP POP JUMP JUMPDEST PUSH0 DUP2 SWAP1 POP SWAP2 SWAP1 POP JUMP JUMPDEST PUSH0 PUSH2 0x7DC PUSH2 0x7D7 PUSH2 0x7D2 DUP5 PUSH2 0x342 JUMP JUMPDEST PUSH2 0x7B9 JUMP JUMPDEST PUSH2 0x342 JUMP JUMPDEST SWAP1 POP SWAP2 SWAP1 POP JUMP JUMPDEST PUSH0 DUP2 SWAP1 POP SWAP2 SWAP1 POP JUMP JUMPDEST PUSH2 0x7F5 DUP4 PUSH2 0x7C2 JUMP JUMPDEST PUSH2 0x809 PUSH2 0x801 DUP3 PUSH2 0x7E3 JUMP JUMPDEST DUP5 DUP5 SLOAD PUSH2 0x768 JUMP JUMPDEST DUP3 SSTORE POP POP POP POP JUMP JUMPDEST PUSH0 PUSH0 SWAP1 POP SWAP1 JUMP JUMPDEST PUSH2 0x820 PUSH2 0x811 JUMP JUMPDEST PUSH2 0x82B DUP2 DUP5 DUP5 PUSH2 0x7EC JUMP JUMPDEST POP POP POP JUMP JUMPDEST JUMPDEST DUP2 DUP2 LT ISZERO PUSH2 0x84E JUMPI PUSH2 0x843 PUSH0 DUP3 PUSH2 0x818 JUMP JUMPDEST PUSH1 0x1 DUP2 ADD SWAP1 POP PUSH2 0x831 JUMP JUMPDEST POP POP JUMP JUMPDEST PUSH1 0x1F DUP3 GT ISZERO PUSH2 0x893 JUMPI PUSH2 0x864 DUP2 PUSH2 0x6A5 JUMP JUMPDEST PUSH2 0x86D DUP5 PUSH2 0x74D JUMP JUMPDEST DUP2 ADD PUSH1 0x20 DUP6 LT ISZERO PUSH2 0x87C JUMPI DUP2 SWAP1 POP JUMPDEST PUSH2 0x890 PUSH2 0x888 DUP6 PUSH2 0x74D JUMP JUMPDEST DUP4 ADD DUP3 PUSH2 0x830 JUMP JUMPDEST POP POP JUMPDEST POP POP POP JUMP JUMPDEST PUSH0 DUP3 DUP3 SHR SWAP1 POP SWAP3 SWAP2 POP POP JUMP JUMPDEST PUSH0 PUSH2 0x8B3 PUSH0 NOT DUP5 PUSH1 0x8 MUL PUSH2 0x898 JUMP JUMPDEST NOT DUP1 DUP4 AND SWAP2 POP POP SWAP3 SWAP2 POP POP JUMP JUMPDEST PUSH0 PUSH2 0x8CB DUP4 DUP4 PUSH2 0x8A4 JUMP JUMPDEST SWAP2 POP DUP3 PUSH1 0x2 MUL DUP3 OR SWAP1 POP SWAP3 SWAP2 POP POP JUMP JUMPDEST PUSH2 0x8E4 DUP3 PUSH2 0x3A0 JUMP JUMPDEST PUSH8 0xFFFFFFFFFFFFFFFF DUP2 GT ISZERO PUSH2 0x8FD JUMPI PUSH2 0x8FC PUSH2 0x438 JUMP JUMPDEST JUMPDEST PUSH2 0x907 DUP3 SLOAD PUSH2 0x5F8 JUMP JUMPDEST PUSH2 0x912 DUP3 DUP3 DUP6 PUSH2 0x852 JUMP JUMPDEST PUSH0 PUSH1 0x20 SWAP1 POP PUSH1 0x1F DUP4 GT PUSH1 0x1 DUP2 EQ PUSH2 0x943 JUMPI PUSH0 DUP5 ISZERO PUSH2 0x931 JUMPI DUP3 DUP8 ADD MLOAD SWAP1 POP JUMPDEST PUSH2 0x93B DUP6 DUP3 PUSH2 0x8C0 JUMP JUMPDEST DUP7 SSTORE POP PUSH2 0x9A2 JUMP JUMPDEST PUSH1 0x1F NOT DUP5 AND PUSH2 0x951 DUP7 PUSH2 0x6A5 JUMP JUMPDEST PUSH0 JUMPDEST DUP3 DUP2 LT ISZERO PUSH2 0x978 JUMPI DUP5 DUP10 ADD MLOAD DUP3 SSTORE PUSH1 0x1 DUP3 ADD SWAP2 POP PUSH1 0x20 DUP6 ADD SWAP5 POP PUSH1 0x20 DUP2 ADD SWAP1 POP PUSH2 0x953 JUMP JUMPDEST DUP7 DUP4 LT ISZERO PUSH2 0x995 JUMPI DUP5 DUP10 ADD MLOAD PUSH2 0x991 PUSH1 0x1F DUP10 AND DUP3 PUSH2 0x8A4 JUMP JUMPDEST DUP4 SSTORE POP JUMPDEST PUSH1 0x1 PUSH1 0x2 DUP9 MUL ADD DUP9 SSTORE POP POP POP JUMPDEST POP POP POP POP POP POP JUMP JUMPDEST PUSH32 0x4E487B7100000000000000000000000000000000000000000000000000000000 PUSH0 MSTORE PUSH1 0x11 PUSH1 0x4 MSTORE PUSH1 0x24 PUSH0 REVERT JUMPDEST PUSH0 PUSH2 0x9E1 DUP3 PUSH2 0x342 JUMP JUMPDEST SWAP2 POP PUSH32 0xFFFFFFFFFFFFFFFFFFFFFFFFFFFFFFFFFFFFFFFFFFFFFFFFFFFFFFFFFFFFFFFF DUP3 SUB PUSH2 0xA13 JUMPI PUSH2 0xA12 PUSH2 0x9AA JUMP JUMPDEST JUMPDEST PUSH1 0x1 DUP3 ADD SWAP1 POP SWAP2 SWAP1 POP JUMP INVALID LOG2 PUSH5 0x6970667358 0x22 SLT KECCAK256 JUMPDEST 0x28 PUSH8 0x6567A17DE7D443D4 SWAPN 0x12 0xEF 0x28 PUSH4 0xA502CAF2 EXTCODECOPY 0xCB 0xD 0xC8 SWAP10 TSTORE MSTORE 0xB6 SLT 0xC 0xF SAR PUSH5 0x736F6C6343 STOP ADDMOD 0x1E STOP CALLER "
		},
		"gasEstimates": {
			"creation": {
				"codeDepositCost": "528800",
				"executionCost": "560",
				"totalCost": "529360"
			},
			"external": {
				"cadidates(uint256)": "infinite",
				"getVotes(string)": "infinite",
				"resetVotes()": "infinite",
				"vote(string)": "infinite"
			}
		},
		"methodIdentifiers": {
			"cadidates(uint256)": "1945c2f3",
			"getVotes(string)": "805265e5",
			"resetVotes()": "b9830ff1",
			"vote(string)": "fc36e15b"
		}
	},
	"abi": [
		{
			"inputs": [
				{
					"internalType": "uint256",
					"name": "",
					"type": "uint256"
				}
			],
			"name": "cadidates",
			"outputs": [
				{
					"internalType": "string",
					"name": "",
					"type": "string"
				}
			],
			"stateMutability": "view",
			"type": "function"
		},
		{
			"inputs": [
				{
					"internalType": "string",
					"name": "cadidateName",
					"type": "string"
				}
			],
			"name": "getVotes",
			"outputs": [
				{
					"internalType": "uint256",
					"name": "",
					"type": "uint256"
				}
			],
			"stateMutability": "view",
			"type": "function"
		},
		{
			"inputs": [],
			"name": "resetVotes",
			"outputs": [],
			"stateMutability": "nonpayable",
			"type": "function"
		},
		{
			"inputs": [
				{
					"internalType": "string",
					"name": "cadidateName",
					"type": "string"
				}
			],
			"name": "vote",
			"outputs": [],
			"stateMutability": "nonpayable",
			"type": "function"
		}
	]
}